:020000040800F2
:1000000000000120956200089150000899500008F6
:10001000A1500008A9500008B150000800000000DD
:10002000000000000000000000000000B9500008BF
:10003000C750000800000000D5500008E350000839
:10004000E5620008E5620008E5620008E562000874
:10005000E5620008E5620008E5620008E562000864
:10006000E5620008E5620008E5620008E562000854
:10007000E5620008E5620008E5620008E562000844
:10008000E5620008E5620008F15000080000000089
:10009000000000000000000000000000E562000811
:1000A000E5620008E5620008E5620008E562000814
:1000B00005510008E5620008E5620008E5620008F5
:1000C000E5620008E5620008E5620008E5620008F4
:1000D000E5620008E5620008E56200080000000033
:1000E000E5620008E5620008E56200080000000023
:1000F000000000000000000000000000E5620008B1
:1001000000000000E5620008E5620008E562000802
:1001100000000000000000000000000000000000DF
:10012000E5620008E5620008E5620008E562000893
:10013000E562000800000000000000000000000070
:10014000000000000000000000000000195100083D
:10015000E5620008E5620008E5620008E562000863
:10016000E5620008E56200080000000000000000F1
:10017000000000000000000000000000000000007F
:1001800000000000E5620008000000000000000020
:04019000E56200081C
:1001A00010B5054C237833B9044B13B10448AFF3B1
:1001B00000800123237010BD000200200000000019
:1001C000106D010808B5034B1BB103490348AFF399
:1001D000008008BD0000000004020020106D01082E
:1001E00001F0FF01102A2BDB10F0070F08D010F8E8
:1001F000013B013A8B422DD010F0070F42B3F6D1EC
:10020000F0B441EA012141EA014122F007047FF004
:1002100000070023F0E80256083C85EA010586EA5B
:10022000010685FA47F5A3FA87F586FA47F6A5FA97
:1002300087F68EB9EED1F0BC01F0FF0102F00702A3
:1002400032B110F8013B013A83EA010313B1F8D14E
:100250000020704701387047002D06BF354603382F
:10026000073815F0010F07D1013015F4807F02BF68
:10027000013015F4C03F0130F0BC0138704700BFB9
:10028000034613F8012B002AFBD1181A01387047D6
:1002900081F0004102E000BF83F0004330B54FEA37
:1002A00041044FEA430594EA050F08BF90EA020FA4
:1002B0001FBF54EA000C55EA020C7FEA645C7FEA37
:1002C000655C00F0E2804FEA5454D4EB5555B8BF5A
:1002D0006D420CDD2C4480EA020281EA030382EACB
:1002E000000083EA010180EA020281EA0303362D5D
:1002F00088BF30BD11F0004F4FEA01314FF4801C30
:100300004CEA113102D0404261EB410113F0004F41
:100310004FEA03334CEA133302D0524263EB4303F8
:1003200094EA050F00F0A780A4F10104D5F1200E96
:100330000DDB02FA0EFC22FA05F2801841F10001F1
:1003400003FA0EF2801843FA05F359410EE0A5F1C5
:1003500020050EF1200E012A03FA0EFC28BF4CF0F6
:10036000020C43FA05F3C01851EBE37101F00045AC
:1003700007D54FF0000EDCF1000C7EEB00006EEBB9
:100380000101B1F5801F1BD3B1F5001F0CD3490843
:100390005FEA30004FEA3C0C04F101044FEA44529A
:1003A00012F5800F80F09A80BCF1004F08BF5FEA21
:1003B000500C50F1000041EB045141EA050130BD01
:1003C0005FEA4C0C404141EB0101013C28BFB1F513
:1003D000801FE9D291F0000F04BF01460020B1FA5E
:1003E00081F308BF2033A3F10B03B3F120020CDA31
:1003F0000C3208DD02F1140CC2F10C0201FA0CF00F
:1004000021FA02F10CE002F11402D8BFC2F1200C73
:1004100001FA02F120FA0CFCDCBF41EA0C01904029
:10042000E41AA2BF01EB0451294330BD6FEA040472
:100430001F3C1CDA0C340EDC04F11404C4F120025D
:1004400020FA04F001FA02F340EA030021FA04F36F
:1004500045EA030130BDC4F10C04C4F1200220FAC6
:1004600002F001FA04F340EA0300294630BD21FA04
:1004700004F0294630BD94F0000F83F4801306BFCA
:1004800081F480110134013D4EE77FEA645C18BFBE
:100490007FEA655C29D094EA050F08BF90EA020F55
:1004A00005D054EA000C04BF1946104630BD91EA4D
:1004B000030F1EBF0021002030BD5FEA545C05D150
:1004C0004000494128BF41F0004130BD14F580048F
:1004D0003CBF01F5801130BD01F0004545F0FE4103
:1004E00041F470014FF0000030BD7FEA645C1ABF38
:1004F000194610467FEA655C1CBF0B46024650EA6F
:10050000013406BF52EA033591EA030F41F400219A
:1005100030BD00BF90F0000F04BF0021704730B520
:100520004FF4806404F132044FF000054FF00001F5
:1005300050E700BF90F0000F04BF0021704730B5B6
:100540004FF4806404F1320410F0004548BF40428B
:100550004FF000013EE700BF42004FEAE2014FEAE0
:1005600031014FEA02701FBF12F07F4393F07F4FBB
:1005700081F06051704732F07F4208BF704793F0BE
:100580007F4F04BF41F40021704730B54FF46074D1
:1005900001F0004521F000411CE700BF50EA0102D4
:1005A00008BF704730B54FF000050AE050EA01027D
:1005B00008BF704730B511F0004502D5404261EBED
:1005C00041014FF4806404F132045FEA915C3FF42E
:1005D000D8AE4FF003025FEADC0C18BF03325FEACB
:1005E000DC0C18BF033202EBDC02C2F1200300FA7C
:1005F00003FC20FA02F001FA03FE40EA0E0021FAA1
:1006000002F11444BDE600BF70B54FF0FF0C4CF48E
:10061000E06C1CEA11541DBF1CEA135594EA0C0F40
:1006200095EA0C0F00F0DEF82C4481EA030621EA7B
:100630004C5123EA4C5350EA013518BF52EA0335B6
:1006400041F4801143F4801338D0A0FB02CE4FF068
:100650000005E1FB02E506F00042E0FB03E54FF098
:100660000006E1FB03569CF0000F18BF4EF0010E90
:10067000A4F1FF04B6F5007F64F5407404D25FEA8C
:100680004E0E6D4146EB060642EAC62141EA55513F
:100690004FEAC52040EA5E504FEACE2EB4F1FD0C81
:1006A00088BFBCF5E06F1ED8BEF1004F08BF5FEAFF
:1006B000500E50F1000041EB045170BD06F00046B1
:1006C00046EA010140EA020081EA0301B4EB5C045E
:1006D000C2BFD4EB0C0541EA045170BD41F4801156
:1006E0004FF0000E013C00F3AB8014F1360FDEBF7B
:1006F000002001F0004170BDC4F10004203C35DA57
:100700000C341BDC04F11404C4F1200500FA05F3D9
:1007100020FA04F001FA05F240EA020001F000427A
:1007200021F0004110EBD37021FA04F642EB0601F0
:100730005EEA430E08BF20EAD37070BDC4F10C041A
:10074000C4F1200500FA04F320FA05F001FA04F2DE
:1007500040EA020001F0004110EBD37041F10001CA
:100760005EEA430E08BF20EAD37070BDC4F12005D5
:1007700000FA05F24EEA020E20FA04F301FA05F23D
:1007800043EA020321FA04F001F0004121FA04F2E5
:1007900020EA020000EBD3705EEA430E08BF20EAB5
:1007A000D37070BD94F0000F0FD101F000464000EF
:1007B00041EB010111F4801F08BF013CF7D041EA71
:1007C000060195F0000F18BF704703F00046520075
:1007D00043EB030313F4801F08BF013DF7D043EA46
:1007E0000603704794EA0C0F0CEA135518BF95EAFC
:1007F0000C0F0CD050EA410618BF52EA4306D1D183
:1008000081EA030101F000414FF0000070BD50EAA1
:10081000410606BF1046194652EA430619D094EA2B
:100820000C0F02D150EA013613D195EA0C0F05D115
:1008300052EA03361CBF104619460AD181EA030169
:1008400001F0004141F0FE4141F470014FF0000021
:1008500070BD41F0FE4141F4780170BD70B54FF0BC
:10086000FF0C4CF4E06C1CEA11541DBF1CEA13553C
:1008700094EA0C0F95EA0C0F00F0A7F8A4EB05041E
:1008800081EA030E52EA03354FEA013100F0888015
:100890004FEA03334FF0805545EA131343EA1263DE
:1008A0004FEA022245EA111545EA10654FEA002693
:1008B0000EF000419D4208BF964244F1FD0404F54C
:1008C000407402D25B084FEA3202B61A65EB0305A8
:1008D0005B084FEA32024FF480104FF4002CB6EB65
:1008E000020E75EB030E22BFB61A754640EA0C00E5
:1008F0005B084FEA3202B6EB020E75EB030E22BF25
:10090000B61A754640EA5C005B084FEA3202B6EB65
:10091000020E75EB030E22BFB61A754640EA9C0024
:100920005B084FEA3202B6EB020E75EB030E22BFF4
:10093000B61A754640EADC0055EA060E18D04FEAB2
:10094000051545EA16754FEA06164FEAC30343EA52
:1009500052734FEAC2025FEA1C1CC0D111F4801F1F
:100960000BD141EA00014FF000004FF0004CB6E718
:1009700011F4801F04BF01430020B4F1FD0C88BFB7
:10098000BCF5E06F3FF6AFAEB5EB030C04BFB6EBC2
:10099000020C5FEA500C50F1000041EB045170BDB5
:1009A0000EF0004E4EEA113114EB5C04C2BFD4EBE2
:1009B0000C0541EA045170BD41F480114FF0000E66
:1009C000013C90E645EA060E8DE60CEA135594EAE2
:1009D0000C0F08BF95EA0C0F3FF43BAF94EA0C0FE5
:1009E0000AD150EA01347FF434AF95EA0C0F7FF45A
:1009F00025AF104619462CE795EA0C0F06D152EAAE
:100A000003353FF4FDAE1046194622E750EA410691
:100A100018BF52EA43067FF4C5AE50EA41047FF4A2
:100A20000DAF52EA43057FF4EBAE12E74FF0FF3C07
:100A300006E000BF4FF0010C02E000BF4FF0010CD8
:100A40004DF804CD4FEA410C7FEA6C5C4FEA430C51
:100A500018BF7FEA6C5C1BD001B050EA410C0CBFA0
:100A600052EA430C91EA030F02BF90EA020F002002
:100A7000704710F1000F91EA030F58BF994208BF69
:100A800090422CBFD8176FEAE37040F00100704726
:100A90004FEA410C7FEA6C5C02D150EA013C07D17D
:100AA0004FEA430C7FEA6C5CD6D152EA033CD3D0C8
:100AB0005DF8040B704700BF8446104662468C46C2
:100AC0001946634600E000BF01B5FFF7B7FF0028F5
:100AD00048BF10F1000F01BD4DF808EDFFF7F4FF1E
:100AE0000CBF012000205DF808FB00BF4DF808EDA9
:100AF000FFF7EAFF34BF012000205DF808FB00BFCC
:100B00004DF808EDFFF7E0FF94BF012000205DF8ED
:100B100008FB00BF4DF808EDFFF7CEFF94BF0120A2
:100B200000205DF808FB00BF4DF808EDFFF7C4FF9B
:100B300034BF012000205DF808FB00BF4FEA410CE4
:100B40007FEA6C5C02D150EA013C0AD14FEA430CC7
:100B50007FEA6C5C02D152EA033C02D14FF0000004
:100B600070474FF0010070474FEA410212F5001242
:100B700015D211D56FF47873B3EB625212D94FEAE4
:100B8000C12343F0004343EA505311F0004F23FACE
:100B900002F018BF404270474FF00000704750EA23
:100BA000013005D111F0004008BF6FF000407047E0
:100BB0004FF00000704700BF53B94AB9002908BF81
:100BC00000281CBF4FF0FF314FF0FF3000F088B914
:100BD000ADF1080C6DE904CE00F006F8DDF804E094
:100BE000DDE9022304B070472DE9F047089D8E46E9
:100BF00004468846002B4AD18A42174662D9B2FA87
:100C000082F64EB1C6F1200301FA06F820FA03F38A
:100C1000B74043EA0808B4404FEA174E1FFA87FC72
:100C2000B8FBFEF1230C0EFB118843EA084301FBDD
:100C30000CF29A4209D9FB1801F1FF3080F0EA80EA
:100C40009A4240F2E78002393B449A1AA3B2B2FBBF
:100C5000FEF00EFB102243EA024300FB0CFC9C4515
:100C600009D9FB1800F1FF3280F0D6809C4540F294
:100C7000D3803B44023840EA0140A3EB0C0300213F
:100C80001DB1F3400022C5E90032BDE8F0878B4278
:100C900005D90DB1C5E9000100210846F5E7B3FA11
:100CA00083F1002946D1734502D3824200F20581C7
:100CB000841A6EEB030201209046002DE5D0C5E9B1
:100CC0000048E2E7002A00F09080B2FA82F6002E97
:100CD00040F0A4808A1A030C4FEA174E80B2BCB2CF
:100CE0000121B2FBFEFC0EFB1C2243EA024304FB83
:100CF0000CF29A4207D9FB180CF1FF3802D29A4243
:100D000000F2E080C4469B1AB3FBFEF20EFB1233E6
:100D100040EA034302FB04F49C4207D9FB1802F1AA
:100D2000FF3002D29C4200F2CA8002461B1B42EAFC
:100D30000C40A5E7C1F120068B4022FA06F71F43BD
:100D40000EFA01F420FA06F32EFA06FE4FEA1749CE
:100D5000234300FA01F81FFA87FCBEFBF9F01C0CD4
:100D600009FB10EE44EA0E4400FB0CFEA64502FA15
:100D700001F209D93C1900F1FF3A80F09C80A645A8
:100D800040F2998002383C44A4EB0E041FFA83FE23
:100D9000B4FBF9F309FB13444EEA044403FB0CFCD7
:100DA000A44508D93C1903F1FF3E80F08280A44598
:100DB0007FD9023B3C4443EA0040A4EB0C04A0FB77
:100DC00002EC64457346E14662D35FD05DB1B8EB97
:100DD000030264EB090404FA06F622FA01F31E4347
:100DE000CC40C5E9006400214FE7B1FBF2FC010CE7
:100DF00041EA0E4180B240EA01423B4638463C4659
:100E0000B846BE462026B1FBF7F1A2EB080241EA44
:100E10000C4166E7014618E710462CE7C6F12002B0
:100E20002EFA02F3B740B14020FA02F24FEA174E11
:100E30000A43B3FBFEF8BCB20EFB1833110C41EAB7
:100E4000034108FB04F9B04089454FEA104380B2E2
:100E50003ED9791808F1FF3C01D289451FD8A1EB92
:100E60000901B1FBFEF909FB04F80EFB191192B25E
:100E700042EA0142424529D2BA1809F1FF31C4D2EF
:100E80004245C2D2A9F102013A44BEE7F0459DD2E3
:100E9000BEEB02036CEB070C0138E14696E7A7EBCB
:100EA00009094944A8F1020CB1FBFEF909FB04F859
:100EB000DBE773467FE7504666E70846FDE63B44BE
:100EC000023A33E7ACF1020C3B441CE749469CE78D
:100ED000A1EB0901C446B1FBFEF909FB04F8C4E724
:100EE000704700BF80B588B004AFF8607A601A46DA
:100EF0000B46FB7213463B81FB681868FB7A9AB27B
:100F00004FF0FF3302933B8901937B6800930123E9
:100F1000EE2108F0D1FE034618461037BD4680BDCD
:100F200080B586B004AF78600B46FB701346BB708B
:100F30007B681868FB789AB24FF0FF330293012365
:100F40000193BB1C00930123EE2108F0BBFD034677
:100F500018460837BD4680BD80B58AB000AFF8603E
:100F6000B9601346FB71FB68BA681A60FB68FA79CE
:100F70009A7607F110021623AA21F868FFF7B2FF4C
:100F80000346002B01D0002377E03B7C1BB21B0201
:100F90001AB27B7C1BB213431AB2FB689A80BB7CEB
:100FA0001BB21B021AB2FB7C1BB213431AB2FB68C2
:100FB000DA803B7D1BB21B021AB27B7D1BB213434E
:100FC0001AB2FB681A81BB7D1BB21B021AB2FB7DF1
:100FD0001BB213431BB29AB2FB685A813B7E1BB211
:100FE0001B021AB27B7E1BB213431BB29AB2FB6880
:100FF0009A81BB7E1BB21B021AB2FB7E1BB213434B
:101000001BB29AB2FB68DA813B7F1BB21B021AB299
:101010007B7F1BB213431AB2FB681A82BB7F1BB2E1
:101020001B021AB2FB7F1BB213431AB2FB685A822F
:1010300097F820301BB21B021AB297F821301BB26E
:1010400013431AB2FB689A8297F822301BB21B0234
:101050001AB297F823301BB213431AB2FB68DA8234
:1010600097F824301BB21B021AB297F825301BB236
:1010700013431AB2FB681A83012318462837BD466A
:1010800080BD000080B586B000AF78602E22F421CC
:101090007868FFF745FF052005F098F907F1080289
:1010A0000223F6217868FFF71DFF3B7A1B027A7A4C
:1010B00013437B617B68DB891A467B699B1A7A68DC
:1010C000928902FB03F3DB133B617B68B3F91630B3
:1010D000DA027B68B3F9183019463B690B4492FB7E
:1010E000F3F3FB603A69FB6813440A4A1360094B47
:1010F0001B6808331B1107EE903AF8EEE77AB2EE60
:10110000047AC7EE876AF0EE667AB0EE670A18379F
:10111000BD4680BD1C02002080B58EB000AF786057
:101120007B689B7E032B27D801A252F823F000BFD7
:10113000411100084F1100085D1100086B110008F3
:10114000342387F83330052387F832301BE07423CB
:1011500087F83330082387F8323014E0B42387F857
:1011600033300E2387F832300DE0F42387F8333024
:101170001A2387F8323006E0342387F8333005230A
:1011800087F8323000BF97F833301A46F421786878
:10119000FFF7C6FE97F83230184605F017F907F149
:1011A0000C020323F6217868FFF79CFE3B7B1A04B0
:1011B0007B7B1B021343BA7B1A437B689B7EC3F184
:1011C000080342FA03F3FB624D4B1B68A3F57A63F5
:1011D000BB627B68B3F912301A46BB6A03FB03F3A8
:1011E0001B1302FB03F3DB127B627B68B3F906304F
:1011F0001A46BB6A02FB03F3DB123B627A6A3B6A64
:101200001344FB617B68B3F904309A00FB69134413
:101210007A68927E93400233002B00DA03339B10EE
:10122000BB617B68B3F908301A46BB6A02FB03F363
:101230005B137B627B68B3F910301A46BB6A03FB11
:1012400003F31B1302FB03F31B143B627A6A3B6A32
:10125000134402339B10FB617B685B891A46FB6970
:1012600003F5004302FB03F3DB0B7B61FA6ABB6906
:10127000D31A7A68927E11464CF250320A4102FB30
:1012800003F33B613B69002B06DB3B695A007B693A
:10129000B2FBF3F37B6305E03A697B69B2FBF3F3DE
:1012A0005B007B637B6B1B127A6B121202FB03F3F6
:1012B0007B627B6A40F6DE3202FB03F31B147B6227
:1012C0007B6B104A02FB03F31B143B627A6A3B6A96
:1012D000134403F6CF631B117A6B13447B637B6B60
:1012E00007EE903AF8EEE77A9FED077AC7EE876A45
:1012F000F0EE667AB0EE670A3837BD4680BD00BFB3
:101300001C02002043E3FFFF0000C84280B485B008
:1013100000AFF860B9601346FB80FB68BA681A60DA
:10132000FB68FA889A80FB6800229A71FB680022A9
:10133000DA71FB6800221A7200BF1437BD465DF8EF
:10134000047B704780B586B000AF786007F1080372
:1013500000221A601A710023FB750023BB757868A0
:1013600000F0C6F80021786800F002F9122005F0BC
:101370002DF80121786800F0FBF81E2000F01CF920
:10138000786800F0D6F84FF47A733B6100BF786854
:1013900000F000F90346012B04D13B695A1E3A6163
:1013A000002BF4D13B69002B01D100239CE04FF4CA
:1013B0007A733B6100BF786800F0ECF80346002BBD
:1013C00004D13B695A1E3A61002BF4D13B69002BD2
:1013D00001D1002388E04FF47A733B6100BF786845
:1013E00000F0D8F80346012B04D13B695A1E3A613C
:1013F000002BF4D13B69002B01D1002374E00023C2
:10140000BB7551E00023FB7548E04FF47A733B61F4
:1014100000BF786800F0BEF80346002B04D13B699A
:101420005A1E3A61002BF4D13B69002B01D10023F5
:101430005AE0282000F0C0F8786800F0ABF80346C6
:10144000012B14D1BB7D18333B4413F8103C5AB226
:10145000FB7DC3F10703012101FA03F35BB21343E0
:101460005AB2BB7DD2B218333B4403F8102C4FF470
:101470007A733B6100BF786800F08CF80346012B5B
:1014800004D13B695A1E3A61002BF4D13B69002B11
:1014900001D1002328E0FB7D0133FB75FB7D072B89
:1014A000B3D9BB7D0133BB75BB7D042BAAD93A7A76
:1014B0007B7A1344DAB2BB7A1344DAB2FB7A134470
:1014C000FB733B7BFA7B9A4204D07B6800221A7242
:1014D000002309E03A7A7B68DA71BA7A7B689A71FC
:1014E0007B6801221A72012318461837BD4680BD59
:1014F00080B588B000AF786007F10C0300221A6055
:101500005A609A60DA601A617B689B88FB600123ED
:101510003B6100237B610023BB617B681B6807F193
:101520000C021146184605F0A1FD00BF2037BD464C
:1015300080BD80B588B000AF786007F10C03002251
:101540001A605A609A60DA601A617B689B88FB6057
:1015500000233B6101237B617B681B6807F10C0260
:101560001146184605F082FD00BF2037BD4680BDFC
:1015700080B582B000AF78600B46FB707B6818685E
:101580007B689B88FA78194605F00CFF00BF083786
:10159000BD4680BD80B582B000AF78607B681A68B8
:1015A0007B689B881946104605F0E4FE0346184602
:1015B0000837BD4680BD000080B485B000AF7860BC
:1015C0000D4B1B680D4AA2FB03239B0C7A6802FBA0
:1015D00003F30B4AA2FB03239B08FB6000E000BF60
:1015E000FB685A1EFA60002BF9D100BF00BF143708
:1015F000BD465DF8047B70470C00002083DE1B4372
:10160000CDCCCCCC80B483B000AF0346FB71FB796A
:101610001B09DBB21A46920013445B00DAB2FB7975
:1016200003F00F03DBB21344DBB218460C37BD46A0
:101630005DF8047B7047000080B483B000AF0346C0
:10164000FB71FB790E4AA2FB0323DB08DBB25BB222
:101650001B0158B2FA790A4BA3FB0213D9080B46B7
:101660009B000B445B00D31ADBB25BB203435BB25B
:10167000DBB218460C37BD465DF8047B704700BFEF
:10168000CDCCCCCC80B588B004AF78606423029315
:101690000123019307F10F03009301230022D021BE
:1016A000786808F009FB0346002B01D1012300E014
:1016B000002318461037BD4680BD80B588B004AF02
:1016C000786039603B681B781846FFF7B5FF034622
:1016D0003B723B685B781846FFF7AEFF03467B72B0
:1016E0003B689B781846FFF7A7FF0346BB723B6831
:1016F000DB781846FFF7A0FF0346FB723B681B79B7
:101700001846FFF799FF03463B733B685B79184621
:10171000FFF792FF03467B733B68DB88DBB2303315
:10172000DBB21846FFF788FF0346BB7364230293BE
:101730000723019307F10803009301230022D0211E
:10174000786808F0BFF90346002B01D1012300E0BF
:10175000002318461037BD4680BD80B588B004AF61
:1017600078603960642302930723019307F108032B
:10177000009301230022D021786808F09DFA0346E7
:10178000002B41D13B7A1846FFF73CFF03461A462F
:101790003B681A707B7A1846FFF734FF03461A46F7
:1017A0003B685A70BB7A03F03F03DBB21846FFF781
:1017B00029FF03461A463B689A70FB7A1846FFF7E2
:1017C00021FF03461A463B68DA703B7B1846FFF759
:1017D00019FF03461A463B681A717B7B03F01F030F
:1017E000DBB21846FFF70EFF03461A463B685A71F4
:1017F000BB7B1846FFF706FF034603F5FA639AB270
:101800003B68DA80012300E0002318461037BD460C
:1018100080BD000080B483B000AF03460A46FB7170
:101820001346BB71BB79022B01D90023BB71FB7935
:10183000392B00F2C58301A252F823F025190008C4
:101840003D190008551900086D1900088519000890
:101850009D190008911D0008A91D0008C11D000860
:10186000C51D0008C91D0008E11D0008E51D000890
:10187000E91D0008011E0008051E0008091E0008D9
:10188000B5190008CD190008E5190008FD19000870
:10189000151A00082D1A0008751A0008451A0008C4
:1018A0005D1A00088D1A0008A51A0008BD1A000864
:1018B000D51A0008ED1A0008051B00081D1B0008BA
:1018C000211C0008B11C0008C91C0008E11C00080C
:1018D000F91C0008111D0008291D0008391C00080A
:1018E000411D0008511C0008711D0008751D0008ED
:1018F000791D0008191F0008311F0008491F000842
:10190000611F0008791F0008011F0008911F0008CF
:10191000A91F0008691C0008591D0008811C000847
:10192000991C0008BB79012B06D0BB79022B01D191
:101930007E4B46E37E4B44E37D4B42E3BB79012B78
:1019400006D0BB79022B01D17A4B3AE37A4B38E3CC
:10195000794B36E3BB79012B06D0BB79022B01D141
:10196000764B2EE3764B2CE3764B2AE3BB79012BA7
:1019700006D0BB79022B01D1734B22E3734B20E3DA
:10198000734B1EE3BB79012B06D0BB79022B01D12F
:10199000704B16E3704B14E3704B12E3BB79012BD1
:1019A00006D0BB79022B01D16D4B0AE36D4B08E3E6
:1019B0006D4B06E3BB79012B06D0BB79022B01D11D
:1019C0006A4BFEE26A4BFCE26A4BFAE2BB79012BFE
:1019D00006D0BB79022B01D1674BF2E2674BF0E2F4
:1019E000674BEEE2BB79012B06D0BB79022B01D10C
:1019F000644BE6E2644BE4E2644BE2E2BB79012B28
:101A000006D0BB79022B01D1614BDAE2614BD8E2FF
:101A1000614BD6E2BB79012B06D0BB79022B01D1F9
:101A20005E4BCEE25E4BCCE25E4BCAE2BB79012B51
:101A300006D0BB79022B01D15B4BC2E25B4BC0E20B
:101A40005A4BBEE2BB79012B06D0BB79022B01D1E8
:101A5000574BB6E2574BB4E2574BB2E2BB79012B7E
:101A600006D0BB79022B01D1544BAAE2544BA8E219
:101A7000544BA6E2BB79012B06D0BB79022B01D1D6
:101A8000514B9EE2514B9CE2514B9AE2BB79012BA8
:101A900006D0BB79022B01D14E4B92E24E4B90E225
:101AA0004E4B8EE2BB79012B06D0BB79022B01D1C4
:101AB0004B4B86E24B4B84E24B4B82E2BB79012BD2
:101AC00006D0BB79022B01D1484B7AE2484B78E231
:101AD000474B76E2BB79012B06D0BB79022B01D1B3
:101AE000444B6EE2444B6CE2444B6AE2BB79012BFF
:101AF00006D0BB79022B01D1414B62E2414B60E23F
:101B0000404B5EE2BB79012B06D0BB79022B01D1A1
:101B10003D4B56E23D4B54E23D4B52E2BB79012B2B
:101B20007CD0BB79022B77D13A4B4AE2286D010871
:101B3000406D0108586D0108706D0108886D01083D
:101B4000A06D0108B86D0108D06D0108E86D0108AD
:101B5000006E0108186E0108306E0108486E010819
:101B6000606E0108786E0108906E0108A86E010889
:101B7000C06E0108D86E0108F06E0108086F0108F8
:101B8000206F0108386F0108506F0108686F010865
:101B9000806F0108986F0108B06F0108C86F0108D5
:101BA000E06F0108F86F0108107001082870010843
:101BB00040700108587001087070010888700108B1
:101BC000A0700108B8700108D0700108E070010829
:101BD000F0700108007101081871010830710108E6
:101BE000487101086071010878710108907101085D
:101BF000A8710108C0710108D8710108F0710108CD
:101C00000872010820720108387201085072010838
:101C100068720108807201087C4BD2E17C4BD0E1F4
:101C2000BB79012B06D0BB79022B01D1794BC8E1DE
:101C3000794BC6E1794BC4E1BB79012B06D0BB7966
:101C4000022B01D1764BBCE1764BBAE1764BB8E181
:101C5000BB79012B06D0BB79022B01D1734BB0E1CC
:101C6000734BAEE1734BACE1BB79012B06D0BB7972
:101C7000022B01D1704BA4E1704BA2E16F4BA0E1AC
:101C8000BB79012B06D0BB79022B01D16C4B98E1BB
:101C90006C4B96E16C4B94E1BB79012B06D0BB7980
:101CA000022B01D1694B8CE1694B8AE1694B88E1D8
:101CB000BB79012B06D0BB79022B01D1664B80E1A9
:101CC000664B7EE1654B7CE1BB79012B06D0BB798D
:101CD000022B01D1624B74E1624B72E1614B70E106
:101CE000BB79012B06D0BB79022B01D15E4B68E199
:101CF0005E4B66E15D4B64E1BB79012B06D0BB799D
:101D0000022B01D15A4B5CE15A4B5AE1594B58E135
:101D1000BB79012B06D0BB79022B01D1564B50E188
:101D2000564B4EE1564B4CE1BB79012B06D0BB79AB
:101D3000022B01D1534B44E1534B42E1524B40E162
:101D4000BB79012B06D0BB79022B01D14F4B38E177
:101D50004F4B36E14F4B34E1BB79012B06D0BB79B9
:101D6000022B01D14C4B2CE14C4B2AE14C4B28E18E
:101D70004C4B26E14C4B24E1BB79012B06D0BB79BF
:101D8000022B01D1494B1CE1494B1AE1494B18E1A7
:101D9000BB79012B06D0BB79022B01D1464B10E158
:101DA000464B0EE1464B0CE1BB79012B06D0BB79CB
:101DB000022B01D1434B04E1434B02E1424B00E1D2
:101DC000424BFEE0424BFCE0BB79012B06D0BB79D5
:101DD000022B01D13F4BF4E03F4BF2E03F4BF0E0F0
:101DE0003F4BEEE03F4BECE0BB79012B06D0BB79DB
:101DF000022B01D13C4BE4E03C4BE2E03C4BE0E009
:101E00003C4BDEE03C4BDCE03C4BDAE08872010806
:101E10009072010898720108A0720108A872010866
:101E2000B4720108CC720108E4720108FC72010866
:101E3000147301082C730108447301085C730108D2
:101E4000747301088C730108A4730108BC73010842
:101E5000D4730108EC730108047401081C740108B0
:101E6000347401084C740108647401087C7401081E
:101E700094740108AC740108C4740108DC7401088E
:101E8000F47401080C750108247501083C750108FB
:101E9000547501086C750108847501089C7501086A
:101EA000B4750108CC750108E0750108EC750108EE
:101EB000FC7501080C7601081C76010834760108CF
:101EC0004C760108647601087C7601089476010856
:101ED000AC760108C4760108DC760108F4760108C6
:101EE0000C770108247701083C7701085477010832
:101EF0006C770108847701089C770108B4770108A2
:101F0000BB79012B06D0BB79022B01D1304B58E0B5
:101F1000304B56E0304B54E0BB79012B06D0BB79F7
:101F2000022B01D12D4B4CE02D4B4AE02D4B48E0CC
:101F3000BB79012B06D0BB79022B01D12A4B40E0A3
:101F40002A4B3EE02A4B3CE0BB79012B06D0BB7903
:101F5000022B01D1274B34E0274B32E0264B30E0F7
:101F6000BB79012B06D0BB79022B01D1234B28E092
:101F7000234B26E0224B24E0BB79012B06D0BB7912
:101F8000022B01D11F4B1CE01F4B1AE01F4B18E026
:101F9000BB79012B06D0BB79022B01D11C4B10E081
:101FA0001C4B0EE01C4B0CE0BB79012B06D0BB791F
:101FB000022B01D1194B04E0194B02E0184B00E051
:101FC000184B18460C37BD465DF8047B704700BFC0
:101FD000CC770108E4770108FC7701081478010840
:101FE0002C780108447801085C78010874780108AD
:101FF0008C780108A4780108A8780108AC78010859
:10200000B0780108B4780108CC780108E4780108B8
:10201000FC780108147901082C7901084479010839
:102020005C7901087479010880B584B000AFF8606C
:10203000B96011461A460B46FB711346BB71FB682B
:10204000BA681A60FB684E221A71FB68FA795A72F4
:10205000FB68BA799A72FB6808225A71FB680822F9
:102060009A71322004F0B2F9FB685B791946F8687E
:1020700000F001F94FF47A7004F0A8F93021F86803
:1020800000F0A9F8052004F0A1F93021F86800F06B
:10209000A2F8052004F09AF93021F86800F09BF8C6
:1020A000012004F093F92021F86800F094F8FB680F
:1020B0009B7943F02003DBB21946F86800F09FF8E3
:1020C000FB680422DA71FB68DB7943F00803DBB2BA
:1020D0001946F86800F093F8F86800F013F8FB6808
:1020E00002221A72FB681B7A43F00403DBB2194622
:1020F000F86800F084F8C82004F068F900BF1037D1
:10210000BD4680BD80B582B000AF7860012178689F
:1021100000F075F8022004F059F900BF0837BD46F9
:1021200080BD000080B584B000AF78600B46FB70C6
:102130001346BB700F4BFB607B689B7ABA789A4260
:1021400003D37B689B7A013BBB70BB7810333B4465
:1021500013F8042CFB781344DBB25BB263F07F030B
:102160005BB2DBB21946786800F049F800BF10375F
:10217000BD4680BD0040145480B582B000AF786089
:10218000396007E03B685A1C3A601B78194678684A
:1021900000F050F83B681B78002BF3D100BF00BF64
:1021A0000837BD4680BD80B582B000AF78600B4671
:1021B000FB70FB78002B03D07B6808225A7102E089
:1021C0007B6800225A710021786800F054F800BF43
:1021D0000837BD4680BD80B582B000AF78600B4641
:1021E000FB70FB781946786800F045F8FB781946D3
:1021F000786800F05CF800BF0837BD4680BD80B548
:1022000084B000AF78600B46FB70FB7823F00F03BF
:10221000FB73FB781B01BB73FB7B19467868FFF7E8
:10222000DAFFBB7B19467868FFF7D5FF00BF103790
:10223000BD4680BD80B584B000AF78600B46FB70B2
:10224000FB7823F00F03FB73FB781B01BB73FB7B55
:1022500043F00103DBB219467868FFF7BCFFBB7B94
:1022600043F00103DBB219467868FFF7B4FF00BF03
:102270001037BD4680BD80B586B002AF78600B4692
:10228000FB707B685A79FB781343DBB2FB737B6886
:1022900018687B681B79194607F10F0264230093C5
:1022A000012307F011FB00BF1037BD4680BD80B58C
:1022B00082B000AF78600B46FB70FB7843F00403FC
:1022C000DBB219467868FFF7D6FF012004F07EF8EC
:1022D000FB7823F00403DBB219467868FFF7CBFFE5
:1022E000012004F073F800BF0837BD4680BD000030
:1022F00080B586B000AFF86087ED020A0B46FB712F
:10230000D7ED027AFDEEE77A17EE903A3B613B6932
:1023100007EE903AF8EEE77A97ED027A77EE677A71
:102320009FED157A67EE877AFDEEE77A17EE903A21
:102330007B617B69002B02DA7B695B427B61FB7905
:10234000012B0ED17B690D4A82FB03129210DB1721
:10235000D31A7B617B693A690949F86812F03AFC43
:1023600005E07B693A690749F86812F033FC00BF61
:102370001837BD4680BD00BF0000C842676666666C
:10238000807901088879010880B483B000AF87EDB7
:10239000010AC7ED000AD7ED007ADFED076A87EE84
:1023A000A67AD7ED017A77EE277AB0EE670A0C3776
:1023B000BD465DF8047B7047CDCC0441F0B59BB0C1
:1023C00004AF786187ED040AC7ED030A87ED021AAE
:1023D000084611461A460346FB710B46BB7113466D
:1023E0007B71002200217C48FFF79CFE7B691B79F2
:1023F0001D467B695B791E467B69DB881A467B69D3
:102400009B7819467B695B781C467B691B7807F1D2
:102410003C00039302940191009233462A466F498F
:1024200012F0D8FB002387F8503007F13C0319461F
:102430006948FFF7A1FE012200216748FFF772FEFD
:1024400007F13003012197ED040A1846FFF750FF0A
:10245000634B1B7819462B20FFF7DCF90446FB7908
:10246000BA7907F1300107F13C00019200930B4665
:102470002246192112F078FB0EE007F13C031846C2
:10248000FDF7FEFE03461A4607F13C031344554987
:102490001A460B461B88138007F13C031846FDF7CC
:1024A000EFFE0346132BE8D9002387F8503007F1DD
:1024B0003C0319464848FFF75FFE022200214648C8
:1024C000FFF730FE07F12403012197ED020A1846B9
:1024D000FFF70EFF07F11803012197ED030A1846D5
:1024E000FFF706FF3E4B1B7819462C20FFF792F9A9
:1024F000014607F1240207F13C0007F1180300939D
:1025000013460A46192112F02FFB0EE007F13C0397
:102510001846FDF7B5FE03461A4607F13C0313447F
:1025200030491A460B461B88138007F13C031846B6
:10253000FDF7A6FE0346132BE8D9002387F8503099
:1025400007F13C0319462448FFF716FE0322002139
:102550002148FFF7E7FD224B1B7819462D20FFF796
:1025600059F90146204B1A68204B1B781C4620481D
:1025700023465B0023449B00034408331B6807F198
:102580003C00009313460A46192112F0EDFA0EE0C2
:1025900007F13C031846FDF773FE03461A4607F1A0
:1025A0003C0313440F491A460B461B88138007F15E
:1025B0003C031846FDF764FE0346132BE8D90023BD
:1025C00087F8503007F13C0319460348FFF7D4FD64
:1025D00000BF5C37BD46F0BD8C0300209079010838
:1025E000D3140020B07901089814002008000020BE
:1025F000687D010880B582B000AF78604FF48053E9
:102600007A680449044803F01DFC00BF0837BD4642
:1026100080BD00BF00F03F007C14002080B584B076
:1026200000AF78601049114803F0A7FB0023FB605E
:1026300010E0FB6803F57F1101F540517A68FB68F3
:102640001A444FF48073094803F0C1FBFB6803F59B
:102650008073FB60FB68B3F5805FEAD300BF00BF07
:102660001037BD4680BD00BF00F03F007C14002045
:1026700080B5ADF5805D82B000AF024607F108037A
:1026800003F8012C07F1080313F8013C022B04D9CD
:1026900007F10803002203F8012C07F1080318468C
:1026A000FFF7A8FF07F108031A4607F1080313F81C
:1026B000013C137107F108031846FFF7AFFF00BF95
:1026C00007F580570837BD4680BD80B5ADF5805D04
:1026D00082B000AF07F10803043B1846FFF78AFFFA
:1026E00007F108031B7807F5805202F10702137007
:1026F00007F5805303F107031B78FF2B06D007F57E
:10270000805303F107031B78022B01D9002304E057
:1027100007F5805303F107031B78184607F5805728
:102720000837BD4680BD80B5ADF5805D82B000AF95
:10273000024607F1080303F8012C07F108031846C5
:10274000FFF758FF07F108031A4607F1080313F8CB
:10275000013C137007F108031846FFF75FFF00BF45
:1027600007F580570837BD4680BD80B5ADF5805D63
:1027700082B000AF07F10803043B1846FFF73AFFA9
:1027800007F1080313F8043C07F5805202F1070231
:10279000137007F5805303F107031B78FF2B06D056
:1027A00007F5805303F107031B78012B01D901239F
:1027B00004E007F5805303F107031B78184607F57B
:1027C00080570837BD4680BD80B483B000AF034654
:1027D000FB710A4AFB791370FA79094913465B00C9
:1027E00013449B000B4404331B68064A136000BF6C
:1027F0000C37BD465DF8047B704700BF0800002021
:10280000687D01080000002080B584B000AF00237F
:10281000FB600023FB7213E01A4803F03FFE6421C3
:10282000184803F022FF174804F0BAF80246FB6884
:102830001344FB60134803F0E5FEFB7A0133FB729F
:10284000FB7A092BE8D9FB680F4AA2FB0323DB08BC
:10285000FB60FB6807EE903AB8EE677ADFED0B6A33
:10286000C7EE267A9FED0A7A67EE877A77EEA77A27
:10287000C7ED017A7B6807EE903AB0EE670A103731
:10288000BD4680BD20020020CDCCCCCC00F07F45E1
:102890003333534080B485B000AF87ED010AD7EDE4
:1028A000017A9FED197AF4EEC77AF1EE10FA01DBA6
:1028B000642322E0D7ED017AB0EE087AF4EEC77A0D
:1028C000F1EE10FA01D8002317E0D7ED017AB0EE4F
:1028D000087A37EEC77ADFED0D6AC7EE267A9FEDEC
:1028E0000C7A67EE877AC7ED037AD7ED037AFCEEB0
:1028F000E77AC7ED007A3B78DBB218461437BD465D
:102900005DF8047B704700BF666686409899993FE2
:102910000000C842B0B59AB004AFC748FFF7F2FB59
:1029200000220021C448FFF7FDFBC44B1B78194669
:102930001420FEF76FFF03461946BF48FFF71CFC43
:1029400001220021BC48FFF7EDFBBC4B1B78194668
:102950001520FEF75FFF03461946B748FFF70CFC4A
:1029600002220021B448FFF7DDFBB44B1B78194667
:102970001620FEF74FFF03461946AF48FFF7FCFB52
:102980004FF4FA6003F022FDAB48FFF7BBFB0022D7
:102990000021A948FFF7C6FBA84B1B781946142055
:1029A000FEF738FF03461946A348FFF7E5FB03F09F
:1029B00001FD7865A24803F017FB002387F8533028
:1029C00003E197F85330002B0CD002E00A2003F00B
:1029D000FDFC03F0EFFC02467B6DD31A41F2873217
:1029E0009342F3D903F0E6FC78659648FEF74AFB7C
:1029F00087ED130A9348FEF78FFB87ED120A03F069
:102A0000D9FC7864904B1B7887F852308F4B1B6849
:102A10007A6CD31A41F28732934210D98C48FEF770
:102A200091FC0346002B07D0894BDB7987F85230A5
:102A3000854A97F852301370844A7B6C1360FFF715
:102A4000E3FE87ED100A97ED100AFFF723FF034618
:102A500087F83F307F4A97F83F30137007F134030F
:102A600019467D48FEF779FEFB6C3B62BB6C7B62CE
:102A700097F8523087F8283097F83F3087F8293098
:102A800007F12A0207F1340303CB1060516007F10C
:102A90002003142219466A4803F07CFA684803F0C0
:102AA000CDFB012200216448FFF73CFB634B1B7800
:102AB00019461720FEF7AEFE024697F85330013351
:102AC000381D192112F050F80CE03B1D1846FDF797
:102AD000D7FB03461A463B1D134460491A460B4672
:102AE0001B8813803B1D1846FDF7CAFB0346132BBA
:102AF000EBD900233B763B1D19464F48FFF73CFBC3
:102B0000022200214C48FFF70DFBF86CFDF724FD75
:102B100004460D46B86CFDF71FFD02460B46381DF6
:102B2000CDE90223CDE900454D4A192112F01CF8E8
:102B30000CE03B1D1846FDF7A3FB03461A463B1D60
:102B4000134446491A460B461B8813803B1D184602
:102B5000FDF796FB0346132BEBD900233B763B1D79
:102B600019463548FFF708FB032200213248FFF7DA
:102B7000D9FA97F8522097F83F30381D0093134642
:102B8000384A192111F0F0FF0CE03B1D1846FDF703
:102B900077FB03461A463B1D134430491A460B4641
:102BA0001B8813803B1D1846FDF76AFB0346132B59
:102BB000EBD900233B763B1D19461F48FFF7DCFA93
:102BC00097F85330013387F8533097F85330092B77
:102BD0007FF6F7AE1848FFF795FA01220021164854
:102BE000FFF7A0FA154B1B7819461820FEF712FEC6
:102BF000034619461048FFF7BFFA022200210E488B
:102C0000FFF790FA0D4B1B7819461920FEF702FECC
:102C1000034619460848FFF7AFFA40F6B83003F00C
:102C2000D5FB114B00221A700348FFF76BFA00BF67
:102C30005837BD46B0BD00BF8C030020D314002020
:102C40007C1400205C030020A01400209C140020B1
:102C500078030020B414002068020020B079010835
:102C6000B4790108C8790108B814002080B5C0B053
:102C700002AF03F039FB00F05FFE00F07BFF00F0D5
:102C8000C7FE0AF047FD10F08FFE00F025FF00F0B0
:102C9000EDFE00F0F3FF04231422C449C448FFF7FB
:102CA000C3F9C348FFF72EFA0121C148FFF77BFAA9
:102CB000BE48FEF7E7FC00220021BD48FFF732FACC
:102CC000BC49BB48FFF758FA01220021B848FFF77A
:102CD00029FAB949B648FFF74FFA02220021B44851
:102CE000FFF720FAB549B248FFF746FA4FF4FA6009
:102CF00003F06CFBAE48FFF705FA00220021AC4858
:102D0000FFF710FAAE49AA48FFF736FA4FF480539E
:102D1000AC4AAD49AD4802F0F4FF322003F056FB57
:102D2000FFF7D3FC03461A46A94B1A70A94801F0D5
:102D30001FF84FF47A7003F049FBA44803F06CF9D4
:102D40000346002B05D1A14B0022DA609F4B0022E5
:102D50001A619E4803F034FA0346002B06D19B4BC0
:102D60004FF400125A61994B00229A61974803F080
:102D700005F90346984A1360662387F8B73099230C
:102D800087F8B63000224FF480518E4804F00AFBD9
:102D900007F1B701642301228B4808F0C2FA01222F
:102DA0004FF48051874804F0FDFA0A2003F00EFB2F
:102DB00000224FF48051834804F0F4FA07F1B60181
:102DC00064230122804808F0ACFA01224FF48051BC
:102DD0007C4804F0E7FA642003F0F8FA9F2387F8B0
:102DE000B53007F1B00300210A461A800A469A70EE
:102DF00000224FF48051734804F0D4FA07F1B50172
:102E000064230122704808F08CFA07F1B0016423B2
:102E100003226D4808F0C9FB01224FF48051694834
:102E200004F0C0FA012200216148FFF77BF997F80E
:102E3000B030EF2B08D197F8B230162B04D1674988
:102E40005B48FFF799F935E097F8B030EF2B08D1E0
:102E500097F8B230152B04D161495548FFF78CF92A
:102E600028E097F8B030EF2B0FD197F8B2301A4620
:102E700007F15C035B49184611F0ACFE07F15C03F7
:102E800019464B48FFF778F914E097F8B0301A4626
:102E900097F8B130194697F8B23007F14000009327
:102EA0000B46514911F096FE07F140031946404880
:102EB000FFF762F94FF4FA6003F088FA022200216A
:102EC0003B48FFF72FF9424B1B7819460620FEF7C7
:102ED000A1FC034619463648FFF74EF9FFF745FCBB
:102EE00003461A46414B1A70404B1B781846FFF7B1
:102EF0006BFC642003F06AFA354B1B7819460720F7
:102F0000FEF788FC0246394B1B78184638490346C1
:102F10005B0003449B000B4408331B6807F19400DB
:102F2000192111F021FE002387F8A8300222002188
:102F30001F48FFF7F7F807F1940319461C48FFF7FD
:102F40001BF94FF4FA6003F041FA1948FFF7DAF879
:102F5000002200211648FFF7E5F81D4B1B781946A3
:102F60000820FEF757FC034619461148FFF704F9FD
:102F70000E48FEF787FB034683F00103DBB2002B0C
:102F800038D0012200210A48FFF7CCF8104B1B78FB
:102F900019460A20FEF73EFC034619460448FFF78F
:102FA000EBF84FF47A7003F011FA37E06802002072
:102FB0008C030020D8790108EC790108007A010817
:102FC000107A010800040240BC0200207C1400209A
:102FD000D3140020B814002098140020287A010887
:102FE0003C7A0108507A0108687A0108080000203C
:102FF000687D0108012200212048FFF793F8204B4B
:103000001B7819460920FEF705FC034619461B48A4
:10301000FFF7B2F84FF47A7003F0D8F902220021DA
:103020001648FFF77FF8164B1B7819460B20FEF762
:10303000F1FB034619461148FFF79EF80322114998
:103040001148FDF789FF0346002B1FD10B48FFF7FE
:1030500059F8012200210948FFF764F8084B1B7852
:1030600019460D20FEF7D6FB034619460348FFF725
:1030700083F8642003F0AAF9FBE700BF8C0300206B
:10308000D3140020680200205C03002002220021EB
:10309000C948FFF747F8C94B1B7819460C20FEF7C3
:1030A000B9FB03461946C448FFF766F84FF47A7037
:1030B00003F08CF903220021BF48FFF733F8BF4B20
:1030C0001B7819460E20FEF7A5FB03461946BA48A1
:1030D000FFF752F80422BA49BA48FEF717F903225B
:1030E0000021B548FFF71EF8B44B1B7819460F2096
:1030F000FEF790FB03461946AF48FFF73DF84FF443
:103100007A7003F063F941F28831AF4802F0E6F8D3
:10311000A948FEF7F7FF01220021A748FFF702F8B0
:10312000A64B1B7819461120FEF774FB034619467F
:10313000A148FFF721F840F2DC5003F047F99E4820
:10314000FEF7E0FF012200219B48FEF7EBFF9B4BBF
:103150001B7819461220FEF75DFB03461946964878
:10316000FFF70AF8022200219348FEF7DBFF934B9A
:103170001B7819461320FEF74DFB034619468E486F
:10318000FEF7FAFF9148FDF77DFF87ED3C0A8F4877
:10319000FDF7C2FF87ED3B0A002387F8F730894827
:1031A000FEF7D0F80346002B07D0864BDB7987F873
:1031B000F730874A97F8F730137003F0FBF80346AF
:1031C000844A1360FFF720FB87ED3A0A97ED3A0A2D
:1031D000FFF760FB03461A467F4B1A7007F18C031A
:1031E00019467E48FEF7B9FA7D4AD7F8F0301360E9
:1031F0007C4AD7F8EC301360F2EE060A97ED3B0AF2
:10320000FFF7C2F8F0EE407A774BC3ED007AD7F8BB
:10321000F030BB67D7F8EC30FB6797F8F73087F8EA
:1032200080306D4B1B7887F8813007F1820207F1FF
:103230008C0303CB1060516007F178031422194608
:103240006A4802F07FFE6A4B1B680133684A1360CC
:10325000674B1968674BA3FB0123DA0813469B00F1
:1032600013445B00CA1A002A02D1604802F00CFF26
:10327000022200215048FEF755FF5F494E48FEF7F5
:103280007BFF4FF47A7003F0A1F84B48FEF73AFF4A
:1032900003F090F80346594A136010F0ABFB03F0BB
:1032A00089F8C7F8E400564B1B78002B40F0C48027
:1032B000524B1B68D7F8E420D21A524B1B689A4233
:1032C000C0F0BA804E4B01221A704C4AD7F8E43055
:1032D00013603E48FDF7D6FE87ED380A3B48FDF700
:1032E0001BFF87ED370A3A4B1B7887F8F630394BCE
:1032F0001B68D7F8E420D31A41F28732934215D9DC
:103300003048FEF71FF8034687F8DB3097F8DB30CC
:10331000002B07D02B4BDB7987F8F6302C4A97F837
:10332000F63013702B4AD7F8E4301360FFF76CFACD
:1033300087ED350A97ED350AFFF7ACFA034687F8B3
:10334000D330254A97F8D330137007F13803194664
:103350002248FEF702FA224AD7F8E0301360214AE9
:10336000D7F8DC301360F2EE060A97ED370AFFF764
:103370000BF8F0EE407A1C4BC3ED007AD7F8E03042
:103380007B62D7F8DC30BB6297F8F63087F82C30D8
:1033900097F8D33087F82D3007F12E0207F1380364
:1033A00003CB1060516007F12403142219460F4823
:1033B00002F0C8FD28E000BF8C030020D3140020D9
:1033C0000000024078030020980300205C030020E6
:1033D000A01400209C140020B414002068020020D7
:1033E000A8140020AC140020B01400207C1400208D
:1033F00098140020CDCCCCCC807A0108D4140020C5
:10340000D814002000000020754B1B680133744A5B
:103410001360734B1968734BA3FB0123DA0813463F
:103420009B0013445B00CA1A002A02D16E4802F0C6
:103430002BFE6E4B00221A706D4800F0FFFC034615
:10344000002B57D06B4B1B68D7F8E420D31AB3F589
:10345000FA6F4FD3674AD7F8E43013606648FDF738
:1034600011FE87ED330A6448FDF756FE87ED320AF8
:10347000624B1B7887F8C730614B1B68D7F8E42094
:10348000D31A41F28732934215D95E48FDF75AFFAD
:10349000034687F8C63097F8C630002B07D0594B43
:1034A000DB7987F8C730554A97F8C7301370544A0C
:1034B000D7F8E4301360FFF7A7F987ED300A97EDEE
:1034C000300AFFF7E7F903461A464F4B1A704F4A86
:1034D000D7F8CC3013604E4AD7F8C8301360F2EEFC
:1034E000060A97ED320AFEF74FFFF0EE407A494B9D
:1034F000C3ED007A484801F039FF484B1B78022B96
:1035000023D1474B1B78002B1FD1464B1B78002B38
:103510001BD1434B01221A70424B01221A70424BBD
:1035200000221A704148FEF7EDFD002200213F48BD
:10353000FEF7F8FD3E4B1B7819460020FEF76AF9AE
:10354000034619463948FEF717FE344B1B78022B09
:103550000CD0334B00221A70324B1B78002B05D055
:10356000304B00221A703148FEF7CCFD2D4B1B78F2
:10357000002B00F07881022200212C48FEF7D2FDBA
:10358000294B1B78002B0BD1294B1B781946242083
:10359000FEF740F9034619462448FEF7EDFD0AE020
:1035A000234B1B7819462220FEF734F903461946AF
:1035B0001E48FEF7E1FD032200211C48FEF7B2FD84
:1035C000194B1B78012B35D1194B1B781946252037
:1035D000FEF720F9034619461448FEF7CDFD34E006
:1035E00098140020CDCCCCCC7C140020D814002022
:1035F000B8140020DC1400205C030020A01400207C
:103600009C14002078030020B4140020A81400208B
:10361000AC140020B014002098030020382B0020A8
:10362000D2140020D0140020D11400208C030020DC
:10363000D3140020AB4B1B7819462320FEF7EAF881
:1036400003461946A848FEF797FD0221A74803F054
:1036500091FE0346002B10D1A54B1B78002B0CD1FB
:10366000A34B01221A70A34B1B78002B05D0A14B52
:103670001B78013BDAB29F4B1A7002219B4803F082
:1036800079FE0346012B02D1994B00221A700821C2
:10369000964803F06FFE0346002B10D1964B1B7823
:1036A000002B0CD1944B01221A70924B1B78002BEB
:1036B00005D1904B1B780133DAB28E4B1A7008217A
:1036C0008A4803F057FE0346012B02D18A4B0022A1
:1036D0001A700121854803F04DFE0346002B40F08F
:1036E000B780864B1B78002B40F0B280834B0122C1
:1036F0001A70804B1B78002B40F0A480804802F0A9
:103700003DFCC7F8BC007E4802F062FCC7F8B80078
:10371000D7F8BC30002B1BD1D7F8B830002B17D10D
:103720007148FEF7EFFC012200216F48FEF7FAFC1A
:103730006C4B1B7819460520FEF76CF803461946BA
:103740006948FEF719FD4FF4FA6002F03FFE79E098
:103750006548FEF7D7FC002200216348FEF7E2FC33
:10376000604B1B7819460120FEF754F803461946B2
:103770005D48FEF701FD012200215B48FEF7D2FC07
:10378000381DD7F8B830D7F8BC205E4911F022FABE
:103790003B1D19465448FEF7EFFC02220021524817
:1037A000FEF7C0FC4F4B1B7819460220FEF732F89B
:1037B000034619464C48FEF7DFFC012387F8F53035
:1037C000012387F8F430D7F8BC30002B05D04E48E1
:1037D00001F0ECFE034687F8F530D7F8B830002B3F
:1037E00005D0494802F0A4F8034687F8F4303E4873
:1037F000FEF788FC012200213B48FEF793FC97F876
:10380000F530002B0FD097F8F430002B0BD0354B50
:103810001B7819460320FDF7FDFF03461946324881
:10382000FEF7AAFC0AE02F4B1B7819460420FDF78F
:10383000F1FF034619462C48FEF79EFC40F6B830CF
:1038400002F0C4FD314B00221A702748FEF75AFCE3
:103850000121264803F08EFD0346012B3ED1274B64
:1038600000221A703AE02A4B2A4A1F492A4800F0DF
:10387000F7FA294B1B78042B01D1FFF74BF82648A8
:1038800000F0DCFA0346002B28D0244B1B68D7F845
:10389000E420D21A224B1B689A421FD31F4AD7F842
:1038A000E43013601A491B48FDF757FF1D4BD3ED59
:1038B000007A1D4B93ED007A1C4BD3ED006A1C4B34
:1038C00019781C4B1A78104B1B78B0EE661AF0EE84
:1038D000470AB0EE670A0E48FEF770FD0A2002F0B4
:1038E00075FDDAE4D31400208C03002000000240B0
:1038F000E0140020D1140020E1140020E214002084
:103900007C140020987A010898030020D01400202D
:103910008403002068020020B8140020A4140020B2
:1039200004000020A8140020AC140020B0140020D3
:10393000A0140020B414002080B594B000AF07F1AB
:10394000200330220021184611F0A9F907F10C03D9
:1039500000221A605A609A60DA601A610023BB6024
:10396000294B1B6C284A43F080531364264B1B6C75
:1039700003F08053BB60BB6800237B60234B1B6854
:1039800023F44043214A43F4004313601F4B1B6858
:1039900003F440437B607B6801233B624FF4803338
:1039A0007B620223BB634FF48003FB6319233B64F8
:1039B0004FF4A8737B640423BB640723FB6407F103
:1039C0002003184606F0E0FF0346002B01D000F06C
:1039D000A7F90F23FB6002233B6100237B614FF4B7
:1039E0008053BB610023FB6107F10C0302211846E1
:1039F00007F042FA0346002B01D000F091F900BF16
:103A00005037BD4680BD00BF003802400070004006
:103A100080B500AF124B134A1A60114B124A5A601C
:103A20000F4B00229A600E4B0022DA600C4B4FF4D1
:103A300080421A610A4B00225A61094B00229A61A6
:103A4000074B0022DA61064B00221A62044805F097
:103A5000F7FD0346002B01D000F062F900BF80BDE6
:103A60006802002000540040A086010080B500AF2D
:103A7000174B184A1A60164B4FF482725A60144B57
:103A800000229A60124B0022DA60114B00221A6168
:103A90000F4B00225A610E4B4FF400729A610C4B8F
:103AA0001022DA610A4B00221A62094B00225A6284
:103AB000074B00229A62064B0A22DA62044807F09A
:103AC000A7FB0346002B01D000F02AF900BF80BD00
:103AD000BC0200200038004080B586B000AF07F17E
:103AE000080300221A605A609A60DA603B4600229E
:103AF0001A605A601E4B4FF080421A601C4B4AF20B
:103B00000F425A601A4B00229A60194B40F2E7327A
:103B1000DA60174B00221A61154B80229A61144813
:103B200008F048F90346002B01D000F0F9F84FF4F3
:103B30008053BB6007F1080319460D4808F079FA75
:103B40000346002B01D000F0EBF800233B6000237C
:103B50007B603B461946064808F084FC0346002B70
:103B600001D000F0DDF800BF1837BD4680BD00BFB2
:103B70001403002080B588B000AF07F10C030022C9
:103B80001A605A609A60DA601A610023BB60384B91
:103B90001B6B374A43F080031363354B1B6B03F0F9
:103BA0008003BB60BB6800237B60314B1B6B304ADA
:103BB00043F0010313632E4B1B6B03F001037B6087
:103BC0007B6800233B602A4B1B6B294A43F00203AE
:103BD0001363274B1B6B03F002033B603B6801221E
:103BE0004FF48051234803F0DDFB3B23FB600023AF
:103BF0003B6101237B6107F10C0319461E4803F06A
:103C000035FA0423FB6000233B6100237B6107F14D
:103C10000C031946184803F029FA4FF48053FB604F
:103C200001233B6100237B610323BB6107F10C038C
:103C30001946104803F01AFA0423FB6000233B6185
:103C400000237B6107F10C0319460B4803F00EFAC1
:103C50003B23FB6000233B6101237B6107F10C03E5
:103C60001946054803F002FA00BF2037BD4680BD63
:103C700000380240000402400000024080B584B0D9
:103C800000AF3B4600221A605A609A60DA60214B0E
:103C9000214A1A601F4B4FF480325A601D4B00229C
:103CA0009A601C4B00221A611A4B00221A76194B9B
:103CB000002283F82020174B0022DA62154B174AA6
:103CC0009A62144B0022DA60124B0122DA61114B26
:103CD000002283F830200F4B01225A610D4802F078
:103CE00099FB0346002B01D000F01AF807233B6034
:103CF00001237B600023BB603B461946054802F068
:103D00007BFE0346002B01D000F00AF800BF1037FD
:103D1000BD4680BD20020020002001400100000FB0
:103D200080B400AF72B600BF00BFFDE780B483B0BF
:103D300000AF0346FB71FB79022B0AD0022B0ADC91
:103D4000002B02D0012B02D005E0064B04E0064B0D
:103D500002E0064B00E0034B18460C37BD465DF809
:103D6000047B7047B07A0108BC7A0108C87A010860
:103D700080B483B000AF78607B6800221A707B68E3
:103D800000225A707B6800229A707B6800225A6079
:103D90007B6800221A720D4B1A787B689A747B68D4
:103DA00000229A757B6800225A75094B1A787B6845
:103DB000DA747B68DB7C022B02D97B680022DA7420
:103DC00000BF0C37BD465DF8047B7047080000203B
:103DD000D314002080B500AF0121174803F0CAFAC0
:103DE0000346002B01D1012324E00221124803F0F5
:103DF000C1FA0346002B01D102231BE008210E4823
:103E000003F0B8FA0346002B01D1032312E010217E
:103E1000094803F0AFFA0346002B01D1042309E05F
:103E20002021054803F0A6FA0346002B01D1052303
:103E300000E00023184680BD0000024080B483B03B
:103E400000AF78607B681B78002B0CBF0123002338
:103E5000DBB218460C37BD465DF8047B70470000A6
:103E600080B588B002AFF860B9607A603B60FFF758
:103E7000B1FF0346FB75FB7D002B0BD002F09AFAD5
:103E80003861FB685B683A69D31A272B4ED9FB6807
:103E90003A695A60FB681B78062B4AD801A252F88F
:103EA00023F000BFC13E0008E33E0008F53E0008D5
:103EB000033F0008333F0008113F00081F3F000880
:103EC000FB7D012B34D1FB6801221A70FB680022B4
:103ED0005A70B868FEF716F9B968F86800F062F928
:103EE00026E0F97D3B6800937B68BA68F86800F0CB
:103EF0001FFA1EE0F97D7B68BA68F86800F0EEFDF5
:103F000017E0FB7DBA681946F86800F015F810E074
:103F1000FB7DBA681946F86800F02CFB09E0FB7DD0
:103F2000BA681946F86800F091F902E000BF00E0B5
:103F300000BF1837BD4680BD80B584B000AFF860C3
:103F40000B467A60FB72FB7A013B042B59D801A225
:103F500052F823F0A53F0008693F0008873F00089A
:103F6000F53F0008F53F0008FB689B7C002B4AD01A
:103F7000FB689B7C013BDAB2FB689A747968F8684D
:103F800000F056FD3FE0FB689B7C002B3DD1FB68B9
:103F90009B7C0133DAB2FB689A747968F86800F0A8
:103FA00047FD32E0FB689B7C1846FEF70DFCFB6882
:103FB0009B7C1846FEF7B7FB7868FEF7A3F8012252
:103FC00000217868FEF7AEF8124B1B7819462A20BC
:103FD000FDF720FC034619467868FEF7CDF84FF44C
:103FE000487002F0F3F9FB6800221A707868FEF757
:103FF00089F80BE0FB6800221A707868FEF782F8F7
:1040000004E000BF02E000BF00E000BF00BF1037C7
:10401000BD4680BDD314002080B58CB002AF78605F
:104020003960002200213868FEF77CF83C4B1B7891
:1040300019462E20FDF7EEFB034619463868FEF7B9
:104040009BF8012200213868FEF76CF8344B1B788E
:1040500019462F20FDF7DEFB034619463868FEF7A8
:104060008BF82F4B1B7819463020FDF7D3FB786275
:104070002B4B1B7819463120FDF7CCFB38627B684F
:104080005B7D002B09D107F108003B6A00937B6A36
:10409000244A152110F068FD18E007F108003B6A7A
:1040A00000937B6A204A152110F05EFD0EE007F1B7
:1040B00008031846FCF7E4F803461A4607F108031C
:1040C00013441A491A460B461B88138007F108034C
:1040D0001846FCF7D5F80346132BE8D900233B77A5
:1040E000022200213868FEF71DF807F1080319467F
:1040F0003868FEF741F8032200213868FEF712F80D
:10410000074B1B7819463520FDF784FB03461946FB
:104110003868FEF731F800BF2837BD4680BD00BFC4
:10412000D3140020D07A0108E47A0108F87A010853
:1041300080B58AB000AF7860084611461A4603463B
:10414000FB700B46BB7013467B70154B1A78BB781F
:1041500011461846FDF75EFB786207F10C03142246
:10416000796A184610F0B2FD002387F820307B787A
:10417000002B04D13B7B3E2B01D120233B73FB78EA
:104180001A4600217868FDF7CDFF07F10C031946A8
:104190007868FDF7F1FF00BF2837BD4680BD00BF3E
:1041A000D314002080B584B000AF786039607B689C
:1041B0005A787B689B7D9A4204D27B685A787B68E8
:1041C0009A750CE07B689B7D03337A685278934242
:1041D00005DA7B685B78033BDAB27B689A7500236B
:1041E000FB7326E07B689A7DFB7B1344BB73BB7B30
:1041F000042B11D87B685B78BA7B9A420CBF0123F1
:104200000023DBB27B73BB7B0E4AD25C7B7BF97BEA
:104210003868FFF78DFF09E0FB7B1A4600213868FC
:10422000FDF780FF08493868FDF7A6FFFB7B0133E7
:10423000FB73FB7B032BD5D900BF00BF1037BD46F6
:1042400080BD00BF807D0108FC7A010880B584B084
:1042500000AFF8600B467A60FB72FB7A012B10D03E
:10426000002B5ADD043B012B57D8FB685B7DC3F163
:104270000103DAB2FB685A757968F868FFF7CCFE7B
:104280004CE0FB685B7D002B0AD1FB6801221A70B1
:104290007868FDF737FF7968F868FFF783FF3DE03E
:1042A0007868FDF72FFF012200217868FDF73AFFBB
:1042B0001C4B1B7819463420FDF7ACFA034619460F
:1042C0007868FDF759FF962002F080F8164801F053
:1042D000E0FC154801F088FE144B00221A60786853
:1042E000FDF710FF012200217868FDF71BFF0D4B41
:1042F0001B7819463220FDF78DFA03461946786877
:10430000FDF73AFF4FF4966002F060F8FB68002278
:104310001A707868FDF7F6FE00E000BF1037BD4662
:1043200080BD00BFD31400207C140020981400200E
:1043300080B584B000AFF8607A603B600B46FB72DA
:10434000FB7A013B042B00F2968001A252F823F085
:10435000A34300086543000885430008694400083A
:1043600069440008FB685B78002B00F08680FB68DE
:104370005B78013BDAB2FB685A707968F868FFF73E
:1043800011FF7AE0FB685B78032B78D8FB685B78D9
:104390000133DAB2FB685A707968F868FFF702FFF8
:1043A0006DE0FB685B78002B14D1FB6802221A7069
:1043B000FB6800229A70FB680A330822B969184624
:1043C00010F01FFD7868FDF79DFE7968F86800F031
:1043D00041F956E0FB685B78012B0ED1FB680322A4
:1043E0001A702A4B1A78FB689A747868FDF78AFE6F
:1043F0007968F86800F01CFB43E0FB685B78022BEF
:1044000015D1FB6805221A70214B1A78FB68DA7403
:10441000FB68DB7C022B02D9FB680022DA74786827
:10442000FDF770FE7968F86800F034F829E0FB6861
:104430005B78032B06D1FB6804221A707868FDF7BD
:1044400061FE1EE0FB685B78042B1AD1FB68062234
:104450001A70FB6800225A757868FDF753FE796878
:10446000F868FFF7D9FD0CE0FB6800221A70786845
:10447000FDF748FE06E000BF04E000BF02E000BF19
:1044800000E000BF00BF1037BD4680BD080000201F
:10449000D314002080B588B000AF78603960002266
:1044A00000213868FDF73EFE2F4B1B781946362059
:1044B000FDF7B0F9034619463868FDF75DFE0122A5
:1044C00000213868FDF72EFE274B1B781946372050
:1044D000FDF7A0F9034619463868FDF74DFE0222A4
:1044E00000213868FDF71EFE7B68DB7C1846FFF76D
:1044F0001DFC034607F108001C4A152110F034FB8F
:104500000EE007F108031846FBF7BAFE03461A4609
:1045100007F10803134416491A460B461B881380FB
:1045200007F108031846FBF7ABFE0346132BE8D947
:1045300000233B7707F1080319463868FDF71CFE96
:10454000032200213868FDF7EDFD074B1B78194663
:104550003820FDF75FF9034619463868FDF70CFE71
:1045600000BF2037BD4680BDD3140020147B010856
:10457000F87A010880B584B000AFF8600B467A6025
:10458000FB72FB7A013B042B58D801A252F823F0AE
:10459000E1450008A5450008C34500082F4600086E
:1045A0002F460008FB68DB7C002B49D0FB68DB7CD6
:1045B000013BDAB2FB68DA747968F868FFF76AFFE2
:1045C0003EE0FB68DB7C012B3CD8FB68DB7C0133E5
:1045D000DAB2FB68DA747968F868FFF75BFF31E0FC
:1045E000FB68DA7C1A4B1A70194B1B781846FEF7D9
:1045F0003FF87868FDF786FD012200217868FDF715
:1046000091FD134B1B7819463920FDF703F903463A
:1046100019467868FDF7B0FD4FF4487001F0D6FEFA
:10462000FB6800221A707868FDF76CFD0BE0FB68F0
:1046300000221A707868FDF765FD04E000BF02E013
:1046400000BF00E000BF00BF1037BD4680BD00BF07
:10465000D314002080B5A2B002AF78603960002288
:1046600000213868FDF75EFDC94B1B7819461F20F5
:10467000FDF7D0F8034619463868FDF77DFD0023A5
:1046800087F84C307B689B78002B09D17B681B8AAC
:104690001A4607F16403BF49184610F09BFA08E078
:1046A0007B681B8A1A4607F16403BB49184610F061
:1046B00091FA07F1640207F14C031146184610F015
:1046C000F6FA07F14C031846FBF7DAFD03461A46E3
:1046D00007F14C031344B1491A460B461B8813805B
:1046E0007B689B78012B09D17B68DB7B1A4607F13D
:1046F0006403AB49184610F06DFA08E07B68DB7B79
:104700001A4607F16403A749184610F063FA07F147
:10471000640207F14C031146184610F0C8FA07F17D
:104720004C031846FBF7ACFD03461A4607F14C0351
:1047300013449A491A460B461B8813807B689B7862
:10474000022B09D17B689B7B1A4607F164039449CD
:10475000184610F03FFA08E07B689B7B1A4607F189
:1047600064039049184610F035FA07F1640207F126
:104770004C031146184610F09AFA0EE007F14C036C
:104780001846FBF77DFD03461A4607F14C03134418
:1047900085491A460B461B88138007F14C031846BF
:1047A000FBF76EFD0346132BE8D9002387F8603032
:1047B000012200213868FDF7B5FC07F14C031946CA
:1047C0003868FDF7D9FC002387F834307B689B7884
:1047D000032B09D17B681B7B1A4607F164037049E0
:1047E000184610F0F7F908E07B681B7B1A4607F1C2
:1047F00064036C49184610F0EDF907F1640207F103
:1048000034031146184610F052FA07F134031846E3
:10481000FBF736FD03461A4607F134031344634998
:104820001A460B461B8813807B689B78042B09D1A2
:104830007B68DB7A1A4607F164035949184610F081
:10484000C9F908E07B68DB7A1A4607F16403554929
:10485000184610F0BFF907F1640207F1340311465E
:10486000184610F024FA07F134031846FBF708FD48
:1048700003461A4607F1340313444C491A460B46C3
:104880001B8813807B689B78052B09D17B689B7AFA
:104890001A4607F164034249184610F09BF908E0F4
:1048A0007B689B7A1A4607F164033E49184610F06C
:1048B00091F907F1640207F134031146184610F02C
:1048C000F6F90EE007F134031846FBF7D9FC03466E
:1048D0001A4607F13403134433491A460B461B8822
:1048E000138007F134031846FBF7CAFC0346132B69
:1048F000E8D9002387F84830022200213868FDF704
:1049000011FC07F1340319463868FDF735FC002324
:104910003B771F4B1B7819462020FCF77BFF034693
:1049200007F11400224A082110F01EF9184B1B78D9
:1049300019462120FCF76EFF034607F108001C4AC8
:104940000A2110F011F97B689B78062B0CD107F136
:104950001403013307F11C0007F108020092154A05
:10496000152110F001F945E07B689B78072B25D1D4
:1049700007F11402013207F10803013307F11C00AB
:10498000009313460C4A152110F0EEF832E000BFF8
:10499000D3140020207B0108287B0108307B01080C
:1049A000347B01083C7B0108F87A0108447B01084C
:1049B000487B01084C7B0108587B010807F1140370
:1049C000013307F11C0007F108020092164A152175
:1049D00010F0CAF80EE007F11C031846FBF750FC74
:1049E00003461A4607F11C03134410491A460B46A6
:1049F0001B88138007F11C031846FBF741FC034694
:104A0000132BE8D9002387F83030032200213868BF
:104A1000FDF788FB07F11C0319463868FDF7ACFB6E
:104A200000BF8037BD4680BD647B0108F87A01086D
:104A300080B58AB000AF786039607B689B7C012BC1
:104A400002D97B6800229A74002200213868FDF7A1
:104A500069FB1F4B1B7819462820FCF7DBFE034639
:104A600019463868FDF788FB022200213868FDF7F7
:104A700059FB7B689B7C1946164A0B465B000B442E
:104A80009B00134408331A6807F10C0312491846B7
:104A900010F0A0F8002387F8203007F10C03194626
:104AA0003868FDF769FB032200213868FDF73AFBFF
:104AB000074B1B7819462920FCF7ACFE0346194624
:104AC0003868FDF759FB00BF2837BD4680BD00BFE1
:104AD000D3140020687D0108707B010880B584B084
:104AE00000AFF8607A603B600B46FB72FB7A013BDB
:104AF000042B00F28D8001A252F823F07D4B0008B8
:104B0000114B0008294B00085F4B0008414B00087F
:104B1000FB689B78052B7DD8F86800F08BF87968E6
:104B2000F868FFF797FD75E0FB689B78052B73D855
:104B3000F86800F001F97968F868FFF78BFD6BE021
:104B4000FB689B78062B69D8FB689B780133DAB247
:104B5000FB689A707968F868FFF77CFD5EE0FB6897
:104B60009B78002B5CD0FB689B78013BDAB2FB683A
:104B70009A707968F868FFF76DFD51E0FB689B78E3
:104B8000062B1DD17868FDF7BDFA01220021786857
:104B9000FDF7C8FA264B1B7819462720FCF73AFE8A
:104BA000034619467868FDF7E7FA4FF4487001F0BC
:104BB0000DFCFB6800221A707868FDF7A3FA31E05B
:104BC000FB689B78072B2DD1FB680A3319463868A0
:104BD000FCF773FD7868FDF795FA012200217868EB
:104BE000FDF7A0FA124B1B7819462620FCF712FE9F
:104BF000034619467868FDF7BFFA4FF47A7001F062
:104C0000E5FBFB6800221A707868FDF77BFA09E083
:104C100000BF08E000BF06E000BF04E000BF02E004
:104C200000BF00E000BF00BF1037BD4680BD00BF21
:104C3000D314002080B483B000AF78607B689B7889
:104C4000052B66D801A252F823F000BF654C00087E
:104C5000874C0008A34C0008BF4C0008DB4C000840
:104C6000F74C00087B681B8A01339AB27B681A8272
:104C70007B681B8A40F6330293424CD97B684FF421
:104C8000FA621A8247E07B68DB7B0133DAB27B6829
:104C9000DA737B68DB7B0C2B3FD97B680122DA73EC
:104CA0003BE07B689B7B0133DAB27B689A737B685D
:104CB0009B7B1F2B33D97B6801229A732FE07B6883
:104CC0001B7B0133DAB27B681A737B681B7B172B63
:104CD00027D97B6800221A7323E07B68DB7A0133D3
:104CE000DAB27B68DA727B68DB7A3B2B1BD97B6894
:104CF0000022DA7217E07B689B7A0133DAB27B68B4
:104D00009A727B689B7A3B2B0FD97B6800229A7240
:104D10000BE000BF0AE000BF08E000BF06E000BFF4
:104D200004E000BF02E000BF00E000BF00BF0C379E
:104D3000BD465DF8047B704780B483B000AF7860F7
:104D40007B689B78052B65D801A252F823F000BF41
:104D5000694D0008894D0008A54D0008C14D0008A7
:104D6000DD4D0008F94D00087B681B8A013B9AB2B3
:104D70007B681A827B681B8AB3F5FA6F4CD27B681A
:104D800040F633021A8247E07B68DB7B013BDAB2F4
:104D90007B68DA737B68DB7B002B3FD17B680C225E
:104DA000DA733BE07B689B7B013BDAB27B689A73EA
:104DB0007B689B7B002B33D17B681F229A732FE08B
:104DC0007B681B7B013BDAB27B681A737B681B7BB9
:104DD000172B27D97B6817221A7323E07B68DB7AAD
:104DE000013BDAB27B68DA727B68DB7A3B2B1BD93A
:104DF0007B683B22DA7217E07B689B7A013BDAB270
:104E00007B689A727B689B7A3B2B0FD97B683B222D
:104E10009A720BE000BF0AE000BF08E000BF06E0A6
:104E200000BF04E000BF02E000BF00E000BF00BF21
:104E30000C37BD465DF8047B704700BF80B483B07B
:104E400000AF00237B60104B5B6C0F4A43F4804340
:104E500053640D4B5B6C03F480437B607B680023E1
:104E60003B60094B1B6C084A43F080531364064BAC
:104E70001B6C03F080533B603B6800BF0C37BD46A2
:104E80005DF8047B704700BF0038024080B58AB0EF
:104E900000AF786007F1140300221A605A609A602C
:104EA000DA601A617B681B681B4A93422FD100238A
:104EB0003B611A4B5B6C194A43F480735364174B84
:104EC0005B6C03F480733B613B690023FB60134B15
:104ED0001B6B124A43F001031363104B1B6B03F06F
:104EE0000103FB60FB6880237B610323BB6100231C
:104EF000FB6107F114031946094802F0B7F80022D4
:104F00000021122002F07BF8122002F094F800BF7A
:104F10002837BD4680BD00BF002001400038024058
:104F20000000024080B58AB000AF786007F114033A
:104F300000221A605A609A60DA601A617B681B6806
:104F4000194A93422BD100233B61184B1B6B174A24
:104F500043F002031363154B1B6B03F002033B6129
:104F60003B69C0237B611223BB610023FB610323E8
:104F70003B6204237B6207F1140319460C4802F0DC
:104F800075F80023FB60094B1B6C084A43F40013BF
:104F90001364064B1B6C03F40013FB60FB6800BF3B
:104FA0002837BD4680BD00BF005400400038024095
:104FB0000004024080B58AB000AF786007F11403A6
:104FC00000221A605A609A60DA601A617B681B6876
:104FD000194A93422CD100233B61184B1B6C174A92
:104FE00043F480431364154B1B6C03F480433B6113
:104FF0003B690023FB60114B1B6B104A43F002031B
:1050000013630E4B1B6B03F00203FB60FB684FF452
:1050100060437B610223BB610023FB6103233B628E
:1050200005237B6207F114031946054802F01EF8B8
:1050300000BF2837BD4680BD003800400038024020
:105040000004024080B584B000AF78607B681B68C4
:10505000B3F1804F15D10023FB600C4B1B6C0B4A46
:1050600043F001031364094B1B6C03F00103FB6065
:10507000FB68002205211C2001F0C1FF1C2001F06B
:10508000DAFF00BF1037BD4680BD00BF00380240C8
:1050900080B400AF00BFFDE780B400AF00BFFDE704
:1050A00080B400AF00BFFDE780B400AF00BFFDE7F4
:1050B00080B400AF00BFFDE780B400AF00BFBD46C5
:1050C0005DF8047B704780B400AF00BFBD465DF85B
:1050D000047B704780B400AF00BFBD465DF8047B21
:1050E000704780B500AF01F051F900BF80BD0000EE
:1050F00080B500AF024801F043FB00BF80BD00BF98
:105100002002002080B500AF024806F0A2FE00BFDA
:1051100080BD00BF1403002080B500AF024802F03C
:105120003BFC00BF80BD00BF3C2B002080B400AF23
:1051300001231846BD465DF8047B704780B582B0F8
:1051400000AF786039600FF02FFE034616221A6018
:105150004FF0FF3318460837BD4680BD80B582B09A
:1051600000AF78604FF0FF317868FFF7E7FF00BFCE
:10517000FDE780B586B000AFF860B9607A600023C3
:105180007B610AE0AFF300800146BB685A1CBA603D
:10519000CAB21A707B6901337B617A697B689A4273
:1051A000F0DB7B6818461837BD4680BD80B586B0F9
:1051B00000AFF860B9607A6000237B6109E0BB68EA
:1051C0005A1CBA601B781846AFF300807B69013324
:1051D0007B617A697B689A42F1DB7B6818461837F5
:1051E000BD4680BD80B483B000AF78604FF0FF3320
:1051F00018460C37BD465DF8047B704780B483B019
:1052000000AF786039603B684FF400525A60002369
:1052100018460C37BD465DF8047B704780B483B0F8
:1052200000AF7860012318460C37BD465DF8047B5B
:10523000704780B485B000AFF860B9607A60002331
:1052400018461437BD465DF8047B704780B586B0BC
:1052500000AF7860144A154BD31A7B617B693B61C0
:10526000134B1B68002B02D1114B124A1A60104BD2
:105270001A687B6813443A699A4207D20FF094FD8A
:1052800003460C221A604FF0FF3309E0084B1B68FD
:10529000FB60074B1A687B681344054A1360FB6880
:1052A00018461837BD4680BD0000012000040000EC
:1052B000E41400206830002080B400AF064BD3F81F
:1052C0008830054A43F47003C2F8883000BFBD46F9
:1052D0005DF8047B704700BF00ED00E080B582B050
:1052E00000AF786039607B6800221A707B6800220A
:1052F0005A707B6803F580531A463B68C2F8D83071
:105300007B6803F580531A460023C2F8D4307B68CB
:1053100003F580531A460023C2F8DC307B6803F59E
:105320008053002283F8E0207B6803F5805300223D
:1053300083F8E1207B6803F58053002283F8E220A4
:105340007B6803F5815314332022002118460FF0A7
:10535000A6FC7B6803F58253143380220021184693
:105360000FF09DFC00BF0837BD4680BD80B582B000
:1053700000AF78607B681B78052B27D801A252F814
:1053800023F000BF9D530008A5530008AD5300084B
:10539000B5530008BD530008C5530008786800F0F5
:1053A00019F813E0786800F035F80FE0786800F03D
:1053B00053F80BE0786800F073F807E0786800F0C5
:1053C00093F803E0786800F0D0F800BF00BF08371A
:1053D000BD4680BD80B483B000AF78607B6803F5C4
:1053E0008053002283F8E0207B6803F5805300227D
:1053F00083F8E120064B1B78022B02D17B68012247
:105400001A7000BF0C37BD465DF8047B704700BFC3
:10541000382B002080B483B000AF78600D4B1B7830
:10542000022B09D17B6803F58053012283F8E02029
:105430007B6802221A7006E0064B1B78032B02D110
:105440007B6800221A7000BF0C37BD465DF8047BF4
:10545000704700BF382B002080B582B000AF786065
:1054600000220D490D480DF033FD0346002B09D1F4
:105470007B6803F58053012283F8E1207B680322D7
:105480001A7005E07B6802225A707B6805221A7048
:1054900000BF0837BD4680BDF0140020F414002082
:1054A00080B582B000AF78600E4B1B78022B14D011
:1054B0007B6803F5805393F8E230002B0AD07B68B9
:1054C000043318460EF024F97B6803F5805300225C
:1054D00083F8E2207B6800221A7000BF0837BD46BF
:1054E00080BD00BF382B0020B0B584B000AF78601D
:1054F0007B681D1D7B6803F5825414347B6803F5BB
:10550000825314331846FAF7BBFE024607F10C0328
:10551000214628460DF0EAFE0346002B1BD17B688E
:10552000043318460EF076F87B6803F58053D3F801
:10553000DC3001337A6802F58052C2F8DC3000F0CA
:1055400039FF02467B6803F58053C3F8D4207B689B
:1055500003221A7005E07B6804225A707B680522DA
:105560001A7000BF1037BD46B0BD80B582B000AF25
:1055700078607B6803F5805393F8E230002B0AD003
:105580007B68043318460EF0C3F87B6803F580533C
:10559000002283F8E2204FF4FA6000F017FF7B68E6
:1055A00000221A7000BF0837BD4680BD2DE9F047C4
:1055B000ADF58C5D82B00CAF07F5AC73A3F5A673A7
:1055C0001860D44B1B78022B01D000239AE107F519
:1055D0008C73143B1946D048FCF7BFF807F5AC7341
:1055E00033F84E3C1E4607F5AC7313F84F3C07F5F5
:1055F000AC7212F8502C07F5AC7111F8521C07F57B
:10560000AC7010F8530C044607F5AC7010F8540C4D
:10561000054607F1D80014380495039402910192CD
:1056200000933346BD4A40210FF09EFA07F1D8019E
:10563000143907F58C73083B062218460DF08EFCD2
:10564000034607F58A5202F11702137007F58A53D1
:1056500003F117031B78082B60D1012307F58A5249
:1056600002F1100213604BE007F5AC7333F84E3CC7
:105670009C4607F5AC7313F84F3C1A4607F5AC731C
:1056800013F8503C194607F5AC7313F8523C1C460E
:1056900007F5AC7313F8533C1D4607F5AC7313F8CC
:1056A000543C1E4607F1D800143807F58A5303F11D
:1056B00010031B68059304960395029401910092D0
:1056C0006346974A40210FF04FFA07F1D801143989
:1056D00007F58C73083B062218460DF03FFC034685
:1056E00007F58A5202F11702137007F58A5303F186
:1056F00010031B68013307F58A5202F11002136090
:1057000007F58A5303F110031B68632B06DC07F5CA
:105710008A5303F117031B78082BA5D007F58A538A
:1057200003F117031B78002B01D00023EAE07D4B27
:1057300007F58A5202F10802136007F58A5303F154
:1057400008031868FAF79CFD024607F58C730C3BBA
:1057500007F58C70083807F58A5101F108010968CE
:105760000DF0C4FD704800F009FC07F58A5303F101
:105770000403186007F58A5303F104031B68002B28
:1057800007D107F58C73083B18460DF0C1FF0123C4
:10579000B8E0142307F58A5202F1020213800023B5
:1057A00007F58A5202F10C02136097E007F58A535D
:1057B00003F102031B8807F58A5202F10C021268FA
:1057C00002FB03F107F58A5303F102031B8807F17B
:1057D000B802083A544800F035FB07F5AC7313F8EB
:1057E0009A3C984607F5AC7313F8993C1E4607F5AA
:1057F000AC7333F8983CBB6007F5AC7313F89C3C72
:105800007B6007F5AC7313F89D3C3B6007F5AC7308
:1058100013F89E3C1D4607F5AC7353F8A83C184698
:10582000FAF79AFE81468A4607F5AC7353F8A43C12
:105830001846FAF791FE02460B4607F5AC7111F8CF
:10584000A01C07F5AC7010F89F0C044607F1180077
:1058500008380B940A91CDE90823CDE9069A0495FE
:105860003A6803927A680292BB68019300964346B5
:105870002E4AA0210FF078F907F11803083B1846CB
:10588000FAF7FEFC024607F58C730C3B07F1180192
:10589000083907F58C7008380DF028FD034607F528
:1058A0008A5202F11702137007F58A5303F11703A6
:1058B0001B78002B07D007F58C73083B18460DF0BA
:1058C00027FF00231EE007F58A5303F10C031B6832
:1058D000013307F58A5202F10C02136007F58A536F
:1058E00003F10C031A6807F58A5303F104031B68DC
:1058F0009A42FFF45BAF07F58C73083B18460DF036
:1059000007FF0123184607F58A571837BD46BDE83B
:10591000F08700BF382B002068020020487C010877
:105920006C7C0108987C01087C140020E07C010854
:105930002DE9F047ADF58A5D0CAF07F58873A3F547
:1059400082731860904B1B78022B01D0002314E166
:1059500007F1D003083B0A228C4918460DF0FEFAE5
:10596000034607F5885202F10B02137007F58853BE
:1059700003F10B031B78002B01D00023FDE0844BC7
:1059800007F5885202F10402136007F5885303F10A
:1059900004031868FAF774FC024607F1D0030C3BC5
:1059A00007F1D000083807F5885101F104010968B2
:1059B0000DF09CFC774800F00BFB07F5885318604E
:1059C00007F588531B68002B07D107F1D003083B6C
:1059D00018460DF09DFE0123CFE0142307F58752F2
:1059E00002F11E021380002307F5885202F10C0217
:1059F0001360AEE007F5875303F11E031B8807F51C
:105A0000885202F10C02126802FB03F303F5001343
:105A100007F5875202F11802136007F5875303F167
:105A20001E031A8807F5875303F118031B681344F4
:105A3000594A934200F2998007F5875303F11E03F8
:105A40001B8807F1B00207F5875101F118010968B9
:105A5000504800F0F7F907F5887313F8523C984660
:105A600007F5887313F8513C1E4607F5887333F821
:105A7000503CBB6007F5887313F8543C7B6007F516
:105A8000887313F8553C3B6007F5887313F8563C50
:105A90001D4607F5887353F8603C1846FAF75CFD1D
:105AA00081468A4607F5887353F85C3C1846FAF736
:105AB00053FD02460B4607F5887111F8581C07F58F
:105AC000887010F8570C044607F110000B940A91E7
:105AD000CDE90823CDE9069A04953A6803927A68DD
