:020000040800F2
:1000000000000120E5640008E1520008E952000800
:10001000F1520008F95200080153000800000000E6
:10002000000000000000000000000000095300086C
:100030001753000800000000255300083353000840
:100040003565000835650008356500083565000828
:100050003565000835650008356500083565000818
:100060003565000835650008356500083565000808
:1000700035650008356500083565000835650008F8
:100080003565000835650008415300080000000090
:1000900000000000000000000000000035650008BE
:1000A00035650008356500083565000835650008C8
:1000B00055530008356500083565000835650008AA
:1000C00035650008356500083565000835650008A8
:1000D000356500083565000835650008000000003A
:1000E000356500083565000835650008000000002A
:1000F000000000000000000000000000356500085E
:100100000000000035650008356500083565000809
:1001100000000000000000000000000000000000DF
:100120003565000835650008356500083565000847
:10013000356500080000000000000000000000001D
:1001400000000000000000000000000069530008EB
:100150003565000835650008356500083565000817
:10016000356500083565000800000000000000004B
:10017000000000000000000000000000000000007F
:1001800000000000356500080000000000000000CD
:0401900035650008C9
:1001A00010B5054C237833B9044B13B10448AFF3B1
:1001B00000800123237010BD000200200000000019
:1001C000786F010808B5034B1BB103490348AFF32F
:1001D000008008BD0000000004020020786F0108C4
:1001E00001F0FF01102A2BDB10F0070F08D010F8E8
:1001F000013B013A8B422DD010F0070F42B3F6D1EC
:10020000F0B441EA012141EA014122F007047FF004
:1002100000070023F0E80256083C85EA010586EA5B
:10022000010685FA47F5A3FA87F586FA47F6A5FA97
:1002300087F68EB9EED1F0BC01F0FF0102F00702A3
:1002400032B110F8013B013A83EA010313B1F8D14E
:100250000020704701387047002D06BF354603382F
:10026000073815F0010F07D1013015F4807F02BF68
:10027000013015F4C03F0130F0BC0138704700BFB9
:10028000034613F8012B002AFBD1181A01387047D6
:1002900081F0004102E000BF83F0004330B54FEA37
:1002A00041044FEA430594EA050F08BF90EA020FA4
:1002B0001FBF54EA000C55EA020C7FEA645C7FEA37
:1002C000655C00F0E2804FEA5454D4EB5555B8BF5A
:1002D0006D420CDD2C4480EA020281EA030382EACB
:1002E000000083EA010180EA020281EA0303362D5D
:1002F00088BF30BD11F0004F4FEA01314FF4801C30
:100300004CEA113102D0404261EB410113F0004F41
:100310004FEA03334CEA133302D0524263EB4303F8
:1003200094EA050F00F0A780A4F10104D5F1200E96
:100330000DDB02FA0EFC22FA05F2801841F10001F1
:1003400003FA0EF2801843FA05F359410EE0A5F1C5
:1003500020050EF1200E012A03FA0EFC28BF4CF0F6
:10036000020C43FA05F3C01851EBE37101F00045AC
:1003700007D54FF0000EDCF1000C7EEB00006EEBB9
:100380000101B1F5801F1BD3B1F5001F0CD3490843
:100390005FEA30004FEA3C0C04F101044FEA44529A
:1003A00012F5800F80F09A80BCF1004F08BF5FEA21
:1003B000500C50F1000041EB045141EA050130BD01
:1003C0005FEA4C0C404141EB0101013C28BFB1F513
:1003D000801FE9D291F0000F04BF01460020B1FA5E
:1003E00081F308BF2033A3F10B03B3F120020CDA31
:1003F0000C3208DD02F1140CC2F10C0201FA0CF00F
:1004000021FA02F10CE002F11402D8BFC2F1200C73
:1004100001FA02F120FA0CFCDCBF41EA0C01904029
:10042000E41AA2BF01EB0451294330BD6FEA040472
:100430001F3C1CDA0C340EDC04F11404C4F120025D
:1004400020FA04F001FA02F340EA030021FA04F36F
:1004500045EA030130BDC4F10C04C4F1200220FAC6
:1004600002F001FA04F340EA0300294630BD21FA04
:1004700004F0294630BD94F0000F83F4801306BFCA
:1004800081F480110134013D4EE77FEA645C18BFBE
:100490007FEA655C29D094EA050F08BF90EA020F55
:1004A00005D054EA000C04BF1946104630BD91EA4D
:1004B000030F1EBF0021002030BD5FEA545C05D150
:1004C0004000494128BF41F0004130BD14F580048F
:1004D0003CBF01F5801130BD01F0004545F0FE4103
:1004E00041F470014FF0000030BD7FEA645C1ABF38
:1004F000194610467FEA655C1CBF0B46024650EA6F
:10050000013406BF52EA033591EA030F41F400219A
:1005100030BD00BF90F0000F04BF0021704730B520
:100520004FF4806404F132044FF000054FF00001F5
:1005300050E700BF90F0000F04BF0021704730B5B6
:100540004FF4806404F1320410F0004548BF40428B
:100550004FF000013EE700BF42004FEAE2014FEAE0
:1005600031014FEA02701FBF12F07F4393F07F4FBB
:1005700081F06051704732F07F4208BF704793F0BE
:100580007F4F04BF41F40021704730B54FF46074D1
:1005900001F0004521F000411CE700BF50EA0102D4
:1005A00008BF704730B54FF000050AE050EA01027D
:1005B00008BF704730B511F0004502D5404261EBED
:1005C00041014FF4806404F132045FEA915C3FF42E
:1005D000D8AE4FF003025FEADC0C18BF03325FEACB
:1005E000DC0C18BF033202EBDC02C2F1200300FA7C
:1005F00003FC20FA02F001FA03FE40EA0E0021FAA1
:1006000002F11444BDE600BF70B54FF0FF0C4CF48E
:10061000E06C1CEA11541DBF1CEA135594EA0C0F40
:1006200095EA0C0F00F0DEF82C4481EA030621EA7B
:100630004C5123EA4C5350EA013518BF52EA0335B6
:1006400041F4801143F4801338D0A0FB02CE4FF068
:100650000005E1FB02E506F00042E0FB03E54FF098
:100660000006E1FB03569CF0000F18BF4EF0010E90
:10067000A4F1FF04B6F5007F64F5407404D25FEA8C
:100680004E0E6D4146EB060642EAC62141EA55513F
:100690004FEAC52040EA5E504FEACE2EB4F1FD0C81
:1006A00088BFBCF5E06F1ED8BEF1004F08BF5FEAFF
:1006B000500E50F1000041EB045170BD06F00046B1
:1006C00046EA010140EA020081EA0301B4EB5C045E
:1006D000C2BFD4EB0C0541EA045170BD41F4801156
:1006E0004FF0000E013C00F3AB8014F1360FDEBF7B
:1006F000002001F0004170BDC4F10004203C35DA57
:100700000C341BDC04F11404C4F1200500FA05F3D9
:1007100020FA04F001FA05F240EA020001F000427A
:1007200021F0004110EBD37021FA04F642EB0601F0
:100730005EEA430E08BF20EAD37070BDC4F10C041A
:10074000C4F1200500FA04F320FA05F001FA04F2DE
:1007500040EA020001F0004110EBD37041F10001CA
:100760005EEA430E08BF20EAD37070BDC4F12005D5
:1007700000FA05F24EEA020E20FA04F301FA05F23D
:1007800043EA020321FA04F001F0004121FA04F2E5
:1007900020EA020000EBD3705EEA430E08BF20EAB5
:1007A000D37070BD94F0000F0FD101F000464000EF
:1007B00041EB010111F4801F08BF013CF7D041EA71
:1007C000060195F0000F18BF704703F00046520075
:1007D00043EB030313F4801F08BF013DF7D043EA46
:1007E0000603704794EA0C0F0CEA135518BF95EAFC
:1007F0000C0F0CD050EA410618BF52EA4306D1D183
:1008000081EA030101F000414FF0000070BD50EAA1
:10081000410606BF1046194652EA430619D094EA2B
:100820000C0F02D150EA013613D195EA0C0F05D115
:1008300052EA03361CBF104619460AD181EA030169
:1008400001F0004141F0FE4141F470014FF0000021
:1008500070BD41F0FE4141F4780170BD70B54FF0BC
:10086000FF0C4CF4E06C1CEA11541DBF1CEA13553C
:1008700094EA0C0F95EA0C0F00F0A7F8A4EB05041E
:1008800081EA030E52EA03354FEA013100F0888015
:100890004FEA03334FF0805545EA131343EA1263DE
:1008A0004FEA022245EA111545EA10654FEA002693
:1008B0000EF000419D4208BF964244F1FD0404F54C
:1008C000407402D25B084FEA3202B61A65EB0305A8
:1008D0005B084FEA32024FF480104FF4002CB6EB65
:1008E000020E75EB030E22BFB61A754640EA0C00E5
:1008F0005B084FEA3202B6EB020E75EB030E22BF25
:10090000B61A754640EA5C005B084FEA3202B6EB65
:10091000020E75EB030E22BFB61A754640EA9C0024
:100920005B084FEA3202B6EB020E75EB030E22BFF4
:10093000B61A754640EADC0055EA060E18D04FEAB2
:10094000051545EA16754FEA06164FEAC30343EA52
:1009500052734FEAC2025FEA1C1CC0D111F4801F1F
:100960000BD141EA00014FF000004FF0004CB6E718
:1009700011F4801F04BF01430020B4F1FD0C88BFB7
:10098000BCF5E06F3FF6AFAEB5EB030C04BFB6EBC2
:10099000020C5FEA500C50F1000041EB045170BDB5
:1009A0000EF0004E4EEA113114EB5C04C2BFD4EBE2
:1009B0000C0541EA045170BD41F480114FF0000E66
:1009C000013C90E645EA060E8DE60CEA135594EAE2
:1009D0000C0F08BF95EA0C0F3FF43BAF94EA0C0FE5
:1009E0000AD150EA01347FF434AF95EA0C0F7FF45A
:1009F00025AF104619462CE795EA0C0F06D152EAAE
:100A000003353FF4FDAE1046194622E750EA410691
:100A100018BF52EA43067FF4C5AE50EA41047FF4A2
:100A20000DAF52EA43057FF4EBAE12E74FF0FF3C07
:100A300006E000BF4FF0010C02E000BF4FF0010CD8
:100A40004DF804CD4FEA410C7FEA6C5C4FEA430C51
:100A500018BF7FEA6C5C1BD001B050EA410C0CBFA0
:100A600052EA430C91EA030F02BF90EA020F002002
:100A7000704710F1000F91EA030F58BF994208BF69
:100A800090422CBFD8176FEAE37040F00100704726
:100A90004FEA410C7FEA6C5C02D150EA013C07D17D
:100AA0004FEA430C7FEA6C5CD6D152EA033CD3D0C8
:100AB0005DF8040B704700BF8446104662468C46C2
:100AC0001946634600E000BF01B5FFF7B7FF0028F5
:100AD00048BF10F1000F01BD4DF808EDFFF7F4FF1E
:100AE0000CBF012000205DF808FB00BF4DF808EDA9
:100AF000FFF7EAFF34BF012000205DF808FB00BFCC
:100B00004DF808EDFFF7E0FF94BF012000205DF8ED
:100B100008FB00BF4DF808EDFFF7CEFF94BF0120A2
:100B200000205DF808FB00BF4DF808EDFFF7C4FF9B
:100B300034BF012000205DF808FB00BF4FEA410CE4
:100B40007FEA6C5C02D150EA013C0AD14FEA430CC7
:100B50007FEA6C5C02D152EA033C02D14FF0000004
:100B600070474FF0010070474FEA410212F5001242
:100B700015D211D56FF47873B3EB625212D94FEAE4
:100B8000C12343F0004343EA505311F0004F23FACE
:100B900002F018BF404270474FF00000704750EA23
:100BA000013005D111F0004008BF6FF000407047E0
:100BB0004FF00000704700BF53B94AB9002908BF81
:100BC00000281CBF4FF0FF314FF0FF3000F088B914
:100BD000ADF1080C6DE904CE00F006F8DDF804E094
:100BE000DDE9022304B070472DE9F047089D8E46E9
:100BF00004468846002B4AD18A42174662D9B2FA87
:100C000082F64EB1C6F1200301FA06F820FA03F38A
:100C1000B74043EA0808B4404FEA174E1FFA87FC72
:100C2000B8FBFEF1230C0EFB118843EA084301FBDD
:100C30000CF29A4209D9FB1801F1FF3080F0EA80EA
:100C40009A4240F2E78002393B449A1AA3B2B2FBBF
:100C5000FEF00EFB102243EA024300FB0CFC9C4515
:100C600009D9FB1800F1FF3280F0D6809C4540F294
:100C7000D3803B44023840EA0140A3EB0C0300213F
:100C80001DB1F3400022C5E90032BDE8F0878B4278
:100C900005D90DB1C5E9000100210846F5E7B3FA11
:100CA00083F1002946D1734502D3824200F20581C7
:100CB000841A6EEB030201209046002DE5D0C5E9B1
:100CC0000048E2E7002A00F09080B2FA82F6002E97
:100CD00040F0A4808A1A030C4FEA174E80B2BCB2CF
:100CE0000121B2FBFEFC0EFB1C2243EA024304FB83
:100CF0000CF29A4207D9FB180CF1FF3802D29A4243
:100D000000F2E080C4469B1AB3FBFEF20EFB1233E6
:100D100040EA034302FB04F49C4207D9FB1802F1AA
:100D2000FF3002D29C4200F2CA8002461B1B42EAFC
:100D30000C40A5E7C1F120068B4022FA06F71F43BD
:100D40000EFA01F420FA06F32EFA06FE4FEA1749CE
:100D5000234300FA01F81FFA87FCBEFBF9F01C0CD4
:100D600009FB10EE44EA0E4400FB0CFEA64502FA15
:100D700001F209D93C1900F1FF3A80F09C80A645A8
:100D800040F2998002383C44A4EB0E041FFA83FE23
:100D9000B4FBF9F309FB13444EEA044403FB0CFCD7
:100DA000A44508D93C1903F1FF3E80F08280A44598
:100DB0007FD9023B3C4443EA0040A4EB0C04A0FB77
:100DC00002EC64457346E14662D35FD05DB1B8EB97
:100DD000030264EB090404FA06F622FA01F31E4347
:100DE000CC40C5E9006400214FE7B1FBF2FC010CE7
:100DF00041EA0E4180B240EA01423B4638463C4659
:100E0000B846BE462026B1FBF7F1A2EB080241EA44
:100E10000C4166E7014618E710462CE7C6F12002B0
:100E20002EFA02F3B740B14020FA02F24FEA174E11
:100E30000A43B3FBFEF8BCB20EFB1833110C41EAB7
:100E4000034108FB04F9B04089454FEA104380B2E2
:100E50003ED9791808F1FF3C01D289451FD8A1EB92
:100E60000901B1FBFEF909FB04F80EFB191192B25E
:100E700042EA0142424529D2BA1809F1FF31C4D2EF
:100E80004245C2D2A9F102013A44BEE7F0459DD2E3
:100E9000BEEB02036CEB070C0138E14696E7A7EBCB
:100EA00009094944A8F1020CB1FBFEF909FB04F859
:100EB000DBE773467FE7504666E70846FDE63B44BE
:100EC000023A33E7ACF1020C3B441CE749469CE78D
:100ED000A1EB0901C446B1FBFEF909FB04F8C4E724
:100EE000704700BF80B588B004AFF8607A601A46DA
:100EF0000B46FB7213463B81FB681868FB7A9AB27B
:100F00004FF0FF3302933B8901937B6800930123E9
:100F1000EE2108F0F9FF034618461037BD4680BDA4
:100F200080B586B004AF78600B46FB701346BB708B
:100F30007B681868FB789AB24FF0FF330293012365
:100F40000193BB1C00930123EE2108F0E3FE03464E
:100F500018460837BD4680BD80B58AB000AFF8603E
:100F6000B9601346FB71FB68BA681A60FB68FA79CE
:100F70009A7607F110021623AA21F868FFF7B2FF4C
:100F80000346002B01D0002377E03B7C1BB21B0201
:100F90001AB27B7C1BB213431AB2FB689A80BB7CEB
:100FA0001BB21B021AB2FB7C1BB213431AB2FB68C2
:100FB000DA803B7D1BB21B021AB27B7D1BB213434E
:100FC0001AB2FB681A81BB7D1BB21B021AB2FB7DF1
:100FD0001BB213431BB29AB2FB685A813B7E1BB211
:100FE0001B021AB27B7E1BB213431BB29AB2FB6880
:100FF0009A81BB7E1BB21B021AB2FB7E1BB213434B
:101000001BB29AB2FB68DA813B7F1BB21B021AB299
:101010007B7F1BB213431AB2FB681A82BB7F1BB2E1
:101020001B021AB2FB7F1BB213431AB2FB685A822F
:1010300097F820301BB21B021AB297F821301BB26E
:1010400013431AB2FB689A8297F822301BB21B0234
:101050001AB297F823301BB213431AB2FB68DA8234
:1010600097F824301BB21B021AB297F825301BB236
:1010700013431AB2FB681A83012318462837BD466A
:1010800080BD000080B586B000AF78602E22F421CC
:101090007868FFF745FF052005F0C0FA07F1080260
:1010A0000223F6217868FFF71DFF3B7A1B027A7A4C
:1010B00013437B617B68DB891A467B699B1A7A68DC
:1010C000928902FB03F3DB133B617B68B3F91630B3
:1010D000DA027B68B3F9183019463B690B4492FB7E
:1010E000F3F3FB603A69FB6813440A4A1360094B47
:1010F0001B6808331B1107EE903AF8EEE77AB2EE60
:10110000047AC7EE876AF0EE667AB0EE670A18379F
:10111000BD4680BD1C02002080B58EB000AF786057
:101120007B689B7E032B27D801A252F823F000BFD7
:10113000411100084F1100085D1100086B110008F3
:10114000342387F83330052387F832301BE07423CB
:1011500087F83330082387F8323014E0B42387F857
:1011600033300E2387F832300DE0F42387F8333024
:101170001A2387F8323006E0342387F8333005230A
:1011800087F8323000BF97F833301A46F421786878
:10119000FFF7C6FE97F83230184605F03FFA07F120
:1011A0000C020323F6217868FFF79CFE3B7B1A04B0
:1011B0007B7B1B021343BA7B1A437B689B7EC3F184
:1011C000080342FA03F3FB624D4B1B68A3F57A63F5
:1011D000BB627B68B3F912301A46BB6A03FB03F3A8
:1011E0001B1302FB03F3DB127B627B68B3F906304F
:1011F0001A46BB6A02FB03F3DB123B627A6A3B6A64
:101200001344FB617B68B3F904309A00FB69134413
:101210007A68927E93400233002B00DA03339B10EE
:10122000BB617B68B3F908301A46BB6A02FB03F363
:101230005B137B627B68B3F910301A46BB6A03FB11
:1012400003F31B1302FB03F31B143B627A6A3B6A32
:10125000134402339B10FB617B685B891A46FB6970
:1012600003F5004302FB03F3DB0B7B61FA6ABB6906
:10127000D31A7A68927E11464CF250320A4102FB30
:1012800003F33B613B69002B06DB3B695A007B693A
:10129000B2FBF3F37B6305E03A697B69B2FBF3F3DE
:1012A0005B007B637B6B1B127A6B121202FB03F3F6
:1012B0007B627B6A40F6DE3202FB03F31B147B6227
:1012C0007B6B104A02FB03F31B143B627A6A3B6A96
:1012D000134403F6CF631B117A6B13447B637B6B60
:1012E00007EE903AF8EEE77A9FED077AC7EE876A45
:1012F000F0EE667AB0EE670A3837BD4680BD00BFB3
:101300001C02002043E3FFFF0000C84280B485B008
:1013100000AFF860B9601346FB80FB68BA681A60DA
:10132000FB68FA889A80FB6800229A71FB680022A9
:10133000DA71FB6800221A7200BF1437BD465DF8EF
:10134000047B704780B586B000AF786007F1080372
:1013500000221A601A710023FB750023BB757868A0
:1013600000F0C6F80021786800F002F9122005F0BC
:1013700055F90121786800F0FBF81E2000F01CF9F7
:10138000786800F0D6F84FF47A733B6100BF786854
:1013900000F000F90346012B04D13B695A1E3A6163
:1013A000002BF4D13B69002B01D100239CE04FF4CA
:1013B0007A733B6100BF786800F0ECF80346002BBD
:1013C00004D13B695A1E3A61002BF4D13B69002BD2
:1013D00001D1002388E04FF47A733B6100BF786845
:1013E00000F0D8F80346012B04D13B695A1E3A613C
:1013F000002BF4D13B69002B01D1002374E00023C2
:10140000BB7551E00023FB7548E04FF47A733B61F4
:1014100000BF786800F0BEF80346002B04D13B699A
:101420005A1E3A61002BF4D13B69002B01D10023F5
:101430005AE0282000F0C0F8786800F0ABF80346C6
:10144000012B14D1BB7D18333B4413F8103C5AB226
:10145000FB7DC3F10703012101FA03F35BB21343E0
:101460005AB2BB7DD2B218333B4403F8102C4FF470
:101470007A733B6100BF786800F08CF80346012B5B
:1014800004D13B695A1E3A61002BF4D13B69002B11
:1014900001D1002328E0FB7D0133FB75FB7D072B89
:1014A000B3D9BB7D0133BB75BB7D042BAAD93A7A76
:1014B0007B7A1344DAB2BB7A1344DAB2FB7A134470
:1014C000FB733B7BFA7B9A4204D07B6800221A7242
:1014D000002309E03A7A7B68DA71BA7A7B689A71FC
:1014E0007B6801221A72012318461837BD4680BD59
:1014F00080B588B000AF786007F10C0300221A6055
:101500005A609A60DA601A617B689B88FB600123ED
:101510003B6100237B610023BB617B681B6807F193
:101520000C021146184605F0C9FE00BF2037BD4623
:1015300080BD80B588B000AF786007F10C03002251
:101540001A605A609A60DA601A617B689B88FB6057
:1015500000233B6101237B617B681B6807F10C0260
:101560001146184605F0AAFE00BF2037BD4680BDD3
:1015700080B582B000AF78600B46FB707B6818685E
:101580007B689B88FA78194606F034F800BF083764
:10159000BD4680BD80B582B000AF78607B681A68B8
:1015A0007B689B881946104606F00CF803461846DF
:1015B0000837BD4680BD000080B485B000AF7860BC
:1015C0000D4B1B680D4AA2FB03239B0C7A6802FBA0
:1015D00003F30B4AA2FB03239B08FB6000E000BF60
:1015E000FB685A1EFA60002BF9D100BF00BF143708
:1015F000BD465DF8047B70470C00002083DE1B4372
:10160000CDCCCCCC80B483B000AF0346FB71FB796A
:101610001B09DBB21A46920013445B00DAB2FB7975
:1016200003F00F03DBB21344DBB218460C37BD46A0
:101630005DF8047B7047000080B483B000AF0346C0
:10164000FB71FB790E4AA2FB0323DB08DBB25BB222
:101650001B0158B2FA790A4BA3FB0213D9080B46B7
:101660009B000B445B00D31ADBB25BB203435BB25B
:10167000DBB218460C37BD465DF8047B704700BFEF
:10168000CDCCCCCC80B588B004AF78606423029315
:101690000123019307F10F03009301230022D021BE
:1016A000786808F031FC0346002B01D1012300E0EB
:1016B000002318461037BD4680BD80B588B004AF02
:1016C000786039603B681B781846FFF7B5FF034622
:1016D0003B723B685B781846FFF7AEFF03467B72B0
:1016E0003B689B781846FFF7A7FF0346BB723B6831
:1016F000DB781846FFF7A0FF0346FB723B681B79B7
:101700001846FFF799FF03463B733B685B79184621
:10171000FFF792FF03467B733B68DB88DBB2303315
:10172000DBB21846FFF788FF0346BB7364230293BE
:101730000723019307F10803009301230022D0211E
:10174000786808F0E7FA0346002B01D1012300E096
:10175000002318461037BD4680BD80B588B004AF61
:1017600078603960642302930723019307F108032B
:10177000009301230022D021786808F0C5FB0346BE
:10178000002B41D13B7A1846FFF73CFF03461A462F
:101790003B681A707B7A1846FFF734FF03461A46F7
:1017A0003B685A70BB7A03F03F03DBB21846FFF781
:1017B00029FF03461A463B689A70FB7A1846FFF7E2
:1017C00021FF03461A463B68DA703B7B1846FFF759
:1017D00019FF03461A463B681A717B7B03F01F030F
:1017E000DBB21846FFF70EFF03461A463B685A71F4
:1017F000BB7B1846FFF706FF034603F5FA639AB270
:101800003B68DA80012300E0002318461037BD460C
:1018100080BD000080B483B000AF03460A46FB7170
:101820001346BB71BB79022B01D90023BB71FB7935
:101830003E2B00F20B8401A252F823F03919000864
:101840005119000869190008811900089919000840
:10185000B1190008A51D0008BD1D0008D51D000810
:10186000D91D0008DD1D0008F51D0008F91D000840
:10187000FD1D0008151E0008191E00081D1E000889
:10188000C9190008E1190008F9190008111A00081F
:10189000291A0008411A0008891A0008591A000874
:1018A000711A0008A11A0008B91A0008D11A000814
:1018B000E91A0008011B0008191B0008311B000869
:1018C000351C0008C51C0008DD1C0008F51C0008BC
:1018D0000D1D0008251D00083D1D00084D1C0008B9
:1018E000551D0008651C0008851D0008891D00089D
:1018F0008D1D00082D1F0008451F00085D1F0008F2
:10190000751F00088D1F0008151F0008A51F00087F
:10191000BD1F00087D1C00086D1D0008951C0008F7
:10192000AD1C0008D51F0008ED1F000805200008A9
:101930001D20000835200008BB79012B06D0BB799B
:10194000022B01D17E4B82E37E4B80E37D4B7EE315
:10195000BB79012B06D0BB79022B01D17A4B76E300
:101960007A4B74E3794B72E3BB79012B06D0BB79D8
:10197000022B01D1764B6AE3764B68E3764B66E344
:10198000BB79012B06D0BB79022B01D1734B5EE3EF
:10199000734B5CE3734B5AE3BB79012B06D0BB79E5
:1019A000022B01D1704B52E3704B50E3704B4EE36E
:1019B000BB79012B06D0BB79022B01D16D4B46E3DD
:1019C0006D4B44E36D4B42E3BB79012B06D0BB79F1
:1019D000022B01D16A4B3AE36A4B38E36A4B36E398
:1019E000BB79012B06D0BB79022B01D1674B2EE3CB
:1019F000674B2CE3674B2AE3BB79012B06D0BB79FD
:101A0000022B01D1644B22E3644B20E3644B1EE3C1
:101A1000BB79012B06D0BB79022B01D1614B16E3B8
:101A2000614B14E3614B12E3BB79012B06D0BB7908
:101A3000022B01D15E4B0AE35E4B08E35E4B06E3EB
:101A4000BB79012B06D0BB79022B01D15B4BFEE2A7
:101A50005B4BFCE25A4BFAE2BB79012B06D0BB7917
:101A6000022B01D1574BF2E2574BF0E2574BEEE21B
:101A7000BB79012B06D0BB79022B01D1544BE6E296
:101A8000544BE4E2544BE2E2BB79012B06D0BB7924
:101A9000022B01D1514BDAE2514BD8E2514BD6E245
:101AA000BB79012B06D0BB79022B01D14E4BCEE284
:101AB0004E4BCCE24E4BCAE2BB79012B06D0BB7930
:101AC000022B01D14B4BC2E24B4BC0E24B4BBEE26F
:101AD000BB79012B06D0BB79022B01D1484BB6E272
:101AE000484BB4E2474BB2E2BB79012B06D0BB793D
:101AF000022B01D1444BAAE2444BA8E2444BA6E29C
:101B0000BB79012B06D0BB79022B01D1414B9EE260
:101B1000414B9CE2404B9AE2BB79012B06D0BB794A
:101B2000022B01D13D4B92E23D4B90E23D4B8EE2C8
:101B3000BB79012B7CD0BB79022B77D13A4B86E263
:101B4000906F0108A86F0108C06F0108D86F0108E5
:101B5000F06F010808700108207001083870010852
:101B600050700108687001088070010898700108C1
:101B7000B0700108C8700108E0700108F870010831
:101B8000107101082871010840710108587101089D
:101B90007071010888710108A0710108B87101080D
:101BA000D0710108E871010800720108187201087B
:101BB00030720108487201086072010878720108E9
:101BC00090720108A8720108C0720108D872010859
:101BD000F0720108087301082073010838730108C6
:101BE000487301085873010868730108807301087D
:101BF00098730108B0730108C8730108E073010805
:101C0000F873010810740108287401084074010871
:101C1000587401087074010888740108A0740108E0
:101C2000B8740108D0740108E87401087C4B0EE216
:101C30007C4B0CE2BB79012B06D0BB79022B01D186
:101C4000794B04E2794B02E2794B00E2BB79012B3C
:101C500006D0BB79022B01D1764BF8E1764BF6E149
:101C6000764BF4E1BB79012B06D0BB79022B01D175
:101C7000734BECE1734BEAE1734BE8E1BB79012B69
:101C800006D0BB79022B01D1704BE0E1704BDEE155
:101C90006F4BDCE1BB79012B06D0BB79022B01D164
:101CA0006C4BD4E16C4BD2E16C4BD0E1BB79012B96
:101CB00006D0BB79022B01D1694BC8E1694BC6E163
:101CC000694BC4E1BB79012B06D0BB79022B01D152
:101CD000664BBCE1664BBAE1654BB8E1BB79012BC1
:101CE00006D0BB79022B01D1624BB0E1624BAEE171
:101CF000614BACE1BB79012B06D0BB79022B01D142
:101D00005E4BA4E15E4BA2E15D4BA0E1BB79012BF0
:101D100006D0BB79022B01D15A4B98E15A4B96E180
:101D2000594B94E1BB79012B06D0BB79022B01D131
:101D3000564B8CE1564B8AE1564B88E1BB79012B1F
:101D400006D0BB79022B01D1534B80E1534B7EE18E
:101D5000524B7CE1BB79012B06D0BB79022B01D120
:101D60004F4B74E14F4B72E14F4B70E1BB79012B4C
:101D700006D0BB79022B01D14C4B68E14C4B66E19C
:101D80004C4B64E14C4B62E14C4B60E1BB79012B65
:101D900006D0BB79022B01D1494B58E1494B56E1A2
:101DA000494B54E1BB79012B06D0BB79022B01D101
:101DB000464B4CE1464B4AE1464B48E1BB79012B8F
:101DC00006D0BB79022B01D1434B40E1434B3EE1AE
:101DD000424B3CE1424B3AE1424B38E1BB79012BAB
:101DE00006D0BB79022B01D13F4B30E13F4B2EE1B6
:101DF0003F4B2CE13F4B2AE13F4B28E1BB79012BC4
:101E000006D0BB79022B01D13C4B20E13C4B1EE1BB
:101E10003C4B1CE13C4B1AE13C4B18E13C4B16E1BE
:101E2000F0740108F87401080075010808750108CC
:101E3000107501081C750108347501084C750108FE
:101E4000647501087C75010894750108AC7501087A
:101E5000C4750108DC750108F47501080C760108E9
:101E6000247601083C760108547601086C76010856
:101E7000847601089C760108B4760108CC760108C6
:101E8000E4760108FC760108147701082C77010834
:101E9000447701085C770108747701088C770108A2
:101EA000A4770108BC770108D4770108EC77010812
:101EB000047801081C780108347801084878010882
:101EC000547801086478010874780108847801085E
:101ED0009C780108B4780108CC780108E4780108FE
:101EE000FC780108147901082C790108447901086B
:101EF0005C790108747901088C790108A4790108DA
:101F0000BC790108D4790108EC790108047A010848
:101F10001C7A0108BB79012B06D0BB79022B01D1B9
:101F20004E4B94E04E4B92E04E4B90E0BB79012B30
:101F300006D0BB79022B01D14B4B88E04B4B86E09E
:101F40004B4B84E0BB79012B06D0BB79022B01D12E
:101F5000484B7CE0484B7AE0484B78E0BB79012B5A
:101F600006D0BB79022B01D1454B70E0454B6EE0AA
:101F7000444B6CE0BB79012B06D0BB79022B01D11D
:101F8000414B64E0414B62E0404B60E0BB79012B88
:101F900006D0BB79022B01D13D4B58E03D4B56E0BA
:101FA0003D4B54E0BB79012B06D0BB79022B01D10C
:101FB0003A4B4CE03A4B4AE03A4B48E0BB79012BB4
:101FC00006D0BB79022B01D1374B40E0374B3EE0C6
:101FD000364B3CE0BB79012B06D0BB79022B01D1FB
:101FE000334B34E0334B32E0334B30E0BB79012BE1
:101FF00006D0BB79022B01D1304B28E0304B26E0D4
:10200000304B24E0BB79012B06D0BB79022B01D1E8
:102010002D4B1CE02D4B1AE02C4B18E0BB79012B0B
:1020200006D0BB79022B01D1294B10E0294B0EE0E1
:10203000294B0CE0BB79012B06D0BB79022B01D1D7
:10204000264B04E0264B02E0264B00E0264B1846C8
:102050000C37BD465DF8047B704700BF347A010839
:102060004C7A0108647A01087C7A0108947A0108A4
:10207000AC7A0108C47A0108DC7A0108F47A010814
:102080000C7B0108107B0108147B0108187B0108F8
:102090001C7B0108347B01084C7B0108647B010830
:1020A0007C7B0108947B0108AC7B0108C47B0108A0
:1020B000DC7B0108F47B01080C7C0108247C01080E
:1020C0003C7C0108547C01086C7C0108847C01087C
:1020D0009C7C0108B47C0108CC7C0108E47C0108EC
:1020E000FC7C0108147D01082C7D010880B584B0BA
:1020F00000AFF860B96011461A460B46FB711346F3
:10210000BB71FB68BA681A60FB684E221A71FB68E3
:10211000FA795A72FB68BA799A72FB6808225A7186
:10212000FB6808229A71322004F078FAFB685B7928
:102130001946F86800F001F94FF47A7004F06EFA6D
:102140003021F86800F0A9F8052004F067FA302182
:10215000F86800F0A2F8052004F060FA3021F86871
:1021600000F09BF8012004F059FA2021F86800F0F3
:1021700094F8FB689B7943F02003DBB21946F868BA
:1021800000F09FF8FB680422DA71FB68DB7943F00A
:102190000803DBB21946F86800F093F8F86800F01D
:1021A00013F8FB6802221A72FB681B7A43F00403DF
:1021B000DBB21946F86800F084F8C82004F02EFA63
:1021C00000BF1037BD4680BD80B582B000AF7860DB
:1021D0000121786800F075F8022004F01FFA00BFB2
:1021E0000837BD4680BD000080B584B000AF786080
:1021F0000B46FB701346BB700F4BFB607B689B7AF2
:10220000BA789A4203D37B689B7A013BBB70BB7858
:1022100010333B4413F8042CFB781344DBB25BB25D
:1022200063F07F035BB2DBB21946786800F049F8CF
:1022300000BF1037BD4680BD0040145480B582B049
:1022400000AF7860396007E03B685A1C3A601B7841
:102250001946786800F050F83B681B78002BF3D1E2
:1022600000BF00BF0837BD4680BD80B582B000AF5B
:1022700078600B46FB70FB78002B03D07B6808224C
:102280005A7102E07B6800225A710021786800F0E0
:1022900054F800BF0837BD4680BD80B582B000AF9E
:1022A00078600B46FB70FB781946786800F045F8BB
:1022B000FB781946786800F05CF800BF0837BD4627
:1022C00080BD80B584B000AF78600B46FB70FB78B2
:1022D00023F00F03FB73FB781B01BB73FB7B1946D9
:1022E0007868FFF7DAFFBB7B19467868FFF7D5FF00
:1022F00000BF1037BD4680BD80B584B000AF7860A8
:102300000B46FB70FB7823F00F03FB73FB781B017C
:10231000BB73FB7B43F00103DBB219467868FFF720
:10232000BCFFBB7B43F00103DBB219467868FFF7C3
:10233000B4FF00BF1037BD4680BD80B586B002AF88
:1023400078600B46FB707B685A79FB781343DBB2ED
:10235000FB737B6818687B681B79194607F10F02CD
:1023600064230093012307F0D7FB00BF1037BD465D
:1023700080BD80B582B000AF78600B46FB70FB7803
:1023800043F00403DBB219467868FFF7D6FF01205B
:1023900004F044F9FB7823F00403DBB219467868B3
:1023A000FFF7CBFF012004F039F900BF0837BD4625
:1023B00080BD000080B586B000AFF86087ED020AEE
:1023C0000B46FB71D7ED027AFDEEE77A17EE903AF5
:1023D0003B613B6907EE903AF8EEE77A97ED027AB7
:1023E00077EE677A9FED157A67EE877AFDEEE77AEA
:1023F00017EE903A7B617B69002B02DA7B695B42C6
:102400007B61FB79012B0ED17B690D4A82FB0312A4
:102410009210DB17D31A7B617B693A690949F86826
:1024200012F000FD05E07B693A690749F86812F08F
:10243000F9FC00BF1837BD4680BD00BF0000C84290
:1024400067666666387D0108407D010880B483B008
:1024500000AF87ED010AC7ED000AD7ED007ADFED86
:10246000076A87EEA67AD7ED017A77EE277AB0EE83
:10247000670A0C37BD465DF8047B7047CDCC04413C
:10248000F0B59BB004AF786187ED040AC7ED030A8D
:1024900087ED021A084611461A460346FB710B46A1
:1024A000BB7113467B71002200215D48FFF79CFE43
:1024B0007B691B791D467B695B791E467B69DB88DE
:1024C0001A467B699B7819467B695B781C467B6959
:1024D0001B7807F13C00039302940191009233466C
:1024E0002A46504912F09EFC002387F8503007F12D
:1024F0003C0319464A48FFF7A1FE01220021484843
:10250000FFF772FE07F13003012197ED040A184628
:10251000FFF750FF444B1B7819462B20FFF77AF941
:102520000446FB79BA7907F1300107F13C000192CA
:1025300000930B462246192112F03EFC07F13C03A2
:102540001921184602F07CFD07F13C031946344876
:10255000FFF774FE022200213148FFF745FE07F124
:102560002403012197ED020A1846FFF723FF07F124
:102570001803012197ED030A1846FFF71BFF2A4BAA
:102580001B7819462C20FFF745F9014607F1240274
:1025900007F13C0007F11803009313460A4619217E
:1025A00012F00AFC07F13C031921184602F048FD1D
:1025B00007F13C0319461A48FFF740FE03220021A9
:1025C0001748FFF711FE184B1B7819462D20FFF70F
:1025D00021F90146154B1A68154B1B781C46154806
:1025E00023465B0023449B00034408331B6807F128
:1025F0003C00009313460A46192112F0DDFB07F157
:102600003C031921184602F01BFD07F13C03194653
:102610000348FFF713FE00BF5C37BD46F0BD00BFA7
:102620008C030020487D0108D71400209814002056
:10263000080000202481010880B582B000AF7860D6
:102640004FF480537A680449044803F023FD00BF27
:102650000837BD4680BD00BF00F03F007C1400205D
:1026600080B584B000AF78601049114803F0ADFC2C
:102670000023FB6010E0FB6803F57F1101F540517A
:102680007A68FB681A444FF48073094803F0C7FC6A
:10269000FB6803F58073FB60FB68B3F5805FEAD3EA
:1026A00000BF00BF1037BD4680BD00BF00F03F0037
:1026B0007C14002080B5ADF5805D82B000AF02468D
:1026C00007F1080303F8012C07F1080313F8013C94
:1026D000022B04D907F10803002203F8012C07F1AB
:1026E00008031846FFF7A8FF07F108031A4607F189
:1026F000080313F8013C137107F108031846FFF7AC
:10270000AFFF00BF07F580570837BD4680BD80B5D5
:10271000ADF5805D82B000AF07F10803043B1846B9
:10272000FFF78AFF07F108031B7807F5805202F1D3
:102730000702137007F5805303F107031B78FF2B83
:1027400006D007F5805303F107031B78022B01D94C
:10275000002304E007F5805303F107031B781846B4
:1027600007F580570837BD4680BD80B5ADF5805D63
:1027700082B000AF024607F1080323F8022C07F1EC
:10278000080333F9023C002B04DA07F108030022A6
:1027900023F8022C07F1080333F9023C41F2883296
:1027A000934205DD07F1080341F2883223F8022C39
:1027B00007F108031846FFF73FFF07F1080333F856
:1027C000022C07F108031A8107F108031846FFF7E6
:1027D00047FF00BF07F580570837BD4680BD80B56D
:1027E000ADF5805D82B000AF07F108031846FFF732
:1027F00023FF07F108031A8907F1080323F8022CC5
:1028000007F1080333F9023C002B07DB07F108034B
:1028100033F9023C41F28832934201DD0B2303E09D
:1028200007F1080333F9023C184607F580570837CB
:10283000BD4680BD80B5ADF5805D82B000AF02467B
:1028400007F1080303F8012C07F108031846FFF706
:10285000F3FE07F108031A4607F1080313F8013CD9
:10286000137007F108031846FFF7FAFE00BF07F5DB
:1028700080570837BD4680BD80B5ADF5805D82B01C
:1028800000AF07F10803043B1846FFF7D5FE07F138
:10289000080313F8043C07F5805202F10702137095
:1028A00007F5805303F107031B78FF2B06D007F5CC
:1028B000805303F107031B78012B01D9012304E0A6
:1028C00007F5805303F107031B78184607F5805777
:1028D0000837BD4680BD000080B483B000AF03461A
:1028E000FB710A4AFB791370FA79094913465B00B8
:1028F00013449B000B4404331B68064A136000BF5B
:102900000C37BD465DF8047B704700BF080000200F
:10291000248101080000002080B584B000AF0023AE
:10292000FB600023FB7213E01A4803F0DFFE642112
:10293000184803F0C2FF174804F05AF90246FB6832
:102940001344FB60134803F085FFFB7A0133FB72ED
:10295000FB7A092BE8D9FB680F4AA2FB0323DB08AB
:10296000FB60FB6807EE903AB8EE677ADFED0B6A22
:10297000C7EE267A9FED0A7A67EE877A77EEA77A16
:10298000C7ED017A7B6807EE903AB0EE670A103720
:10299000BD4680BD20020020CDCCCCCC00F07F45D0
:1029A0003333534080B485B000AF87ED010AD7EDD3
:1029B000017A9FED197AF4EEC77AF1EE10FA01DB95
:1029C000642322E0D7ED017AB0EE087AF4EEC77AFC
:1029D000F1EE10FA01D8002317E0D7ED017AB0EE3E
:1029E000087A37EEC77ADFED0D6AC7EE267A9FEDDB
:1029F0000C7A67EE877AC7ED037AD7ED037AFCEE9F
:102A0000E77AC7ED007A3B78DBB218461437BD464B
:102A10005DF8047B704700BF666686409899993FD1
:102A20000000C842B0B59AB004AFAC48FFF7CCFB89
:102A300000220021A948FFF7D7FBA94B1B781946B4
:102A40001420FEF7E7FE03461946A448FFF7F6FBFD
:102A500001220021A148FFF7C7FBA14B1B781946B3
:102A60001520FEF7D7FE034619469C48FFF7E6FB04
:102A7000022200219948FFF7B7FB994B1B781946B2
:102A80001620FEF7C7FE034619469448FFF7D6FB0B
:102A90004FF4FA6003F0C2FD9048FFF795FB002267
:102AA00000218E48FFF7A0FB8D4B1B7819461420A0
:102AB000FEF7B0FE034619468848FFF7BFFB03F058
:102AC000A1FD7865874803F0B7FB002387F85330F2
:102AD000CDE097F85330002B0CD002E00A2003F031
:102AE0009DFD03F08FFD02467B6DD31A41F28732C4
:102AF0009342F3D903F086FD78657B48FEF7C2FA6E
:102B000087ED130A7848FEF707FB87ED120A03F0FA
:102B100079FD7864754B1B7887F85230744B1B68CD
:102B20007A6CD31A41F28732934210D97148FEF77A
:102B300009FC0346002B07D06E4BDB7987F8523037
:102B40006A4A97F852301370694A7B6C1360FFF73A
:102B5000E3FE87ED100A97ED100AFFF723FF034607
:102B600087F83F30644A97F83F30137007F1340319
:102B700019466248FEF7F1FDFB6C3B62BB6C7B6261
:102B800097F8523087F8283097F83F3087F8293087
:102B900007F12A0207F1340303CB1060516007F1FB
:102BA0002003142219464F4803F01CFB4D4803F044
:102BB0006DFC012200214948FFF716FB484B1B78AA
:102BC00019461720FEF726FE024697F853300133C8
:102BD000381D192112F0F0F83B1D1921184602F09A
:102BE0002FFA3B1D19463D48FFF728FB0222002122
:102BF0003A48FFF7F9FAF86CFDF7AEFC04460D46CB
:102C0000B86CFDF7A9FC02460B46381DCDE902233E
:102C1000CDE900453A4A192112F0CEF83B1D1921A1
:102C2000184602F00DFA3B1D19462C48FFF706FB2B
:102C3000032200212948FFF7D7FA97F8522097F886
:102C40003F30381D009313462E4A192112F0B4F874
:102C50003B1D1921184602F0F3F93B1D19461F4888
:102C6000FFF7ECFA97F85330013387F8533097F8B1
:102C70005330092B7FF62DAF1848FFF7A5FA012234
:102C800000211648FFF7B0FA154B1B78194618209B
:102C9000FEF7C0FD034619461048FFF7CFFA02229F
:102CA00000210E48FFF7A0FA0D4B1B78194619209A
:102CB000FEF7B0FD034619460848FFF7BFFA40F695
:102CC000B83003F0ABFC104B00221A700348FFF73A
:102CD0007BFA00BF5837BD46B0BD00BF8C03002053
:102CE000D71400207C1400205C030020A0140020D6
:102CF0009C14002078030020B414002068020020F7
:102D0000687D01087C7D0108B814002080B5C0B042
:102D100002AF03F011FC00F081FE00F09DFF00F017
:102D2000E9FE0AF01FFE10F067FF00F047FF00F019
:102D30000FFF01F015F804231422C749C748FFF715
:102D4000D5F9C648FFF740FA0121C448FFF78DFACC
:102D5000C148FEF797FC00220021C048FFF744FA63
:102D6000BF49BE48FFF76AFA01220021BB48FFF7BE
:102D70003BFABC49B948FFF761FA02220021B74883
:102D8000FFF732FAB849B548FFF758FA4FF4FA603E
:102D900003F044FCB148FFF717FA00220021AF48C6
:102DA000FFF722FAB149AD48FFF748FA4FF48053D4
:102DB000AF4AB049B04803F0CCF8322003F02EFC03
:102DC000FFF7A5FC03461A46AC4B1A70FFF707FD48
:102DD00003461A46AA4B1A80AA4801F03BF84FF462
:102DE0007A7003F01BFCA44803F03EFA0346002B64
:102DF00005D1A14B0022DA609F4B00221A619E4848
:102E000003F006FB0346002B06D19B4B4FF4001248
:102E10005A61994B00229A61974803F0D7F903460B
:102E2000994A1360662387F8B730992387F8B6303C
:102E300000224FF480518E4804F0DCFB07F1B7010B
:102E4000642301228B4808F094FB01224FF4805147
:102E5000874804F0CFFB0A2003F0E0FB00224FF488
:102E60008051834804F0C6FB07F1B60164230122B8
:102E7000804808F07EFB01224FF480517C4804F02A
:102E8000B9FB642003F0CAFB9F2387F8B53007F134
:102E9000B00300210A461A800A469A7000224FF4B5
:102EA0008051734804F0A6FB07F1B50164230122A9
:102EB000704808F05EFB07F1B001642303226D48FF
:102EC00008F09BFC01224FF48051694804F092FB0A
:102ED000012200216148FFF787F997F8B030EF2B06
:102EE00008D197F8B230162B04D168495B48FFF738
:102EF000A5F935E097F8B030EF2B08D197F8B2304C
:102F0000152B04D162495548FFF798F928E097F846
:102F1000B030EF2B0FD197F8B2301A4607F15C03AF
:102F20005C49184611F07EFF07F15C0319464B48D7
:102F3000FFF784F914E097F8B0301A4697F8B130EB
:102F4000194697F8B23007F1400000930B465249FA
:102F500011F068FF07F1400319464048FFF76EF98A
:102F60004FF4FA6003F05AFB022200213B48FFF7BE
:102F70003BF9424B1B7819460620FEF74BFC0346F3
:102F800019463648FFF75AF9FFF776FC03461A460A
:102F9000424B1A70414B1B781846FFF79DFC64208A
:102FA00003F03CFB354B1B7819460720FEF732FC3B
:102FB00002463A4B1B781846394903465B000344E6
:102FC0009B000B4408331B6807F19400192111F092
:102FD000F3FE002387F8A830022200211F48FFF7E4
:102FE00003F907F1940319461C48FFF727F94FF43A
:102FF000FA6003F013FB1948FFF7E6F800220021FE
:103000001648FFF7F1F81D4B1B7819460820FEF70C
:1030100001FC034619461148FFF710F90E48FEF768
:1030200031FB034683F00103DBB2002B3AD00122CF
:1030300000210A48FFF7D8F8104B1B7819460A20E0
:10304000FEF7E8FB034619460448FFF7F7F84FF48C
:103050007A7003F0E3FA39E0680200208C03002064
:103060008C7D0108A07D0108B47D0108C47D0108A4
:1030700000040240BC0200207C140020D714002071
:103080000A000020B814002098140020DC7D0108FC
:10309000F07D0108047E01081C7E01080800002064
:1030A00024810108012200212048FFF79DF8204BD0
:1030B0001B7819460920FEF7ADFB034619461B484D
:1030C000FFF7BCF84FF47A7003F0A8FA022200214F
:1030D0001648FFF789F8164B1B7819460B20FEF7A8
:1030E00099FB034619461148FFF7A8F80322114936
:1030F0001148FDF731FF0346002B1FD10B48FFF7A6
:1031000063F8012200210948FFF76EF8084B1B788D
:1031100019460D20FEF77EFB034619460348FFF7CC
:103120008DF8642003F07AFAFBE700BF8C030020DF
:10313000D7140020680200205C0300200222002136
:10314000CA48FFF751F8CA4B1B7819460C20FEF706
:1031500061FB03461946C548FFF770F84FF47A70D3
:1031600003F05CFA03220021C048FFF73DF8C04B92
:103170001B7819460E20FEF74DFB03461946BB4847
:10318000FFF75CF80422BB49BB48FEF7BFF80322F7
:103190000021B648FFF728F8B54B1B7819460F20D9
:1031A000FEF738FB03461946B048FFF747F84FF4DF
:1031B0007A7003F033FA41F28831B04802F0B6F980
:1031C000AA48FFF701F801220021A848FFF70CF8F0
:1031D000A74B1B7819461120FEF71CFB0346194626
:1031E000A248FFF72BF840F2DC5003F017FA9F4893
:1031F000FEF7EAFF012200219C48FEF7F5FF9C4BF9
:103200001B7819461220FEF705FB0346194697481E
:10321000FFF714F8022200219448FEF7E5FF944BD3
:103220001B7819461320FEF7F5FA034619468F4816
:10323000FFF704F89248FDF725FF87ED3C0A904818
:10324000FDF76AFF87ED3B0A002387F8F7308A48CD
:10325000FEF778F80346002B07D0874BDB7987F819
:10326000F730884A97F8F730137003F0CBF903462C
:10327000854A1360FFF750FB87ED3A0A97ED3A0A4B
:10328000FFF790FB03461A46804B1A7007F18C0338
:1032900019467F48FEF761FA7E4AD7F8F03013608E
:1032A0007D4AD7F8EC3013607C4BB3F9003007EE61
:1032B000903AF8EEE77AF0EE670A97ED3B0AFFF7EF
:1032C000C5F8F0EE407A764BC3ED007AD7F8F030CF
:1032D000BB67D7F8EC30FB6797F8F73087F880309A
:1032E0006A4B1B7887F8813007F1820207F18C0363
:1032F00003CB1060516007F1780314221946694826
:1033000002F048FF684B1B680133674A1360664B45
:103310001968664BA3FB0123DA0813469B0013448C
:103320005B00CA1A002A02D15E4802F0D5FF0222D1
:1033300000214E48FEF758FF5D494C48FEF77EFFDE
:103340004FF47A7003F06AF94848FEF73DFF03F046
:1033500059F90346574A136010F074FC03F052F910
:10336000C7F8E400544B1B78002B40F0CD80514B44
:103370001B68D7F8E420D21A504B1B689A42C0F061
:10338000C3804D4B01221A704A4AD7F8E4301360CB
:103390003B48FDF777FE87ED380A3948FDF7BCFE5C
:1033A00087ED370A374B1B7887F8F630364B1B68AA
:1033B000D7F8E420D31A41F28732934215D92E4828
:1033C000FDF7C0FF034687F8DB3097F8DB30002BB2
:1033D00007D0294BDB7987F8F6302A4A97F8F63080
:1033E0001370294AD7F8E4301360FFF795FA87ED98
:1033F000350A97ED350AFFF7D5FA034687F8D3303B
:10340000224A97F8D330137007F138031946204841
:10341000FEF7A3F91F4AD7F8E03013601E4AD7F829
:10342000DC3013601D4BB3F9003007EE903AF8EE34
:10343000E77AF0EE670A97ED370AFFF707F8F0EE44
:10344000407A174BC3ED007AD7F8E0307B62D7F8AB
:10345000DC30BB6297F8F63087F82C3097F8D33021
:1034600087F82D3007F12E022AE000BF8C030020E0
:10347000D7140020000002407803002098030020A9
:103480005C030020A01400209C140020B414002031
:1034900068020020A8140020AC1400200A000020BC
:1034A000B01400207C14002098140020CDCCCCCC8B
:1034B000347E0108D8140020DC1400200000002015
:1034C00007F1380303CB1060516007F12403142285
:1034D00019467B4802F05EFE7A4B1B680133794A3D
:1034E0001360784B1968784BA3FB0123DA08134665
:1034F0009B0013445B00CA1A002A02D1704802F0F4
:10350000EBFE724B00221A70714800F011FD034669
:10351000002B5ED06F4B1B68D7F8E420D31AB3F5AD
:10352000FA6F56D36B4AD7F8E43013606A48FDF758
:10353000A9FD87ED330A6848FDF7EEFD87ED320AF5
:10354000664B1B7887F8C730654B1B68D7F8E420BB
:10355000D31A41F28732934215D96248FDF7F2FE41
:10356000034687F8C63097F8C630002B07D05D4B6E
:10357000DB7987F8C730594A97F8C7301370584A33
:10358000D7F8E4301360FFF7C7F987ED300A97EDFD
:10359000300AFFF707FA03461A46534B1A70534A8C
:1035A000D7F8CC301360524AD7F8C8301360514B6B
:1035B000B3F9003007EE903AF8EEE77AF0EE670ADA
:1035C00097ED320AFEF742FFF0EE407A4A4BC3ED28
:1035D000007A4A4801F0F2FF494B1B78022B23D1B5
:1035E000484B1B78002B1FD1474B1B78002B1BD15E
:1035F000444B01221A70444B01221A70434B0022A3
:103600001A704348FEF7E0FD002200214048FEF713
:10361000EBFD404B1B7819460020FEF7FBF80346F4
:1036200019463B48FEF70AFE354B1B78022B0CD09F
:10363000344B00221A70344B1B78002B05D0324BD0
:1036400000221A703248FEF7BFFD2F4B1B78002B6B
:1036500000F07B81022200212D48FEF7C5FD2B4B97
:103660001B78002B0BD12B4B1B7819462420FEF71F
:10367000D1F8034619462648FEF7E0FD0AE0254B3F
:103680001B7819462220FEF7C5F803461946204844
:10369000FEF7D4FD032200211D48FEF7A5FD1B4BBC
:1036A0001B78012B38D11B4B1B7819462520FEF7C0
:1036B000B1F8034619461648FEF7C0FD37E000BFD3
:1036C0007C14002098140020CDCCCCCCDC1400203D
:1036D000B8140020E01400205C030020A014002097
:1036E0009C14002078030020B4140020A8140020AB
:1036F000AC1400200A000020B01400209803002021
:103700003C2B0020D6140020D4140020D514002017
:103710008C030020D7140020AB4B1B7819462320C4
:10372000FEF778F803461946A848FEF787FD022100
:10373000A74803F047FF0346002B10D1A54B1B7889
:10374000002B0CD1A34B01221A70A34B1B78002B2A
:1037500005D0A14B1B78013BDAB29F4B1A700221B6
:103760009B4803F02FFF0346012B02D1994B002207
:103770001A700821964803F025FF0346002B10D14C
:10378000964B1B78002B0CD1944B01221A70924B54
:103790001B78002B05D1904B1B780133DAB28E4B8E
:1037A0001A7008218A4803F00DFF0346012B02D14D
:1037B0008A4B00221A700121854803F003FF03465B
:1037C000002B40F0B780864B1B78002B40F0B28076
:1037D000834B01221A70804B1B78002B40F0A48091
:1037E000804802F0F3FCC7F8BC007E4802F018FDE8
:1037F000C7F8B800D7F8BC30002B1BD1D7F8B830C9
:10380000002B17D17148FEF7DFFC012200216F4821
:10381000FEF7EAFC6C4B1B7819460520FDF7FAFF12
:10382000034619466948FEF709FD4FF4FA6002F0B5
:10383000F5FE79E06548FEF7C7FC002200216348E9
:10384000FEF7D2FC604B1B7819460120FDF7E2FF22
:10385000034619465D48FEF7F1FC012200215B4852
:10386000FEF7C2FC381DD7F8B830D7F8BC205E4947
:1038700011F0D8FA3B1D19465448FEF7DFFC02222E
:1038800000215248FEF7B0FC4F4B1B78194602202E
:10389000FDF7C0FF034619464C48FEF7CFFC012355
:1038A00087F8F530012387F8F430D7F8BC30002BC7
:1038B00005D04E4801F0A2FF034687F8F530D7F84F
:1038C000B830002B05D0494802F05AF9034687F872
:1038D000F4303E48FEF778FC012200213B48FEF719
:1038E00083FC97F8F530002B0FD097F8F430002BBD
:1038F0000BD0354B1B7819460320FDF78BFF034691
:1039000019463248FEF79AFC0AE02F4B1B781946FD
:103910000420FDF77FFF034619462C48FEF78EFC76
:1039200040F6B83002F07AFE314B00221A70274878
:10393000FEF74AFC0121264803F044FE0346012B12
:103940003ED1274B00221A703AE02A4B2A4A1F49DF
:103950002A4800F0FFFA294B1B78042B01D1FFF70E
:1039600061F8264800F0E4FA0346002B28D0244BE7
:103970001B68D7F8E420D21A224B1B689A421FD347
:103980001F4AD7F8E43013601A491B48FDF7E5FEDB
:103990001D4BD3ED007A1D4B93ED007A1C4BD3EDFC
:1039A000006A1C4B19781C4B1A78104B1B78B0EE30
:1039B000661AF0EE470AB0EE670A0E48FEF760FDA1
:1039C0000A2002F02BFEC7E4D71400208C0300204D
:1039D00000000240E4140020D5140020E51400206B
:1039E000E61400207C1400204C7E0108980300207F
:1039F000D41400208403002068020020B8140020A2
:103A0000A414002004000020A8140020AC140020FE
:103A1000B0140020A0140020B414002080B594B08D
:103A200000AF07F1200330220021184611F05FFAA1
:103A300007F10C0300221A605A609A60DA601A617A
:103A40000023BB60294B1B6C284A43F0805313644E
:103A5000264B1B6C03F08053BB60BB6800237B606C
:103A6000234B1B6823F44043214A43F40043136073
:103A70001F4B1B6803F440437B607B6801233B6260
:103A80004FF480337B620223BB634FF48003FB63FC
:103A900019233B644FF4A8737B640423BB6407239E
:103AA000FB6407F12003184607F096F80346002B45
:103AB00001D000F0A7F90F23FB6002233B61002334
:103AC0007B614FF48053BB610023FB6107F10C0362
:103AD0000221184607F0F8FA0346002B01D000F047
:103AE00091F900BF5037BD4680BD00BF003802408D
:103AF0000070004080B500AF124B134A1A60114BA2
:103B0000124A5A600F4B00229A600E4B0022DA6074
:103B10000C4B4FF480421A610A4B00225A61094B48
:103B200000229A61074B0022DA61064B00221A62DA
:103B3000044805F0ADFE0346002B01D000F062F909
:103B400000BF80BD6802002000540040A086010034
:103B500080B500AF174B184A1A60164B4FF48272AB
:103B60005A60144B00229A60124B0022DA60114B0B
:103B700000221A610F4B00225A610E4B4FF4007263
:103B80009A610C4B1022DA610A4B00221A62094B2F
:103B900000225A62074B00229A62064B0A22DA621E
:103BA000044807F05DFC0346002B01D000F02AF921
:103BB00000BF80BDBC0200200038004080B586B048
:103BC00000AF07F1080300221A605A609A60DA60B9
:103BD0003B4600221A605A601E4B4FF080421A602A
:103BE0001C4B4AF20F425A601A4B00229A60194B42
:103BF00040F2E732DA60174B00221A61154B80223F
:103C00009A61144808F0FEF90346002B01D000F039
:103C1000F9F84FF48053BB6007F1080319460D48CB
:103C200008F02FFB0346002B01D000F0EBF8002337
:103C30003B6000237B603B461946064808F03AFD8E
:103C40000346002B01D000F0DDF800BF1837BD4659
:103C500080BD00BF1403002080B588B000AF07F11D
:103C60000C0300221A605A609A60DA601A6100231D
:103C7000BB60384B1B6B374A43F080031363354BF3
:103C80001B6B03F08003BB60BB6800237B60314B80
:103C90001B6B304A43F0010313632E4B1B6B03F085
:103CA00001037B607B6800233B602A4B1B6B294A26
:103CB00043F002031363274B1B6B03F002033B60CB
:103CC0003B6801224FF48051234803F093FC3B23CF
:103CD000FB6000233B6101237B6107F10C03194664
:103CE0001E4803F0EBFA0423FB6000233B61002332
:103CF0007B6107F10C031946184803F0DFFA4FF413
:103D00008053FB6001233B6100237B610323BB6184
:103D100007F10C031946104803F0D0FA0423FB60A6
:103D200000233B6100237B6107F10C0319460B481C
:103D300003F0C4FA3B23FB6000233B6101237B615A
:103D400007F10C031946054803F0B8FA00BF203705
:103D5000BD4680BD00380240000402400000024021
:103D600080B584B000AF3B4600221A605A609A606A
:103D7000DA60214B214A1A601F4B4FF480325A609F
:103D80001D4B00229A601C4B00221A611A4B002224
:103D90001A76194B002283F82020174B0022DA6292
:103DA000154B174A9A62144B0022DA60124B01221B
:103DB000DA61114B002283F830200F4B01225A6147
:103DC0000D4802F04FFC0346002B01D000F01AF81A
:103DD00007233B6001237B600023BB603B46194601
:103DE000054802F031FF0346002B01D000F00AF82D
:103DF00000BF1037BD4680BD2002002000200140DA
:103E00000100000F80B400AF72B600BF00BFFDE735
:103E100080B483B000AF0346FB71FB79022B0AD05C
:103E2000022B0ADC002B02D0012B02D005E0064B4E
:103E300004E0064B02E0064B00E0034B18460C374B
:103E4000BD465DF8047B7047647E0108707E010802
:103E50007C7E010880B483B000AF78607B6800226C
:103E60001A707B6800225A707B6800229A707B6807
:103E700000225A607B6800221A72104B1A787B6805
:103E80009A747B6800229A757B6800225A750C4BE5
:103E9000B3F900207B681A830A4B1A787B68DA74BE
:103EA0007B68DB7C022B02D97B680022DA7400BFBE
:103EB0000C37BD465DF8047B704700BF080000204A
:103EC0000A000020D714002080B500AF0121174858
:103ED00003F078FB0346002B01D1012324E00221EB
:103EE000124803F06FFB0346002B01D102231BE0B5
:103EF00008210E4803F066FB0346002B01D1032383
:103F000012E01021094803F05DFB0346002B01D1AC
:103F1000042309E02021054803F054FB0346002B4D
:103F200001D1052300E00023184680BD00000240B7
:103F300080B483B000AF78607B681B78002B0CBF27
:103F400001230023DBB218460C37BD465DF8047B25
:103F50007047000080B588B002AFF860B9607A6041
:103F60003B60FFF7B1FF0346FB75FB7D002B0BD0D9
:103F700002F048FB3861FB685B683A69D31A272B6B
:103F80005AD9FB683A695A60FB681B78072B55D8E9
:103F900001A252F823F000BFB93F0008E13F00083A
:103FA000F33F0008014000083D4000080F400008B2
:103FB0002B4000081D400008FB7D012B40D1FB6811
:103FC00001221A70FB6800225A70FB6800229A7561
:103FD000B868FEF7F9F8B968F86800F055F92FE00D
:103FE000F97D3B6800937B68BA68F86800F012FAC4
:103FF00027E0F97D7B68BA68F86800F071FE20E080
:10400000FB7DBA681946F86800F01EF819E0FB7DE0
:10401000BA681946F86800F021FB12E0FB7DBA6827
:104020001946F86800F0E2FB0BE0FB7DBA68194620
:10403000F86800F07DF904E000BF02E000BF00E096
:1040400000BF1837BD4680BD80B584B000AFF860B2
:104050000B467A60FB72FB7A013B042B59D801A214
:1040600052F823F0B5400008794000089740000856
:104070000541000805410008FB689B7C002B4AD0E5
:10408000FB689B7C013BDAB2FB689A747968F8683C
:1040900000F0D0FD3FE0FB689B7C002B3DD1FB682E
:1040A0009B7C0133DAB2FB689A747968F86800F097
:1040B000C1FD32E0FB689B7C1846FEF70DFCFB68F7
:1040C0009B7C1846FEF7B6FB7868FEF77DF8012268
:1040D00000217868FEF788F8124B1B7819462A20D1
:1040E000FDF798FB034619467868FEF7A7F84FF4EA
:1040F000487002F093FAFB6800221A707868FEF7A5
:1041000063F80BE0FB6800221A707868FEF75CF831
:1041100004E000BF02E000BF00E000BF00BF1037B6
:10412000BD4680BDD714002080B58CB002AF78604A
:104130003960002200213868FEF756F8324B1B78B0
:1041400019462E20FDF766FB034619463868FEF730
:1041500075F8012200213868FEF746F82A4B1B78D3
:1041600019462F20FDF756FB034619463868FEF71F
:1041700065F8254B1B7819463020FDF74BFB78621C
:10418000214B1B7819463120FDF744FB38627B68D0
:104190005B7D002B09D107F108003B6A00937B6A25
:1041A0001A4A152110F008FE08E007F108003B6AE2
:1041B00000937B6A164A152110F0FEFD07F10803F3
:1041C0001521184600F03CFF022200213868FEF756
:1041D0000BF807F1080319463868FEF72FF8032299
:1041E00000213868FEF700F8074B1B781946352088
:1041F000FDF710FB034619463868FEF71FF800BFAD
:104200002837BD4680BD00BFD7140020847E01083A
:10421000987E010880B58AB000AF786008461146E4
:104220001A460346FB700B46BB7013467B70154B5A
:104230001A78BB7811461846FDF7ECFA786207F158
:104240000C031422796A184610F068FE002387F8E0
:1042500020307B78002B04D13B7B3E2B01D12023E7
:104260003B73FB781A4600217868FDF7BDFF07F124
:104270000C0319467868FDF7E1FF00BF2837BD46FB
:1042800080BD00BFD714002080B584B000AF786037
:1042900039607B685A787B689B7D9A4204D27B6840
:1042A0005A787B689A750CE07B689B7D03337A684B
:1042B0005278934205DA7B685B78033BDAB27B681D
:1042C0009A750023FB7326E07B689A7DFB7B134481
:1042D000BB73BB7B052B11D87B685B78BA7B9A429A
:1042E0000CBF01230023DBB27B73BB7B0E4AD25C85
:1042F0007B7BF97B3868FFF78DFF09E0FB7B1A4673
:1043000000213868FDF770FF08493868FDF796FF0F
:10431000FB7B0133FB73FB7B032BD5D900BF00BFB5
:104320001037BD4680BD00BF3C810108AC7E01084E
:1043300080B584B000AFF8600B467A60FB72FB7A00
:10434000012B10D0002B5ADD043B012B57D8FB6802
:104350005B7DC3F10103DAB2FB685A757968F868CE
:10436000FFF7E2FE4CE0FB685B7D002B0AD1FB68A7
:1043700001221A707868FDF727FF7968F868FFF75F
:1043800083FF3DE07868FDF71FFF01220021786878
:10439000FDF72AFF1C4B1B7819463420FDF73AFA2B
:1043A000034619467868FDF749FF962002F036F972
:1043B000164801F096FD154801F03EFF144B00220F
:1043C0001A607868FDF700FF012200217868FDF788
:1043D0000BFF0D4B1B7819463220FDF71BFA0346E5
:1043E00019467868FDF72AFF4FF4966002F016F937
:1043F000FB6800221A707868FDF7E6FE00E000BF57
:104400001037BD4680BD00BFD71400207C140020AB
:104410009814002080B584B000AFF8607A603B60EB
:104420000B46FB72FB7A013B042B00F2AB8001A22E
:1044300052F823F089440008494400086944000800
:104440007745000877450008FB685B78002B00F093
:104450009B80FB685B78013BDAB2FB685A70796835
:10446000F868FFF711FF8FE0FB685B78042B00F220
:104470008D80FB685B780133DAB2FB685A7079682B
:10448000F868FFF701FF81E0FB685B78002B14D12F
:10449000FB6802221A70FB6800229A70FB680A33DC
:1044A0000822B969184610F0E0FD7868FDF78CFE27
:1044B0007968F86800F014FA6AE0FB685B78012B11
:1044C0000ED1FB6803221A70344B1A78FB689A7479
:1044D0007868FDF779FE7968F86800F0ABFB57E083
:1044E000FB685B78022B15D1FB6805221A702C4BF8
:1044F0001A78FB68DA74FB68DB7C022B02D9FB6854
:104500000022DA747868FDF75FFE7968F86800F0D9
:104510004BF83DE0FB685B78032B0FD1FB6807226B
:104520001A70204BB3F90020FB681A837868FDF7F6
:104530004BFE7968F86800F001F929E0FB685B78C8
:10454000042B06D1FB6804221A707868FDF73CFE44
:104550001EE0FB685B78052B1AD1FB6806221A70F7
:10456000FB6800225A757868FDF72EFE7968F868B6
:10457000FFF7DAFD0CE0FB6800221A707868FDF79F
:1045800023FE06E000BF04E000BF02E000BF00E041
:1045900000BF00BF1037BD4680BD00BF080000202F
:1045A000D71400200A00002080B588B000AF7860E2
:1045B0003960002200213868FDF716FE254B1B7874
:1045C00019463620FDF726F9034619463868FDF7E7
:1045D00035FE012200213868FDF706FE1D4B1B78D1
:1045E00019463720FDF716F9034619463868FDF7D6
:1045F00025FE022200213868FDF7F6FD7B68DB7C92
:104600001846FFF705FC034607F10800124A15217A
:1046100010F0D2FB07F108031521184600F010FD39
:1046200007F1080319463868FDF708FE0322002148
:104630003868FDF7D9FD074B1B7819463820FDF780
:10464000E9F8034619463868FDF7F8FD00BF203742
:10465000BD4680BDD7140020C47E010880B584B05B
:1046600000AFF8600B467A60FB72FB7A013B042BCB
:1046700058D801A252F823F0C94600088D46000818
:10468000AB4600081747000817470008FB68DB7CAB
:10469000002B49D0FB68DB7C013BDAB2FB68DA74A3
:1046A0007968F868FFF780FF3EE0FB68DB7C012B50
:1046B0003CD8FB68DB7C0133DAB2FB68DA747968DA
:1046C000F868FFF771FF31E0FB68DA7C1A4B1A706B
:1046D000194B1B781846FDF7EDFF7868FDF774FD60
:1046E000012200217868FDF77FFD134B1B781946E6
:1046F0003920FDF78FF8034619467868FDF79EFDCF
:104700004FF4487001F08AFFFB6800221A70786845
:10471000FDF75AFD0BE0FB6800221A707868FDF780
:1047200053FD04E000BF02E000BF00E000BF00BF97
:104730001037BD4680BD00BFD714002080B588B0BB
:1047400000AF78603960002200213868FDF74CFD29
:10475000244B1B7819463B20FDF75CF803461946AD
:104760003868FDF76BFD012200213868FDF73CFD3C
:104770001C4B1B7819463C20FDF74CF803461946A4
:104780003868FDF75BFD7B68B3F9183007F1080066
:10479000154A152110F010FB07F1080315211846E2
:1047A00000F04EFC022200213868FDF71DFD07F1E4
:1047B000080319463868FDF741FD032200213868D7
:1047C000FDF712FD074B1B7819463D20FDF722F837
:1047D000034619463868FDF731FD00BF2037BD4656
:1047E00080BD00BFD7140020D07E010880B584B002
:1047F00000AFF8600B467A60FB72FB7A013B042B3A
:1048000064D801A252F823F06D4800081D48000842
:1048100047480008BF480008BF480008FB68B3F9D4
:10482000183041F28732934208DCFB68B3F9183044
:104830009BB201339BB21AB2FB681A837968F8689D
:10484000FFF77CFF43E0FB68B3F91830002B08DD6D
:10485000FB68B3F918309BB2013B9BB21AB2FB68FC
:104860001A837968F868FFF769FF30E0FB68B3F9ED
:104870001820194B1A80184BB3F900301846FDF771
:1048800074FF7868FDF7A0FC012200217868FDF72D
:10489000ABFC124B1B7819463E20FCF7BBFF0346CE
:1048A00019467868FDF7CAFC4FF4487001F0B6FE6F
:1048B000FB6800221A707868FDF786FC07E0FB6849
:1048C00000221A707868FDF77FFC00E000BF00BF8F
:1048D0001037BD4680BD00BF0A000020D71400205D
:1048E00080B5A2B002AF786039600022002138683C
:1048F000FDF77AFCC44B1B7819461F20FCF78AFF92
:10490000034619463868FDF799FC002387F84C30B8
:104910007B689B78002B09D17B681B8A1A4607F1BC
:104920006403BA49184610F07DFA08E07B681B8AD8
:104930001A4607F16403B649184610F073FA07F1F6
:10494000640207F14C031146184610F0D8FA07F13B
:104950004C031846FBF794FC03461A4607F14C0338
:104960001344AC491A460B461B8813807B689B781E
:10497000012B09D17B68DB7B1A4607F16403A6494A
:10498000184610F04FFA08E07B68DB7B1A4607F107
:104990006403A249184610F045FA07F1640207F1D2
:1049A0004C031146184610F0AAFA07F14C031846BA
:1049B000FBF766FC03461A4607F14C03134495497E
:1049C0001A460B461B8813807B689B78022B09D103
:1049D0007B689B7B1A4607F164038F49184610F0E9
:1049E00021FA08E07B689B7B1A4607F164038B4938
:1049F000184610F017FA07F1640207F14C0311464C
:104A0000184610F07CFA07F14C031521184600F007
:104A100017FB012200213868FDF7E6FB07F14C0384
:104A200019463868FDF70AFC002387F834307B68A4
:104A30009B78032B09D17B681B7B1A4607F1640323
:104A40007549184610F0EEF908E07B681B7B1A46A2
:104A500007F164037149184610F0E4F907F16402A4
:104A600007F134031146184610F049FA07F13403F0
:104A70001846FBF705FC03461A4607F134031344B6
:104A800067491A460B461B8813807B689B78042B6A
:104A900009D17B68DB7A1A4607F164035E49184640
:104AA00010F0C0F908E07B68DB7A1A4607F164036E
:104AB0005A49184610F0B6F907F1640207F13403B9
:104AC0001146184610F01BFA07F134031846FBF79D
:104AD000D7FB03461A4607F13403134450491A46DC
:104AE0000B461B8813807B689B78052B09D17B685C
:104AF0009B7A1A4607F164034749184610F092F969
:104B000008E07B689B7A1A4607F16403434918461C
:104B100010F088F907F1640207F1340311461846D2
:104B200010F0EDF907F134031521184600F088FA6A
:104B3000022200213868FDF757FB07F134031946BC
:104B40003868FDF77BFB00233B772F4B1B7819461A
:104B50002020FCF75FFE034607F11400314A0821CC
:104B600010F02AF9284B1B7819462120FCF752FE39
:104B7000034607F108002B4A0A2110F01DF97B6853
:104B80009B78062B0CD107F11403013307F11C00AD
:104B900007F108020092244A152110F00DF91EE0D9
:104BA0007B689B78072B0ED107F11402013207F1C5
:104BB0000803013307F11C00009313461B4A15211B
:104BC00010F0FAF80BE007F11403013307F11C00B1
:104BD00007F108020092164A152110F0EDF807F1CE
:104BE0001C031521184600F02BFA03220021386817
:104BF000FDF7FAFA07F11C0319463868FDF71EFBAA
:104C000000BF8037BD4680BDD7140020DC7E010880
:104C1000E47E0108EC7E0108F07E0108F87E0108C0
:104C2000007F0108047F0108087F0108147F010844
:104C3000207F010880B58AB000AF786039607B685A
:104C40009B7C012B02D97B6800229A7400220021F0
:104C50003868FDF7C9FA1F4B1B7819462820FCF766
:104C6000D9FD034619463868FDF7E8FA022200210B
:104C70003868FDF7B9FA7B689B7C1946164A0B46E3
:104C80005B000B449B00134408331A6807F10C03C4
:104C90001249184610F0C6F8002387F8203007F1B3
:104CA0000C0319463868FDF7C9FA03220021386859
:104CB000FDF79AFA074B1B7819462920FCF7AAFD45
:104CC000034619463868FDF7B9FA00BF2837BD46D4
:104CD00080BD00BFD7140020248101082C7F01086B
:104CE00080B584B000AFF8607A603B600B46FB7221
:104CF000FB7A013B042B00F28D8001A252F823F0D5
:104D0000814D0008154D00082D4D0008634D000829
:104D1000454D0008FB689B78052B7DD8F86800F0AE
:104D20008BF87968F868FFF7DBFD75E0FB689B7826
:104D3000052B73D8F86800F001F97968F868FFF777
:104D4000CFFD6BE0FB689B78062B69D8FB689B78EE
:104D50000133DAB2FB689A707968F868FFF7C0FD32
:104D60005EE0FB689B78002B5CD0FB689B78013B86
:104D7000DAB2FB689A707968F868FFF7B1FD51E024
:104D8000FB689B78062B1DD17868FDF71DFA012280
:104D900000217868FDF728FA264B1B781946272052
:104DA000FCF738FD034619467868FDF747FA4FF4DB
:104DB000487001F033FCFB6800221A707868FDF738
:104DC00003FA31E0FB689B78072B2DD1FB680A338F
:104DD00019463868FCF771FC7868FDF7F5F901228F
:104DE00000217868FDF700FA124B1B78194626203F
:104DF000FCF710FD034619467868FDF71FFA4FF4DB
:104E00007A7001F00BFCFB6800221A707868FDF7DD
:104E1000DBF909E000BF08E000BF06E000BF04E0E6
:104E200000BF02E000BF00E000BF00BF1037BD467A
:104E300080BD00BFD714002080B483B000AF78607D
:104E40007B689B78052B66D801A252F823F000BF3F
:104E5000694E00088B4E0008A74E0008C34E00089C
:104E6000DF4E0008FB4E00087B681B8A01339AB2B4
:104E70007B681A827B681B8A40F6330293424CD9C6
:104E80007B684FF4FA621A8247E07B68DB7B013370
:104E9000DAB27B68DA737B68DB7B0C2B3FD97B68EB
:104EA0000122DA733BE07B689B7B0133DAB27B68DB
:104EB0009A737B689B7B1F2B33D97B6801229A7383
:104EC0002FE07B681B7B0133DAB27B681A737B6847
:104ED0001B7B172B27D97B6800221A7323E07B6882
:104EE000DB7A0133DAB27B68DA727B68DB7A3B2BE0
:104EF0001BD97B680022DA7217E07B689B7A01334A
:104F0000DAB27B689A727B689B7A3B2B0FD97B68FD
:104F100000229A720BE000BF0AE000BF08E000BF69
:104F200006E000BF04E000BF02E000BF00E000BFF9
:104F300000BF0C37BD465DF8047B704780B483B07A
:104F400000AF78607B689B78052B65D801A252F88A
:104F500023F000BF6D4F00088D4F0008A94F0008D7
:104F6000C54F0008E14F0008FD4F00087B681B8A11
:104F7000013B9AB27B681A827B681B8AB3F5FA6F91
:104F80004CD27B6840F633021A8247E07B68DB7BB9
:104F9000013BDAB27B68DA737B68DB7B002B3FD1A5
:104FA0007B680C22DA733BE07B689B7B013BDAB2C7
:104FB0007B689A737B689B7B002B33D17B681F22B5
:104FC0009A732FE07B681B7B013BDAB27B681A7314
:104FD0007B681B7B172B27D97B6817221A7323E06A
:104FE0007B68DB7A013BDAB27B68DA727B68DB7A5A
:104FF0003B2B1BD97B683B22DA7217E07B689B7ADC
:10500000013BDAB27B689A727B689B7A3B2B0FD9A3
:105010007B683B229A720BE000BF0AE000BF08E009
:1050200000BF06E000BF04E000BF02E000BF00E0F8
:1050300000BF00BF0C37BD465DF8047B704700BF62
:1050400080B584B000AF78603960396878680FF057
:1050500078FFF860FB68142B01D91423FB60FB6810
:10506000BB6007E07A68BB68134420221A70BB68F3
:105070000133BB60BB68132BF4D97B681433002267
:105080001A7000BF1037BD4680BD000080B483B0E9
:1050900000AF00237B60104B5B6C0F4A43F48043EE
:1050A00053640D4B5B6C03F480437B607B6800238F
:1050B0003B60094B1B6C084A43F080531364064B5A
:1050C0001B6C03F080533B603B6800BF0C37BD4650
:1050D0005DF8047B704700BF0038024080B58AB09D
:1050E00000AF786007F1140300221A605A609A60DA
:1050F000DA601A617B681B681B4A93422FD1002338
:105100003B611A4B5B6C194A43F480735364174B31
:105110005B6C03F480733B613B690023FB60134BC2
:105120001B6B124A43F001031363104B1B6B03F01C
:105130000103FB60FB6880237B610323BB610023C9
:10514000FB6107F114031946094802F0B7F8002281
:105150000021122002F07BF8122002F094F800BF28
:105160002837BD4680BD00BF002001400038024006
:105170000000024080B58AB000AF786007F11403E8
:1051800000221A605A609A60DA601A617B681B68B4
:10519000194A93422BD100233B61184B1B6B174AD2
:1051A00043F002031363154B1B6B03F002033B61D7
:1051B0003B69C0237B611223BB610023FB61032396
:1051C0003B6204237B6207F1140319460C4802F08A
:1051D00075F80023FB60094B1B6C084A43F400136D
:1051E0001364064B1B6C03F40013FB60FB6800BFE9
:1051F0002837BD4680BD00BF005400400038024043
:105200000004024080B58AB000AF786007F1140353
:1052100000221A605A609A60DA601A617B681B6823
:10522000194A93422CD100233B61184B1B6C174A3F
:1052300043F480431364154B1B6C03F480433B61C0
:105240003B690023FB60114B1B6B104A43F00203C8
:1052500013630E4B1B6B03F00203FB60FB684FF400
:1052600060437B610223BB610023FB6103233B623C
:1052700005237B6207F114031946054802F01EF866
:1052800000BF2837BD4680BD0038004000380240CE
:105290000004024080B584B000AF78607B681B6872
:1052A000B3F1804F15D10023FB600C4B1B6C0B4AF4
:1052B00043F001031364094B1B6C03F00103FB6013
:1052C000FB68002205211C2001F0C1FF1C2001F019
:1052D000DAFF00BF1037BD4680BD00BF0038024076
:1052E00080B400AF00BFFDE780B400AF00BFFDE7B2
:1052F00080B400AF00BFFDE780B400AF00BFFDE7A2
:1053000080B400AF00BFFDE780B400AF00BFBD4672
:105310005DF8047B704780B400AF00BFBD465DF808
:10532000047B704780B400AF00BFBD465DF8047BCE
:10533000704780B500AF01F051F900BF80BD00009B
:1053400080B500AF024801F043FB00BF80BD00BF45
:105350002002002080B500AF024806F0A2FE00BF88
:1053600080BD00BF1403002080B500AF024802F0EA
:105370003BFC00BF80BD00BF402B002080B400AFCD
:1053800001231846BD465DF8047B704780B582B0A6
:1053900000AF786039600FF03BFE034616221A60BA
:1053A0004FF0FF3318460837BD4680BD80B582B048
:1053B00000AF78604FF0FF317868FFF7E7FF00BF7C
:1053C000FDE780B586B000AFF860B9607A60002371
:1053D0007B610AE0AFF300800146BB685A1CBA60EB
:1053E000CAB21A707B6901337B617A697B689A4221
:1053F000F0DB7B6818461837BD4680BD80B586B0A7
:1054000000AFF860B9607A6000237B6109E0BB6897
:105410005A1CBA601B781846AFF300807B690133D1
:105420007B617A697B689A42F1DB7B6818461837A2
:10543000BD4680BD80B483B000AF78604FF0FF33CD
:1054400018460C37BD465DF8047B704780B483B0C6
:1054500000AF786039603B684FF400525A60002317
:1054600018460C37BD465DF8047B704780B483B0A6
:1054700000AF7860012318460C37BD465DF8047B09
:10548000704780B485B000AFF860B9607A600023DF
:1054900018461437BD465DF8047B704780B586B06A
:1054A00000AF7860144A154BD31A7B617B693B616E
:1054B000134B1B68002B02D1114B124A1A60104B80
:1054C0001A687B6813443A699A4207D20FF0A0FD2C
:1054D00003460C221A604FF0FF3309E0084B1B68AB
:1054E000FB60074B1A687B681344054A1360FB682E
:1054F00018461837BD4680BD00000120000400009A
:10550000E81400207030002080B400AF064BD3F8C0
:105510008830054A43F47003C2F8883000BFBD46A6
:105520005DF8047B704700BF00ED00E080B582B0FD
:1055300000AF786039607B6800221A707B680022B7
:105540005A707B6803F580531A463B68C2F8D8301E
:105550007B6803F580531A460023C2F8D4307B6879
:1055600003F580531A460023C2F8DC307B6803F54C
:105570008053002283F8E0207B6803F580530022EB
:1055800083F8E1207B6803F58053002283F8E22052
:105590007B6803F5815314332022002118460FF055
:1055A000A6FC7B6803F58253143380220021184641
:1055B0000FF09DFC00BF0837BD4680BD80B582B0AE
:1055C00000AF78607B681B78052B27D801A252F8C2
:1055D00023F000BFED550008F5550008FD55000803
:1055E000055600080D56000815560008786800F0AA
:1055F00019F813E0786800F035F80FE0786800F0EB
:1056000053F80BE0786800F073F807E0786800F072
:1056100093F803E0786800F0D0F800BF00BF0837C7
:10562000BD4680BD80B483B000AF78607B6803F571
:105630008053002283F8E0207B6803F5805300222A
:1056400083F8E120064B1B78022B02D17B680122F4
:105650001A7000BF0C37BD465DF8047B704700BF71
:105660003C2B002080B483B000AF78600D4B1B78DA
:10567000022B09D17B6803F58053012283F8E020D7
:105680007B6802221A7006E0064B1B78032B02D1BE
:105690007B6800221A7000BF0C37BD465DF8047BA2
:1056A000704700BF3C2B002080B582B000AF78600F
:1056B00000220D490D480DF033FD0346002B09D1A2
:1056C0007B6803F58053012283F8E1207B68032285
:1056D0001A7005E07B6802225A707B6805221A70F6
:1056E00000BF0837BD4680BDF4140020F814002028
:1056F00080B582B000AF78600E4B1B78022B14D0BF
:105700007B6803F5805393F8E230002B0AD07B6866
:10571000043318460EF024F97B6803F58053002209
:1057200083F8E2207B6800221A7000BF0837BD466C
:1057300080BD00BF3C2B0020B0B584B000AF7860C6
:105740007B681D1D7B6803F5825414347B6803F568
:10575000825314331846FAF793FD024607F10C03FF
:10576000214628460DF0EAFE0346002B1BD17B683C
:10577000043318460EF076F87B6803F58053D3F8AF
:10578000DC3001337A6802F58052C2F8DC3000F078
:1057900039FF02467B6803F58053C3F8D4207B6849
:1057A00003221A7005E07B6804225A707B68052288
:1057B0001A7000BF1037BD46B0BD80B582B000AFD3
:1057C00078607B6803F5805393F8E230002B0AD0B1
:1057D0007B68043318460EF0C3F87B6803F58053EA
:1057E000002283F8E2204FF4FA6000F017FF7B6894
:1057F00000221A7000BF0837BD4680BD2DE9F04772
:10580000ADF58C5D82B00CAF07F5AC73A3F5A67354
:105810001860D44B1B78022B01D000239AE107F5C6
:105820008C73143B1946D048FBF797FF07F5AC7310
:1058300033F84E3C1E4607F5AC7313F84F3C07F5A2
:10584000AC7212F8502C07F5AC7111F8521C07F528
:10585000AC7010F8530C044607F5AC7010F8540CFB
:10586000054607F1D800143804950394029101927B
:1058700000933346BD4A40210FF09EFA07F1D8014C
:10588000143907F58C73083B062218460DF08EFC80
:10589000034607F58A5202F11702137007F58A537F
:1058A00003F117031B78082B60D1012307F58A52F7
:1058B00002F1100213604BE007F5AC7333F84E3C75
:1058C0009C4607F5AC7313F84F3C1A4607F5AC73CA
:1058D00013F8503C194607F5AC7313F8523C1C46BC
:1058E00007F5AC7313F8533C1D4607F5AC7313F87A
:1058F000543C1E4607F1D800143807F58A5303F1CB
:1059000010031B680593049603950294019100927D
:105910006346974A40210FF04FFA07F1D801143936
:1059200007F58C73083B062218460DF03FFC034632
:1059300007F58A5202F11702137007F58A5303F133
:1059400010031B68013307F58A5202F1100213603D
:1059500007F58A5303F110031B68632B06DC07F578
:105960008A5303F117031B78082BA5D007F58A5338
:1059700003F117031B78002B01D00023EAE07D4BD5
:1059800007F58A5202F10802136007F58A5303F102
:1059900008031868FAF774FC024607F58C730C3B91
:1059A00007F58C70083807F58A5101F1080109687C
:1059B0000DF0C4FD704800F009FC07F58A5303F1AF
:1059C0000403186007F58A5303F104031B68002BD6
:1059D00007D107F58C73083B18460DF0C1FF012372
:1059E000B8E0142307F58A5202F102021380002363
:1059F00007F58A5202F10C02136097E007F58A530B
:105A000003F102031B8807F58A5202F10C021268A7
:105A100002FB03F107F58A5303F102031B8807F128
:105A2000B802083A544800F035FB07F5AC7313F898
:105A30009A3C984607F5AC7313F8993C1E4607F557
:105A4000AC7333F8983CBB6007F5AC7313F89C3C1F
:105A50007B6007F5AC7313F89D3C3B6007F5AC73B6
:105A600013F89E3C1D4607F5AC7353F8A83C184646
:105A7000FAF772FD81468A4607F5AC7353F8A43CE9
:105A80001846FAF769FD02460B4607F5AC7111F8A6
:105A9000A01C07F5AC7010F89F0C044607F1180025
:105AA00008380B940A91CDE90823CDE9069A0495AC
:105AB0003A6803927A680292BB6801930096434663
:105AC0002E4AA0210FF078F907F11803083B184679
:105AD000FAF7D6FB024607F58C730C3B07F1180169
