:020000040800F2
:1000000000000120ED660008E9540008F1540008E2
:10001000F9540008015500080955000800000000C7
:100020000000000000000000000000001155000862
:100030001F550008000000002D5500083B55000822
:100040003D6700083D6700083D6700083D67000800
:100050003D6700083D6700083D6700083D670008F0
:100060003D6700083D6700083D6700083D670008E0
:100070003D6700083D6700083D6700083D670008D0
:100080003D6700083D670008495500080000000072
:100090000000000000000000000000003D670008B4
:1000A0003D6700083D6700083D6700083D670008A0
:1000B0005D5500083D6700083D6700083D67000882
:1000C0003D6700083D6700083D6700083D67000880
:1000D0003D6700083D6700083D670008000000001C
:1000E0003D6700083D6700083D670008000000000C
:1000F0000000000000000000000000003D67000854
:10010000000000003D6700083D6700083D670008EB
:1001100000000000000000000000000000000000DF
:100120003D6700083D6700083D6700083D6700081F
:100130003D67000800000000000000000000000013
:1001400000000000000000000000000071550008E1
:100150003D6700083D6700083D6700083D670008EF
:100160003D6700083D670008000000000000000037
:10017000000000000000000000000000000000007F
:10018000000000003D6700080000000000000000C3
:040190003D670008BF
:1001A00010B5054C237833B9044B13B10448AFF3B1
:1001B00000800123237010BD000200200000000019
:1001C0008071010808B5034B1BB103490348AFF325
:1001D000008008BD000000000402002080710108BA
:1001E00001F0FF01102A2BDB10F0070F08D010F8E8
:1001F000013B013A8B422DD010F0070F42B3F6D1EC
:10020000F0B441EA012141EA014122F007047FF004
:1002100000070023F0E80256083C85EA010586EA5B
:10022000010685FA47F5A3FA87F586FA47F6A5FA97
:1002300087F68EB9EED1F0BC01F0FF0102F00702A3
:1002400032B110F8013B013A83EA010313B1F8D14E
:100250000020704701387047002D06BF354603382F
:10026000073815F0010F07D1013015F4807F02BF68
:10027000013015F4C03F0130F0BC0138704700BFB9
:10028000034613F8012B002AFBD1181A01387047D6
:1002900081F0004102E000BF83F0004330B54FEA37
:1002A00041044FEA430594EA050F08BF90EA020FA4
:1002B0001FBF54EA000C55EA020C7FEA645C7FEA37
:1002C000655C00F0E2804FEA5454D4EB5555B8BF5A
:1002D0006D420CDD2C4480EA020281EA030382EACB
:1002E000000083EA010180EA020281EA0303362D5D
:1002F00088BF30BD11F0004F4FEA01314FF4801C30
:100300004CEA113102D0404261EB410113F0004F41
:100310004FEA03334CEA133302D0524263EB4303F8
:1003200094EA050F00F0A780A4F10104D5F1200E96
:100330000DDB02FA0EFC22FA05F2801841F10001F1
:1003400003FA0EF2801843FA05F359410EE0A5F1C5
:1003500020050EF1200E012A03FA0EFC28BF4CF0F6
:10036000020C43FA05F3C01851EBE37101F00045AC
:1003700007D54FF0000EDCF1000C7EEB00006EEBB9
:100380000101B1F5801F1BD3B1F5001F0CD3490843
:100390005FEA30004FEA3C0C04F101044FEA44529A
:1003A00012F5800F80F09A80BCF1004F08BF5FEA21
:1003B000500C50F1000041EB045141EA050130BD01
:1003C0005FEA4C0C404141EB0101013C28BFB1F513
:1003D000801FE9D291F0000F04BF01460020B1FA5E
:1003E00081F308BF2033A3F10B03B3F120020CDA31
:1003F0000C3208DD02F1140CC2F10C0201FA0CF00F
:1004000021FA02F10CE002F11402D8BFC2F1200C73
:1004100001FA02F120FA0CFCDCBF41EA0C01904029
:10042000E41AA2BF01EB0451294330BD6FEA040472
:100430001F3C1CDA0C340EDC04F11404C4F120025D
:1004400020FA04F001FA02F340EA030021FA04F36F
:1004500045EA030130BDC4F10C04C4F1200220FAC6
:1004600002F001FA04F340EA0300294630BD21FA04
:1004700004F0294630BD94F0000F83F4801306BFCA
:1004800081F480110134013D4EE77FEA645C18BFBE
:100490007FEA655C29D094EA050F08BF90EA020F55
:1004A00005D054EA000C04BF1946104630BD91EA4D
:1004B000030F1EBF0021002030BD5FEA545C05D150
:1004C0004000494128BF41F0004130BD14F580048F
:1004D0003CBF01F5801130BD01F0004545F0FE4103
:1004E00041F470014FF0000030BD7FEA645C1ABF38
:1004F000194610467FEA655C1CBF0B46024650EA6F
:10050000013406BF52EA033591EA030F41F400219A
:1005100030BD00BF90F0000F04BF0021704730B520
:100520004FF4806404F132044FF000054FF00001F5
:1005300050E700BF90F0000F04BF0021704730B5B6
:100540004FF4806404F1320410F0004548BF40428B
:100550004FF000013EE700BF42004FEAE2014FEAE0
:1005600031014FEA02701FBF12F07F4393F07F4FBB
:1005700081F06051704732F07F4208BF704793F0BE
:100580007F4F04BF41F40021704730B54FF46074D1
:1005900001F0004521F000411CE700BF50EA0102D4
:1005A00008BF704730B54FF000050AE050EA01027D
:1005B00008BF704730B511F0004502D5404261EBED
:1005C00041014FF4806404F132045FEA915C3FF42E
:1005D000D8AE4FF003025FEADC0C18BF03325FEACB
:1005E000DC0C18BF033202EBDC02C2F1200300FA7C
:1005F00003FC20FA02F001FA03FE40EA0E0021FAA1
:1006000002F11444BDE600BF70B54FF0FF0C4CF48E
:10061000E06C1CEA11541DBF1CEA135594EA0C0F40
:1006200095EA0C0F00F0DEF82C4481EA030621EA7B
:100630004C5123EA4C5350EA013518BF52EA0335B6
:1006400041F4801143F4801338D0A0FB02CE4FF068
:100650000005E1FB02E506F00042E0FB03E54FF098
:100660000006E1FB03569CF0000F18BF4EF0010E90
:10067000A4F1FF04B6F5007F64F5407404D25FEA8C
:100680004E0E6D4146EB060642EAC62141EA55513F
:100690004FEAC52040EA5E504FEACE2EB4F1FD0C81
:1006A00088BFBCF5E06F1ED8BEF1004F08BF5FEAFF
:1006B000500E50F1000041EB045170BD06F00046B1
:1006C00046EA010140EA020081EA0301B4EB5C045E
:1006D000C2BFD4EB0C0541EA045170BD41F4801156
:1006E0004FF0000E013C00F3AB8014F1360FDEBF7B
:1006F000002001F0004170BDC4F10004203C35DA57
:100700000C341BDC04F11404C4F1200500FA05F3D9
:1007100020FA04F001FA05F240EA020001F000427A
:1007200021F0004110EBD37021FA04F642EB0601F0
:100730005EEA430E08BF20EAD37070BDC4F10C041A
:10074000C4F1200500FA04F320FA05F001FA04F2DE
:1007500040EA020001F0004110EBD37041F10001CA
:100760005EEA430E08BF20EAD37070BDC4F12005D5
:1007700000FA05F24EEA020E20FA04F301FA05F23D
:1007800043EA020321FA04F001F0004121FA04F2E5
:1007900020EA020000EBD3705EEA430E08BF20EAB5
:1007A000D37070BD94F0000F0FD101F000464000EF
:1007B00041EB010111F4801F08BF013CF7D041EA71
:1007C000060195F0000F18BF704703F00046520075
:1007D00043EB030313F4801F08BF013DF7D043EA46
:1007E0000603704794EA0C0F0CEA135518BF95EAFC
:1007F0000C0F0CD050EA410618BF52EA4306D1D183
:1008000081EA030101F000414FF0000070BD50EAA1
:10081000410606BF1046194652EA430619D094EA2B
:100820000C0F02D150EA013613D195EA0C0F05D115
:1008300052EA03361CBF104619460AD181EA030169
:1008400001F0004141F0FE4141F470014FF0000021
:1008500070BD41F0FE4141F4780170BD70B54FF0BC
:10086000FF0C4CF4E06C1CEA11541DBF1CEA13553C
:1008700094EA0C0F95EA0C0F00F0A7F8A4EB05041E
:1008800081EA030E52EA03354FEA013100F0888015
:100890004FEA03334FF0805545EA131343EA1263DE
:1008A0004FEA022245EA111545EA10654FEA002693
:1008B0000EF000419D4208BF964244F1FD0404F54C
:1008C000407402D25B084FEA3202B61A65EB0305A8
:1008D0005B084FEA32024FF480104FF4002CB6EB65
:1008E000020E75EB030E22BFB61A754640EA0C00E5
:1008F0005B084FEA3202B6EB020E75EB030E22BF25
:10090000B61A754640EA5C005B084FEA3202B6EB65
:10091000020E75EB030E22BFB61A754640EA9C0024
:100920005B084FEA3202B6EB020E75EB030E22BFF4
:10093000B61A754640EADC0055EA060E18D04FEAB2
:10094000051545EA16754FEA06164FEAC30343EA52
:1009500052734FEAC2025FEA1C1CC0D111F4801F1F
:100960000BD141EA00014FF000004FF0004CB6E718
:1009700011F4801F04BF01430020B4F1FD0C88BFB7
:10098000BCF5E06F3FF6AFAEB5EB030C04BFB6EBC2
:10099000020C5FEA500C50F1000041EB045170BDB5
:1009A0000EF0004E4EEA113114EB5C04C2BFD4EBE2
:1009B0000C0541EA045170BD41F480114FF0000E66
:1009C000013C90E645EA060E8DE60CEA135594EAE2
:1009D0000C0F08BF95EA0C0F3FF43BAF94EA0C0FE5
:1009E0000AD150EA01347FF434AF95EA0C0F7FF45A
:1009F00025AF104619462CE795EA0C0F06D152EAAE
:100A000003353FF4FDAE1046194622E750EA410691
:100A100018BF52EA43067FF4C5AE50EA41047FF4A2
:100A20000DAF52EA43057FF4EBAE12E74FF0FF3C07
:100A300006E000BF4FF0010C02E000BF4FF0010CD8
:100A40004DF804CD4FEA410C7FEA6C5C4FEA430C51
:100A500018BF7FEA6C5C1BD001B050EA410C0CBFA0
:100A600052EA430C91EA030F02BF90EA020F002002
:100A7000704710F1000F91EA030F58BF994208BF69
:100A800090422CBFD8176FEAE37040F00100704726
:100A90004FEA410C7FEA6C5C02D150EA013C07D17D
:100AA0004FEA430C7FEA6C5CD6D152EA033CD3D0C8
:100AB0005DF8040B704700BF8446104662468C46C2
:100AC0001946634600E000BF01B5FFF7B7FF0028F5
:100AD00048BF10F1000F01BD4DF808EDFFF7F4FF1E
:100AE0000CBF012000205DF808FB00BF4DF808EDA9
:100AF000FFF7EAFF34BF012000205DF808FB00BFCC
:100B00004DF808EDFFF7E0FF94BF012000205DF8ED
:100B100008FB00BF4DF808EDFFF7CEFF94BF0120A2
:100B200000205DF808FB00BF4DF808EDFFF7C4FF9B
:100B300034BF012000205DF808FB00BF4FEA410CE4
:100B40007FEA6C5C02D150EA013C0AD14FEA430CC7
:100B50007FEA6C5C02D152EA033C02D14FF0000004
:100B600070474FF0010070474FEA410212F5001242
:100B700015D211D56FF47873B3EB625212D94FEAE4
:100B8000C12343F0004343EA505311F0004F23FACE
:100B900002F018BF404270474FF00000704750EA23
:100BA000013005D111F0004008BF6FF000407047E0
:100BB0004FF00000704700BF53B94AB9002908BF81
:100BC00000281CBF4FF0FF314FF0FF3000F088B914
:100BD000ADF1080C6DE904CE00F006F8DDF804E094
:100BE000DDE9022304B070472DE9F047089D8E46E9
:100BF00004468846002B4AD18A42174662D9B2FA87
:100C000082F64EB1C6F1200301FA06F820FA03F38A
:100C1000B74043EA0808B4404FEA174E1FFA87FC72
:100C2000B8FBFEF1230C0EFB118843EA084301FBDD
:100C30000CF29A4209D9FB1801F1FF3080F0EA80EA
:100C40009A4240F2E78002393B449A1AA3B2B2FBBF
:100C5000FEF00EFB102243EA024300FB0CFC9C4515
:100C600009D9FB1800F1FF3280F0D6809C4540F294
:100C7000D3803B44023840EA0140A3EB0C0300213F
:100C80001DB1F3400022C5E90032BDE8F0878B4278
:100C900005D90DB1C5E9000100210846F5E7B3FA11
:100CA00083F1002946D1734502D3824200F20581C7
:100CB000841A6EEB030201209046002DE5D0C5E9B1
:100CC0000048E2E7002A00F09080B2FA82F6002E97
:100CD00040F0A4808A1A030C4FEA174E80B2BCB2CF
:100CE0000121B2FBFEFC0EFB1C2243EA024304FB83
:100CF0000CF29A4207D9FB180CF1FF3802D29A4243
:100D000000F2E080C4469B1AB3FBFEF20EFB1233E6
:100D100040EA034302FB04F49C4207D9FB1802F1AA
:100D2000FF3002D29C4200F2CA8002461B1B42EAFC
:100D30000C40A5E7C1F120068B4022FA06F71F43BD
:100D40000EFA01F420FA06F32EFA06FE4FEA1749CE
:100D5000234300FA01F81FFA87FCBEFBF9F01C0CD4
:100D600009FB10EE44EA0E4400FB0CFEA64502FA15
:100D700001F209D93C1900F1FF3A80F09C80A645A8
:100D800040F2998002383C44A4EB0E041FFA83FE23
:100D9000B4FBF9F309FB13444EEA044403FB0CFCD7
:100DA000A44508D93C1903F1FF3E80F08280A44598
:100DB0007FD9023B3C4443EA0040A4EB0C04A0FB77
:100DC00002EC64457346E14662D35FD05DB1B8EB97
:100DD000030264EB090404FA06F622FA01F31E4347
:100DE000CC40C5E9006400214FE7B1FBF2FC010CE7
:100DF00041EA0E4180B240EA01423B4638463C4659
:100E0000B846BE462026B1FBF7F1A2EB080241EA44
:100E10000C4166E7014618E710462CE7C6F12002B0
:100E20002EFA02F3B740B14020FA02F24FEA174E11
:100E30000A43B3FBFEF8BCB20EFB1833110C41EAB7
:100E4000034108FB04F9B04089454FEA104380B2E2
:100E50003ED9791808F1FF3C01D289451FD8A1EB92
:100E60000901B1FBFEF909FB04F80EFB191192B25E
:100E700042EA0142424529D2BA1809F1FF31C4D2EF
:100E80004245C2D2A9F102013A44BEE7F0459DD2E3
:100E9000BEEB02036CEB070C0138E14696E7A7EBCB
:100EA00009094944A8F1020CB1FBFEF909FB04F859
:100EB000DBE773467FE7504666E70846FDE63B44BE
:100EC000023A33E7ACF1020C3B441CE749469CE78D
:100ED000A1EB0901C446B1FBFEF909FB04F8C4E724
:100EE000704700BF80B588B004AFF8607A601A46DA
:100EF0000B46FB7213463B81FB681868FB7A9AB27B
:100F00004FF0FF3302933B8901937B6800930123E9
:100F1000EE2109F0FDF8034618461037BD4680BDA6
:100F200080B586B004AF78600B46FB701346BB708B
:100F30007B681868FB789AB24FF0FF330293012365
:100F40000193BB1C00930123EE2108F0E7FF034649
:100F500018460837BD4680BD80B58AB000AFF8603E
:100F6000B9601346FB71FB68BA681A60FB68FA79CE
:100F70009A7607F110021623AA21F868FFF7B2FF4C
:100F80000346002B01D0002377E03B7C1BB21B0201
:100F90001AB27B7C1BB213431AB2FB689A80BB7CEB
:100FA0001BB21B021AB2FB7C1BB213431AB2FB68C2
:100FB000DA803B7D1BB21B021AB27B7D1BB213434E
:100FC0001AB2FB681A81BB7D1BB21B021AB2FB7DF1
:100FD0001BB213431BB29AB2FB685A813B7E1BB211
:100FE0001B021AB27B7E1BB213431BB29AB2FB6880
:100FF0009A81BB7E1BB21B021AB2FB7E1BB213434B
:101000001BB29AB2FB68DA813B7F1BB21B021AB299
:101010007B7F1BB213431AB2FB681A82BB7F1BB2E1
:101020001B021AB2FB7F1BB213431AB2FB685A822F
:1010300097F820301BB21B021AB297F821301BB26E
:1010400013431AB2FB689A8297F822301BB21B0234
:101050001AB297F823301BB213431AB2FB68DA8234
:1010600097F824301BB21B021AB297F825301BB236
:1010700013431AB2FB681A83012318462837BD466A
:1010800080BD000080B586B000AF78602E22F421CC
:101090007868FFF745FF052005F0C4FB07F108025B
:1010A0000223F6217868FFF71DFF3B7A1B027A7A4C
:1010B00013437B617B68DB891A467B699B1A7A68DC
:1010C000928902FB03F3DB133B617B68B3F91630B3
:1010D000DA027B68B3F9183019463B690B4492FB7E
:1010E000F3F3FB603A69FB6813440A4A1360094B47
:1010F0001B6808331B1107EE903AF8EEE77AB2EE60
:10110000047AC7EE876AF0EE667AB0EE670A18379F
:10111000BD4680BD1C02002080B58EB000AF786057
:101120007B689B7E032B27D801A252F823F000BFD7
:10113000411100084F1100085D1100086B110008F3
:10114000342387F83330052387F832301BE07423CB
:1011500087F83330082387F8323014E0B42387F857
:1011600033300E2387F832300DE0F42387F8333024
:101170001A2387F8323006E0342387F8333005230A
:1011800087F8323000BF97F833301A46F421786878
:10119000FFF7C6FE97F83230184605F043FB07F11B
:1011A0000C020323F6217868FFF79CFE3B7B1A04B0
:1011B0007B7B1B021343BA7B1A437B689B7EC3F184
:1011C000080342FA03F3FB624D4B1B68A3F57A63F5
:1011D000BB627B68B3F912301A46BB6A03FB03F3A8
:1011E0001B1302FB03F3DB127B627B68B3F906304F
:1011F0001A46BB6A02FB03F3DB123B627A6A3B6A64
:101200001344FB617B68B3F904309A00FB69134413
:101210007A68927E93400233002B00DA03339B10EE
:10122000BB617B68B3F908301A46BB6A02FB03F363
:101230005B137B627B68B3F910301A46BB6A03FB11
:1012400003F31B1302FB03F31B143B627A6A3B6A32
:10125000134402339B10FB617B685B891A46FB6970
:1012600003F5004302FB03F3DB0B7B61FA6ABB6906
:10127000D31A7A68927E11464CF250320A4102FB30
:1012800003F33B613B69002B06DB3B695A007B693A
:10129000B2FBF3F37B6305E03A697B69B2FBF3F3DE
:1012A0005B007B637B6B1B127A6B121202FB03F3F6
:1012B0007B627B6A40F6DE3202FB03F31B147B6227
:1012C0007B6B104A02FB03F31B143B627A6A3B6A96
:1012D000134403F6CF631B117A6B13447B637B6B60
:1012E00007EE903AF8EEE77A9FED077AC7EE876A45
:1012F000F0EE667AB0EE670A3837BD4680BD00BFB3
:101300001C02002043E3FFFF0000C84280B485B008
:1013100000AFF860B9601346FB80FB68BA681A60DA
:10132000FB68FA889A80FB6800229A71FB680022A9
:10133000DA71FB6800221A7200BF1437BD465DF8EF
:10134000047B704780B586B000AF786007F1080372
:1013500000221A601A710023FB750023BB757868A0
:1013600000F0C6F80021786800F002F9122005F0BC
:1013700059FA0121786800F0FBF81E2000F01CF9F2
:10138000786800F0D6F84FF47A733B6100BF786854
:1013900000F000F90346012B04D13B695A1E3A6163
:1013A000002BF4D13B69002B01D100239CE04FF4CA
:1013B0007A733B6100BF786800F0ECF80346002BBD
:1013C00004D13B695A1E3A61002BF4D13B69002BD2
:1013D00001D1002388E04FF47A733B6100BF786845
:1013E00000F0D8F80346012B04D13B695A1E3A613C
:1013F000002BF4D13B69002B01D1002374E00023C2
:10140000BB7551E00023FB7548E04FF47A733B61F4
:1014100000BF786800F0BEF80346002B04D13B699A
:101420005A1E3A61002BF4D13B69002B01D10023F5
:101430005AE0282000F0C0F8786800F0ABF80346C6
:10144000012B14D1BB7D18333B4413F8103C5AB226
:10145000FB7DC3F10703012101FA03F35BB21343E0
:101460005AB2BB7DD2B218333B4403F8102C4FF470
:101470007A733B6100BF786800F08CF80346012B5B
:1014800004D13B695A1E3A61002BF4D13B69002B11
:1014900001D1002328E0FB7D0133FB75FB7D072B89
:1014A000B3D9BB7D0133BB75BB7D042BAAD93A7A76
:1014B0007B7A1344DAB2BB7A1344DAB2FB7A134470
:1014C000FB733B7BFA7B9A4204D07B6800221A7242
:1014D000002309E03A7A7B68DA71BA7A7B689A71FC
:1014E0007B6801221A72012318461837BD4680BD59
:1014F00080B588B000AF786007F10C0300221A6055
:101500005A609A60DA601A617B689B88FB600123ED
:101510003B6100237B610023BB617B681B6807F193
:101520000C021146184605F0CDFF00BF2037BD461E
:1015300080BD80B588B000AF786007F10C03002251
:101540001A605A609A60DA601A617B689B88FB6057
:1015500000233B6101237B617B681B6807F10C0260
:101560001146184605F0AEFF00BF2037BD4680BDCE
:1015700080B582B000AF78600B46FB707B6818685E
:101580007B689B88FA78194606F038F900BF08375F
:10159000BD4680BD80B582B000AF78607B681A68B8
:1015A0007B689B881946104606F010F903461846DA
:1015B0000837BD4680BD000080B485B000AF7860BC
:1015C0000D4B1B680D4AA2FB03239B0C7A6802FBA0
:1015D00003F30B4AA2FB03239B08FB6000E000BF60
:1015E000FB685A1EFA60002BF9D100BF00BF143708
:1015F000BD465DF8047B70470C00002083DE1B4372
:10160000CDCCCCCC80B483B000AF0346FB71FB796A
:101610001B09DBB21A46920013445B00DAB2FB7975
:1016200003F00F03DBB21344DBB218460C37BD46A0
:101630005DF8047B7047000080B483B000AF0346C0
:10164000FB71FB790E4AA2FB0323DB08DBB25BB222
:101650001B0158B2FA790A4BA3FB0213D9080B46B7
:101660009B000B445B00D31ADBB25BB203435BB25B
:10167000DBB218460C37BD465DF8047B704700BFEF
:10168000CDCCCCCC80B588B004AF78606423029315
:101690000123019307F10F03009301230022D021BE
:1016A000786808F035FD0346002B01D1012300E0E6
:1016B000002318461037BD4680BD80B588B004AF02
:1016C000786039603B681B781846FFF7B5FF034622
:1016D0003B723B685B781846FFF7AEFF03467B72B0
:1016E0003B689B781846FFF7A7FF0346BB723B6831
:1016F000DB781846FFF7A0FF0346FB723B681B79B7
:101700001846FFF799FF03463B733B685B79184621
:10171000FFF792FF03467B733B68DB88DBB2303315
:10172000DBB21846FFF788FF0346BB7364230293BE
:101730000723019307F10803009301230022D0211E
:10174000786808F0EBFB0346002B01D1012300E091
:10175000002318461037BD4680BD80B588B004AF61
:1017600078603960642302930723019307F108032B
:10177000009301230022D021786808F0C9FC0346B9
:10178000002B41D13B7A1846FFF73CFF03461A462F
:101790003B681A707B7A1846FFF734FF03461A46F7
:1017A0003B685A70BB7A03F03F03DBB21846FFF781
:1017B00029FF03461A463B689A70FB7A1846FFF7E2
:1017C00021FF03461A463B68DA703B7B1846FFF759
:1017D00019FF03461A463B681A717B7B03F01F030F
:1017E000DBB21846FFF70EFF03461A463B685A71F4
:1017F000BB7B1846FFF706FF034603F5FA639AB270
:101800003B68DA80012300E0002318461037BD460C
:1018100080BD000080B483B000AF03460A46FB7170
:101820001346BB71BB79022B01D90023BB71FB7935
:101830003E2B00F20B8401A252F823F03919000864
:101840005119000869190008811900089919000840
:10185000B1190008A51D0008BD1D0008D51D000810
:10186000D91D0008DD1D0008F51D0008F91D000840
:10187000FD1D0008151E0008191E00081D1E000889
:10188000C9190008E1190008F9190008111A00081F
:10189000291A0008411A0008891A0008591A000874
:1018A000711A0008A11A0008B91A0008D11A000814
:1018B000E91A0008011B0008191B0008311B000869
:1018C000351C0008C51C0008DD1C0008F51C0008BC
:1018D0000D1D0008251D00083D1D00084D1C0008B9
:1018E000551D0008651C0008851D0008891D00089D
:1018F0008D1D00082D1F0008451F00085D1F0008F2
:10190000751F00088D1F0008151F0008A51F00087F
:10191000BD1F00087D1C00086D1D0008951C0008F7
:10192000AD1C0008D51F0008ED1F000805200008A9
:101930001D20000835200008BB79012B06D0BB799B
:10194000022B01D17E4B82E37E4B80E37D4B7EE315
:10195000BB79012B06D0BB79022B01D17A4B76E300
:101960007A4B74E3794B72E3BB79012B06D0BB79D8
:10197000022B01D1764B6AE3764B68E3764B66E344
:10198000BB79012B06D0BB79022B01D1734B5EE3EF
:10199000734B5CE3734B5AE3BB79012B06D0BB79E5
:1019A000022B01D1704B52E3704B50E3704B4EE36E
:1019B000BB79012B06D0BB79022B01D16D4B46E3DD
:1019C0006D4B44E36D4B42E3BB79012B06D0BB79F1
:1019D000022B01D16A4B3AE36A4B38E36A4B36E398
:1019E000BB79012B06D0BB79022B01D1674B2EE3CB
:1019F000674B2CE3674B2AE3BB79012B06D0BB79FD
:101A0000022B01D1644B22E3644B20E3644B1EE3C1
:101A1000BB79012B06D0BB79022B01D1614B16E3B8
:101A2000614B14E3614B12E3BB79012B06D0BB7908
:101A3000022B01D15E4B0AE35E4B08E35E4B06E3EB
:101A4000BB79012B06D0BB79022B01D15B4BFEE2A7
:101A50005B4BFCE25A4BFAE2BB79012B06D0BB7917
:101A6000022B01D1574BF2E2574BF0E2574BEEE21B
:101A7000BB79012B06D0BB79022B01D1544BE6E296
:101A8000544BE4E2544BE2E2BB79012B06D0BB7924
:101A9000022B01D1514BDAE2514BD8E2514BD6E245
:101AA000BB79012B06D0BB79022B01D14E4BCEE284
:101AB0004E4BCCE24E4BCAE2BB79012B06D0BB7930
:101AC000022B01D14B4BC2E24B4BC0E24B4BBEE26F
:101AD000BB79012B06D0BB79022B01D1484BB6E272
:101AE000484BB4E2474BB2E2BB79012B06D0BB793D
:101AF000022B01D1444BAAE2444BA8E2444BA6E29C
:101B0000BB79012B06D0BB79022B01D1414B9EE260
:101B1000414B9CE2404B9AE2BB79012B06D0BB794A
:101B2000022B01D13D4B92E23D4B90E23D4B8EE2C8
:101B3000BB79012B7CD0BB79022B77D13A4B86E263
:101B400098710108B0710108C8710108E0710108BD
:101B5000F87101081072010828720108407201082A
:101B6000587201087072010888720108A072010899
:101B7000B8720108D0720108E87201080073010808
:101B80001873010830730108487301086073010875
:101B90007873010890730108A8730108C0730108E5
:101BA000D8730108F0730108087401082074010853
:101BB00038740108507401086874010880740108C1
:101BC00098740108B0740108C8740108E074010831
:101BD000F87401081075010828750108407501089E
:101BE0005075010860750108707501088875010855
:101BF000A0750108B8750108D0750108E8750108DD
:101C00000076010818760108307601084876010848
:101C1000607601087876010890760108A8760108B8
:101C2000C0760108D8760108F07601087C4B0EE2F8
:101C30007C4B0CE2BB79012B06D0BB79022B01D186
:101C4000794B04E2794B02E2794B00E2BB79012B3C
:101C500006D0BB79022B01D1764BF8E1764BF6E149
:101C6000764BF4E1BB79012B06D0BB79022B01D175
:101C7000734BECE1734BEAE1734BE8E1BB79012B69
:101C800006D0BB79022B01D1704BE0E1704BDEE155
:101C90006F4BDCE1BB79012B06D0BB79022B01D164
:101CA0006C4BD4E16C4BD2E16C4BD0E1BB79012B96
:101CB00006D0BB79022B01D1694BC8E1694BC6E163
:101CC000694BC4E1BB79012B06D0BB79022B01D152
:101CD000664BBCE1664BBAE1654BB8E1BB79012BC1
:101CE00006D0BB79022B01D1624BB0E1624BAEE171
:101CF000614BACE1BB79012B06D0BB79022B01D142
:101D00005E4BA4E15E4BA2E15D4BA0E1BB79012BF0
:101D100006D0BB79022B01D15A4B98E15A4B96E180
:101D2000594B94E1BB79012B06D0BB79022B01D131
:101D3000564B8CE1564B8AE1564B88E1BB79012B1F
:101D400006D0BB79022B01D1534B80E1534B7EE18E
:101D5000524B7CE1BB79012B06D0BB79022B01D120
:101D60004F4B74E14F4B72E14F4B70E1BB79012B4C
:101D700006D0BB79022B01D14C4B68E14C4B66E19C
:101D80004C4B64E14C4B62E14C4B60E1BB79012B65
:101D900006D0BB79022B01D1494B58E1494B56E1A2
:101DA000494B54E1BB79012B06D0BB79022B01D101
:101DB000464B4CE1464B4AE1464B48E1BB79012B8F
:101DC00006D0BB79022B01D1434B40E1434B3EE1AE
:101DD000424B3CE1424B3AE1424B38E1BB79012BAB
:101DE00006D0BB79022B01D13F4B30E13F4B2EE1B6
:101DF0003F4B2CE13F4B2AE13F4B28E1BB79012BC4
:101E000006D0BB79022B01D13C4B20E13C4B1EE1BB
:101E10003C4B1CE13C4B1AE13C4B18E13C4B16E1BE
:101E2000F8760108007701080877010810770108A3
:101E300018770108247701083C77010854770108D6
:101E40006C770108847701089C770108B477010852
:101E5000CC770108E4770108FC77010814780108C1
:101E60002C780108447801085C780108747801082E
:101E70008C780108A4780108BC780108D47801089E
:101E8000EC780108047901081C790108347901080B
:101E90004C790108647901087C790108947901087A
:101EA000AC790108C4790108DC790108F4790108EA
:101EB0000C7A0108247A01083C7A0108507A01085A
:101EC000607A0108707A0108807A0108907A010826
:101ED000A87A0108C07A0108D87A0108F07A0108C6
:101EE000087B0108207B0108387B0108507B010832
:101EF000687B0108807B0108987B0108B07B0108A2
:101F0000C87B0108E07B0108F87B0108107C010810
:101F1000287C0108BB79012B06D0BB79022B01D1AB
:101F20004E4B94E04E4B92E04E4B90E0BB79012B30
:101F300006D0BB79022B01D14B4B88E04B4B86E09E
:101F40004B4B84E0BB79012B06D0BB79022B01D12E
:101F5000484B7CE0484B7AE0484B78E0BB79012B5A
:101F600006D0BB79022B01D1454B70E0454B6EE0AA
:101F7000434B6CE0BB79012B06D0BB79022B01D11E
:101F8000414B64E0414B62E0414B60E0BB79012B87
:101F900006D0BB79022B01D13E4B58E03E4B56E0B8
:101FA0003E4B54E0BB79012B06D0BB79022B01D10B
:101FB0003B4B4CE03B4B4AE03B4B48E0BB79012BB1
:101FC00006D0BB79022B01D1384B40E0384B3EE0C4
:101FD000374B3CE0BB79012B06D0BB79022B01D1FA
:101FE000344B34E0344B32E0344B30E0BB79012BDE
:101FF00006D0BB79022B01D1314B28E0314B26E0D2
:10200000314B24E0BB79012B06D0BB79022B01D1E7
:102010002E4B1CE02E4B1AE02D4B18E0BB79012B08
:1020200006D0BB79022B01D12A4B10E02A4B0EE0DF
:102030002A4B0CE0BB79012B06D0BB79022B01D1D6
:10204000274B04E0274B02E0274B00E0274B1846C4
:102050000C37BD465DF8047B704700BF407C01082B
:10206000587C0108707C0108887C0108A07C01086C
:10207000B87C0108D07C0108E87C0108007D0108DB
:10208000187D01081C7D0108247D0108287D0108B8
:102090002C7D0108307D0108487D0108607D010824
:1020A000787D0108907D0108A87D0108C07D0108A8
:1020B000D87D0108F07D0108087E0108207E010816
:1020C000387E0108507E0108687E0108807E010884
:1020D000987E0108B07E0108C87E0108E07E0108F4
:1020E000F87E0108107F0108287F0108407F010861
:1020F00080B584B000AFF860B96011461A460B464F
:10210000FB711346BB71FB68BA681A60FB684E220C
:102110001A71FB68FA795A72FB68BA799A72FB688D
:1021200008225A71FB6808229A71322004F07AFB67
:10213000FB685B791946F86800F001F94FF47A7092
:1021400004F070FB3021F86800F0A9F8052004F0D5
:1021500069FB3021F86800F0A2F8052004F062FB6A
:102160003021F86800F09BF8012004F05BFB20218F
:10217000F86800F094F8FB689B7943F02003DBB229
:102180001946F86800F09FF8FB680422DA71FB68D2
:10219000DB7943F00803DBB21946F86800F093F8E6
:1021A000F86800F013F8FB6802221A72FB681B7AC9
:1021B00043F00403DBB21946F86800F084F8C82045
:1021C00004F030FB00BF1037BD4680BD80B582B043
:1021D00000AF78600121786800F075F8022004F003
:1021E00021FB00BF0837BD4680BD000080B584B02C
:1021F00000AF78600B46FB701346BB700F4BFB6063
:102200007B689B7ABA789A4203D37B689B7A013BBE
:10221000BB70BB7810333B4413F8042CFB78134499
:10222000DBB25BB263F07F035BB2DBB21946786866
:1022300000F049F800BF1037BD4680BD004014547F
:1022400080B582B000AF7860396007E03B685A1C07
:102250003A601B781946786800F050F83B681B78A4
:10226000002BF3D100BF00BF0837BD4680BD80B54D
:1022700082B000AF78600B46FB70FB78002B03D078
:102280007B6808225A7102E07B6800225A710021A3
:10229000786800F054F800BF0837BD4680BD80B5AF
:1022A00082B000AF78600B46FB70FB781946786807
:1022B00000F045F8FB781946786800F05CF800BF3C
:1022C0000837BD4680BD80B584B000AF78600B464E
:1022D000FB70FB7823F00F03FB73FB781B01BB73D0
:1022E000FB7B19467868FFF7DAFFBB7B19467868F5
:1022F000FFF7D5FF00BF1037BD4680BD80B584B065
:1023000000AF78600B46FB70FB7823F00F03FB7384
:10231000FB781B01BB73FB7B43F00103DBB2194667
:102320007868FFF7BCFFBB7B43F00103DBB21946C3
:102330007868FFF7B4FF00BF1037BD4680BD80B599
:1023400086B002AF78600B46FB707B685A79FB78E9
:102350001343DBB2FB737B6818687B681B791946F3
:1023600007F10F0264230093012307F0D9FC00BF9B
:102370001037BD4680BD80B582B000AF78600B4697
:10238000FB70FB7843F00403DBB219467868FFF773
:10239000D6FF012004F046FAFB7823F00403DBB2F9
:1023A00019467868FFF7CBFF012004F03BFA00BF25
:1023B0000837BD4680BD80B586B000AFF8600B46DB
:1023C0007A60FB72FB7A03F00703FB7297F90B301C
:1023D000DB005BB243F040035BB2DBB21946F86846
:1023E000FFF771FF00237B610AE07B697A68134481
:1023F0001B781946F868FFF781FF7B6901337B6121
:102400007B69072BF1DD00BF00BF1837BD4680BDDB
:1024100080B586B000AFF86087ED020A0B46FB710D
:10242000D7ED027AFDEEE77A17EE903A3B613B6911
:1024300007EE903AF8EEE77A97ED027A77EE677A50
:102440009FED157A67EE877AFDEEE77A17EE903A00
:102450007B617B69002B02DA7B695B427B61FB79E4
:10246000012B0ED17B690D4A82FB03129210DB1700
:10247000D31A7B617B693A690949F86812F0D6FD85
:1024800005E07B693A690749F86812F0CFFD00BFA3
:102490001837BD4680BD00BF0000C842676666664B
:1024A0004C7F0108547F010880B483B000AF87EDF2
:1024B000010AC7ED000AD7ED007ADFED076A87EE63
:1024C000A67AD7ED017A77EE277AB0EE670A0C3755
:1024D000BD465DF8047B7047CDCC044180B586B025
:1024E00000AF07F10C0319462448FFF736F97B8A41
:1024F000B3F5FD6F19D37B8A40F63302934214D8AB
:102500007B7C002B11D07B7C0C2B0ED83B7C002BD2
:102510000BD03B7C1F2B08D8BB7B172B05D87B7BB4
:102520003B2B02D83B7B3B2B01D9012300E000234E
:102530007B617B69002B1CD03B1D00221A605A6016
:102540000F233B7206237B7240F2EA737B810023E8
:10255000BB7100237B7100233B713B1D194607486B
:10256000FFF7ABF8064B1A463B1D93E8030082E8E1
:10257000030000BF1837BD4680BD00BF68020020C1
:1025800084030020F0B59DB004AF786187ED040AA4
:10259000C7ED030A87ED021A084611461A4603469C
:1025A000FB710B46BB7113467B71002200217648FC
:1025B000FFF71CFE7B691B791D467B695B791E4614
:1025C0007B69DB881A467B699B7819467B695B7857
:1025D0001C467B691B7807F13C0003930294019130
:1025E000009233462A46694912F020FD002387F8FD
:1025F000503007F13C0319466348FFF721FE0122E2
:1026000000216148FFF7F2FD07F13003012197ED4A
:10261000040A1846FFF7FCFE5D4B1B7819462B2079
:10262000FFF7F8F80446FB79BA7907F1300107F1B2
:102630003C00019200930B462246192112F0C0FC87
:1026400054495148FFF7FCFD07F1300319464E4845
:10265000FFF7F6FD00214C48FFF750FE4E494A486F
:10266000FFF7EEFD07F130031846FDF709FE0346BC
:102670000233BB6507F13C02BB6D13441946424867
:10268000FFF7DEFD07F130031846FDF7F9FD0446BC
:1026900007F13C02BB6D13441846FDF7F1FD0346FC
:1026A00023440433FB6506E020213748FFF726FE6C
:1026B000FB6D0133FB65FB6D132BF5DD0222002161
:1026C0003148FFF793FD07F12403012197ED020A3A
:1026D0001846FFF79DFE07F11803012197ED030A45
:1026E0001846FFF795FE2A4B1B7819462C20FFF75A
:1026F00091F8014607F1240207F13C0007F11803A5
:10270000009313460A46192112F05AFC07F13C03C4
:102710001921184602F098FD07F13C0319461A48A2
:10272000FFF78EFD032200211748FFF75FFD184BCE
:102730001B7819462D20FFF76DF80146174B1A68D4
:10274000174B1B781C46174823465B0023449B000D
:10275000034408331B6807F13C00009313460A4604
:10276000192112F02DFC07F13C031921184602F043
:102770006BFD07F13C0319460348FFF761FD00BFFD
:102780006437BD46F0BD00BF8C0300205C7F0108AC
:10279000D71400207C7F0108807F01089814002056
:1027A000080000204883010880B582B000AF78603F
:1027B0004FF480537A680449044803F06FFD00BF6A
:1027C0000837BD4680BD00BF00F03F007C140020EC
:1027D00080B584B000AF78601049114803F0F9FC6F
:1027E0000023FB6010E0FB6803F57F1101F5405109
:1027F0007A68FB681A444FF48073094803F013FDAC
:10280000FB6803F58073FB60FB68B3F5805FEAD378
:1028100000BF00BF1037BD4680BD00BF00F03F00C5
:102820007C14002080B5ADF5805D82B000AF02461B
:1028300007F1080303F8012C07F1080313F8013C22
:10284000022B04D907F10803002203F8012C07F139
:1028500008031846FFF7A8FF07F108031A4607F117
:10286000080313F8013C137107F108031846FFF73A
:10287000AFFF00BF07F580570837BD4680BD80B564
:10288000ADF5805D82B000AF07F10803043B184648
:10289000FFF78AFF07F108031B7807F5805202F162
:1028A0000702137007F5805303F107031B78FF2B12
:1028B00006D007F5805303F107031B78022B01D9DB
:1028C000002304E007F5805303F107031B78184643
:1028D00007F580570837BD4680BD80B5ADF5805DF2
:1028E00082B000AF024607F1080323F8022C07F17B
:1028F000080333F9023C002B04DA07F10803002235
:1029000023F8022C07F1080333F9023C41F2883224
:10291000934205DD07F1080341F2883223F8022CC7
:1029200007F108031846FFF73FFF07F1080333F8E4
:10293000022C07F108031A8107F108031846FFF774
:1029400047FF00BF07F580570837BD4680BD80B5FB
:10295000ADF5805D82B000AF07F108031846FFF7C0
:1029600023FF07F108031A8907F1080323F8022C53
:1029700007F1080333F9023C002B07DB07F10803DA
:1029800033F9023C41F28832934201DD0B2303E02C
:1029900007F1080333F9023C184607F5805708375A
:1029A000BD4680BD80B5ADF5805D82B000AF02460A
:1029B00007F1080303F8012C07F108031846FFF795
:1029C000F3FE07F108031A4607F1080313F8013C68
:1029D000137007F108031846FFF7FAFE00BF07F56A
:1029E00080570837BD4680BD80B5ADF5805D82B0AB
:1029F00000AF07F10803043B1846FFF7D5FE07F1C7
:102A0000080313F8043C07F5805202F10702137023
:102A100007F5805303F107031B78FF2B06D007F55A
:102A2000805303F107031B78012B01D9012304E034
:102A300007F5805303F107031B78184607F5805705
:102A40000837BD4680BD000080B483B000AF0346A8
:102A5000FB710A4AFB791370FA79094913465B0046
:102A600013449B000B4404331B68064A136000BFE9
:102A70000C37BD465DF8047B704700BF080000209E
:102A8000488301080000002080B584B000AF002317
:102A9000FB600023FB7213E01A4803F02BFF642154
:102AA000184804F00EF8174804F0A6F90246FB682F
:102AB0001344FB60134803F0D1FFFB7A0133FB7230
:102AC000FB7A092BE8D9FB680F4AA2FB0323DB083A
:102AD000FB60FB6807EE903AB8EE677ADFED0B6AB1
:102AE000C7EE267A9FED0A7A67EE877A77EEA77AA5
:102AF000C7ED017A7B6807EE903AB0EE670A1037AF
:102B0000BD4680BD20020020CDCCCCCC00F07F455E
:102B10003333534080B485B000AF87ED010AD7ED61
:102B2000017A9FED197AF4EEC77AF1EE10FA01DB23
:102B3000642322E0D7ED017AB0EE087AF4EEC77A8A
:102B4000F1EE10FA01D8002317E0D7ED017AB0EECC
:102B5000087A37EEC77ADFED0D6AC7EE267A9FED69
:102B60000C7A67EE877AC7ED037AD7ED037AFCEE2D
:102B7000E77AC7ED007A3B78DBB218461437BD46DA
:102B80005DF8047B704700BF666686409899993F60
:102B90000000C84280B5ACB002AFBD48FFF716FBDD
:102BA00000220021BA48FFF721FBBA4B1B781946D7
:102BB0001420FEF72FFE03461946B548FFF740FBE9
:102BC00001220021B248FFF711FBB24B1B781946D6
:102BD0001520FEF71FFE03461946AD48FFF730FBF0
:102BE00002220021AA48FFF701FBAA4B1B781946D5
:102BF0001620FEF70FFE03461946A548FFF720FBF7
:102C00004FF4FA6003F00EFEA148FFF7DFFA00224E
:102C100000219F48FFF7EAFA9E4B1B7819461420C3
:102C2000FEF7F8FD034619469948FFF709FB03F044
:102C3000EDFDC7F8A400984803F002FC002387F8D4
:102C4000A330EFE097F8A330002B0DD002E00A206C
:102C500003F0E8FD03F0DAFD0246D7F8A430D31AFA
:102C600041F287329342F2D903F0D0FDC7F8A400B5
:102C70008A48FEF707FA87ED270A8848FEF74CFADC
:102C800087ED260A03F0C2FDC7F89400844B1B7839
:102C900087F8A230834B1B68D7F89420D31A41F2EF
:102CA0008732934211D98048FEF74CFB0346002B34
:102CB00007D07D4BDB7987F8A230794A97F8A230AC
:102CC0001370784AD7F894301360FFF7DDFE87ED74
:102CD000240A97ED240AFFF71DFF034687F88F307B
:102CE000724A97F88F30137007F1840319467048C1
:102CF000FEF733FDD7F89C303B67D7F898307B67F9
:102D000097F8A23087F8783097F88F3087F87930C5
:102D100007F17A0207F1840303CB1060516007F1D9
:102D20007003142219465C4803F060FB5A4803F014
:102D3000B1FC012200215648FFF758FA554B1B7889
:102D400019461720FEF766FD024697F8A3300133B7
:102D500007F15400192112F033F907F15403192136
:102D6000184602F071FA07F1540319464848FFF774
:102D700067FA022200214648FFF738FAD7F89C008C
:102D8000FDF7EAFB02460B4607F13800CDE90023C8
:102D9000484A192112F014F9D7F89800FDF7DCFB26
:102DA00002460B4607F11C00CDE90023424A1921D7
:102DB00012F006F907F1380319463548FFF740FAD3
:102DC00000213348FFF79AFA07F11C0319463048EF
:102DD000FFF736FA3846394B394A192112F0F0F824
:102DE000032200212A48FFF701FA97F8A22097F85A
:102DF0008F3007F1540000931346324A192112F024
:102E0000DFF807F154031921184602F01DFA07F103
:102E1000540319461E48FFF713FA97F8A3300133FD
:102E200087F8A33097F8A330092B7FF60BAF18482B
:102E3000FFF7CCF9012200211548FFF7D7F9154B10
:102E40001B7819461820FEF7E5FC03461946104882
:102E5000FFF7F6F9022200210D48FFF7C7F90D4BE5
:102E60001B7819461920FEF7D5FC03461946084879
:102E7000FFF7E6F940F6B83003F0D4FC124B00221D
:102E80001A700348FFF7A2F900BFA837BD4680BDFE
:102E90008C030020D71400207C1400205C03002049
:102EA000A01400209C14002078030020B4140020FB
:102EB00068020020847F01088C7F0108987F010848
:102EC0009C7F0108A07F0108B814002080B5C0B025
:102ED00002AF03F035FC00F089FE00F0A5FF00F022
:102EE000F1FE0AF043FE10F08BFF00F04FFF00F000
:102EF00017FF01F01DF80423142281498148FFF7D0
:102F0000F7F88048FFF762F901217E48FFF7AFF933
:102F10007D4A00217B48FFF74EFA7948FEF7B2FB65
:102F2000002200217748FFF761F978497548FFF7DB
:102F300087F9012200217348FFF758F97449714855
:102F4000FFF77EF9022200216E48FFF74FF9714921
:102F50006C48FFF775F94FF4FA6003F063FC6948B9
:102F6000FFF734F9002200216648FFF73FF96A496C
:102F70006448FFF765F94FF48053684A6849694827
:102F800003F0EBF8322003F04DFCFFF778FC03462A
:102F90001A46654B1A70FFF7DAFC03461A46634B74
:102FA0001A80634801F03EF84FF47A7003F03AFC5F
:102FB0005C4803F05DFA0346002B05D1594B002213
:102FC000DA60584B00221A61564803F025FB03468D
:102FD000002B06D1534B4FF400125A61514B002283
:102FE0009A61504803F0F6F90346524A136066238B
:102FF00087F8B730992387F8B63000224FF4805114
:10300000464804F0FBFB07F1B70164230122444862
:1030100008F0B3FB01224FF48051404804F0EEFB6E
:103020000A2003F0FFFB00224FF480513B4804F0DC
:10303000E5FB07F1B60164230122394808F09DFB46
:1030400001224FF48051354804F0D8FB642003F08E
:10305000E9FB9F2387F8B53007F1B00300210A464A
:103060001A800A469A7000224FF480512B4804F0CF
:10307000C5FB07F1B50164230122294808F07DFB57
:1030800007F1B00164230322254808F0BAFC0122AD
:103090004FF48051214804F0B1FB0122002119486E
:1030A000FFF7A4F897F8B030EF2B08D197F8B230BB
:1030B000162B04D120491348FFF7C2F857E097F8C0
:1030C000B030EF2B08D197F8B230152B04D11B4943
:1030D0000C48FFF7B5F84AE097F8B030EF2B31D144
:1030E00097F8B2301A4607F15C031549184611F0FB
:1030F0009DFF07F15C0319460248FFF7A1F836E08F
:10310000680200208C03002060830108B07F010862
:10311000C47F0108D87F0108E87F0108000402404D
:10312000BC0200207C140020D71400200A000020DC
:10313000B8140020981400200080010814800108B1
:103140002880010897F8B0301A4697F8B130194630
:1031500097F8B23007F1400000930B46644911F034
:1031600065FF07F1400319466248FFF769F84FF41D
:10317000FA6003F057FB022200215E48FFF736F8A1
:103180005D4B1B7819460620FEF744FB03461946A3
:103190005848FFF755F8FFF727FC03461A46574BE8
:1031A0001A70564B1B781846FFF74EFC642003F04C
:1031B00039FB514B1B7819460720FEF72BFB0246C3
:1031C0004E4B1B7818464E4903465B0003449B0058
:1031D0000B4408331B6807F19400192111F0F0FE2D
:1031E000002387F8A830022200214248FEF7FEFFA4
:1031F00007F1940319463F48FFF722F84FF4FA60AD
:1032000003F010FB3B48FEF7E1FF002200213948A4
:10321000FEF7ECFF384B1B7819460820FEF7FAFA48
:10322000034619463348FFF70BF83648FEF72AFAEB
:10323000034683F00103DBB2002B14D001220021EE
:103240002C48FEF7D3FF2C4B1B7819460A20FEF7BB
:10325000E1FA034619462748FEF7F2FF4FF47A7069
:1032600003F0E0FA15E0012200212248FEF7BEFF3C
:10327000214B1B7819460920FEF7CCFA0346194664
:103280001C48FEF7DDFF4FF47A7003F0CBFAFFF72E
:1032900025F9022200211748FEF7A8FF164B1B78DC
:1032A00019460B20FEF7B6FA034619461148FEF7F9
:1032B000C7FF032213491448FDF74EFE0346002BB7
:1032C00024D10C48FEF782FF012200210948FEF7B5
:1032D0008DFF094B1B7819460D20FEF79BFA03461C
:1032E00019460448FEF7ACFF642003F09BFAFBE7A5
:1032F000408001088C030020D71400200800002023
:1033000048830108680200205C030020022200219B
:10331000CA48FEF76BFFCA4B1B7819460C20FEF714
:1033200079FA03461946C548FEF78AFF4FF47A70CA
:1033300003F078FA03220021C048FEF757FFC04B84
:103340001B7819460E20FEF765FA03461946BB485E
:10335000FEF776FF0422BB49BB48FDF7D7FF0322E7
:103360000021B648FEF742FFB54B1B7819460F20E7
:10337000FEF750FA03461946B048FEF761FF4FF4D6
:103380007A7003F04FFA41F28831B04802F0D2F976
:10339000AA48FEF71BFF01220021A848FEF726FFDE
:1033A000A74B1B7819461120FEF734FA034619463D
:1033B000A248FEF745FF40F2DC5003F033FA9F4885
:1033C000FEF704FF012200219C48FEF70FFF9C4BF3
:1033D0001B7819461220FEF71DFA03461946974836
:1033E000FEF72EFF022200219448FEF7FFFE944BC9
:1033F0001B7819461320FEF70DFA034619468F482D
:10340000FEF71EFF9248FDF73DFE87ED3C0A90480F
:10341000FDF782FE87ED3B0A002387F8F7308A48E4
:10342000FDF790FF0346002B07D0874BDB7987F829
:10343000F730884A97F8F730137003F0E7F903463E
:10344000854A1360FFF720FB87ED3A0A97ED3A0AA9
:10345000FFF760FB03461A46804B1A7007F18C0396
:1034600019467F48FEF779F97E4AD7F8F0301360A5
:103470007D4AD7F8EC3013607C4BB3F9003007EE8F
:10348000903AF8EEE77AF0EE670A97ED3B0AFFF71D
:103490000BF8F0EE407A764BC3ED007AD7F8F030B7
:1034A000BB67D7F8EC30FB6797F8F73087F88030C8
:1034B0006A4B1B7887F8813007F1820207F18C0391
:1034C00003CB1060516007F1780314221946694854
:1034D00002F064FF684B1B680133674A1360664B58
:1034E0001968664BA3FB0123DA0813469B001344BB
:1034F0005B00CA1A002A02D15E4802F0F1FF0222E4
:1035000000214E48FEF772FE5D494C48FEF798FEDA
:103510004FF47A7003F086F94848FEF757FE03F03F
:1035200075F90346574A136010F090FC03F06EF9EA
:10353000C7F8E400544B1B78002B40F0CD80514B72
:103540001B68D7F8E420D21A504B1B689A42C0F08F
:10355000C3804D4B01221A704A4AD7F8E4301360F9
:103560003B48FDF78FFD87ED380A3948FDF7D4FD5C
:1035700087ED370A374B1B7887F8F630364B1B68D8
:10358000D7F8E420D31A41F28732934215D92E4856
:10359000FDF7D8FE034687F8DB3097F8DB30002BC9
:1035A00007D0294BDB7987F8F6302A4A97F8F630AE
:1035B0001370294AD7F8E4301360FFF765FA87EDF6
:1035C000350A97ED350AFFF7A5FA034687F8D33099
:1035D000224A97F8D330137007F138031946204870
:1035E000FEF7BBF81F4AD7F8E03013601E4AD7F841
:1035F000DC3013601D4BB3F9003007EE903AF8EE63
:10360000E77AF0EE670A97ED370AFEF74DFFF0EE26
:10361000407A174BC3ED007AD7F8E0307B62D7F8D9
:10362000DC30BB6297F8F63087F82C3097F8D3304F
:1036300087F82D3007F12E022AE000BF8C0300200E
:10364000D7140020000002407803002098030020D7
:103650005C030020A01400209C140020B41400205F
:1036600068020020A8140020AC1400200A000020EA
:10367000B01400207C14002098140020CDCCCCCCB9
:1036800058800108D8140020DC140020000000201D
:1036900007F1380303CB1060516007F124031422B3
:1036A00019467B4802F07AFE7A4B1B680133794A4F
:1036B0001360784B1968784BA3FB0123DA08134693
:1036C0009B0013445B00CA1A002A02D1704802F022
:1036D00007FF724B00221A70714800F011FD03467B
:1036E000002B5ED06F4B1B68D7F8E420D31AB3F5DC
:1036F000FA6F56D36B4AD7F8E43013606A48FDF787
:10370000C1FC87ED330A6848FDF706FD87ED320AF4
:10371000664B1B7887F8C730654B1B68D7F8E420E9
:10372000D31A41F28732934215D96248FDF70AFE57
:10373000034687F8C63097F8C630002B07D05D4B9C
:10374000DB7987F8C730594A97F8C7301370584A61
:10375000D7F8E4301360FFF797F987ED300A97ED5B
:10376000300AFFF7D7F903461A46534B1A70534AEB
:10377000D7F8CC301360524AD7F8C8301360514B99
:10378000B3F9003007EE903AF8EEE77AF0EE670A08
:1037900097ED320AFEF788FEF0EE407A4A4BC3ED11
:1037A000007A4A4802F00EF8494B1B78022B23D1CD
:1037B000484B1B78002B1FD1474B1B78002B1BD18C
:1037C000444B01221A70444B01221A70434B0022D1
:1037D0001A704348FEF7FAFC002200214048FEF729
:1037E00005FD404B1B7819460020FEF713F80346F1
:1037F00019463B48FEF724FD354B1B78022B0CD0B5
:10380000344B00221A70344B1B78002B05D0324BFE
:1038100000221A703248FEF7D9FC2F4B1B78002B80
:1038200000F07B81022200212D48FEF7DFFC2B4BAC
:103830001B78002B0BD12B4B1B7819462420FDF74E
:10384000E9FF034619462648FEF7FAFC0AE0254B35
:103850001B7819462220FDF7DDFF03461946204854
:10386000FEF7EEFC032200211D48FEF7BFFC1B4BB8
:103870001B78012B38D11B4B1B7819462520FDF7EF
:10388000C9FF034619461648FEF7DAFC37E000BFC9
:103890007C14002098140020CDCCCCCCDC1400206B
:1038A000B8140020E01400205C030020A0140020C5
:1038B0009C14002078030020B4140020A8140020D9
:1038C000AC1400200A000020B0140020980300204F
:1038D0003C2B0020D6140020D4140020D514002046
:1038E0008C030020D7140020AB4B1B7819462320F3
:1038F000FDF790FF03461946A848FEF7A1FC0221F8
:10390000A74803F063FF0346002B10D1A54B1B789B
:10391000002B0CD1A34B01221A70A34B1B78002B58
:1039200005D0A14B1B78013BDAB29F4B1A700221E4
:103930009B4803F04BFF0346012B02D1994B002219
:103940001A700821964803F041FF0346002B10D15E
:10395000964B1B78002B0CD1944B01221A70924B82
:103960001B78002B05D1904B1B780133DAB28E4BBC
:103970001A7008218A4803F029FF0346012B02D15F
:103980008A4B00221A700121854803F01FFF03466D
:10399000002B40F0B780864B1B78002B40F0B280A4
:1039A000834B01221A70804B1B78002B40F0A480BF
:1039B000804802F00FFDC7F8BC007E4802F034FDDD
:1039C000C7F8B800D7F8BC30002B1BD1D7F8B830F7
:1039D000002B17D17148FEF7F9FB012200216F4837
:1039E000FEF704FC6C4B1B7819460520FDF712FF0F
:1039F000034619466948FEF723FC4FF4FA6002F0CB
:103A000011FF79E06548FEF7E1FB002200216348E1
:103A1000FEF7ECFB604B1B7819460120FDF7FAFE20
:103A2000034619465D48FEF70BFC012200215B4866
:103A3000FEF7DCFB381DD7F8B830D7F8BC205E495C
:103A400011F0F4FA3B1D19465448FEF7F9FB022227
:103A500000215248FEF7CAFB4F4B1B781946022043
:103A6000FDF7D8FE034619464C48FEF7E9FB012353
:103A700087F8F530012387F8F430D7F8BC30002BF5
:103A800005D04E4801F0BEFF034687F8F530D7F861
:103A9000B830002B05D0494802F076F9034687F884
:103AA000F4303E48FEF792FB012200213B48FEF72E
:103AB0009DFB97F8F530002B0FD097F8F430002BD2
:103AC0000BD0354B1B7819460320FDF7A3FE0346A8
:103AD00019463248FEF7B4FB0AE02F4B1B78194613
:103AE0000420FDF797FE034619462C48FEF7A8FB75
:103AF00040F6B83002F096FE314B00221A7027488B
:103B0000FEF764FB0121264803F060FE0346012B0B
:103B10003ED1274B00221A703AE02A4B2A4A1F490D
:103B20002A4800F0FFFA294B1B78042B01D1FFF73C
:103B300031F8264800F0E4FA0346002B28D0244B45
:103B40001B68D7F8E420D21A224B1B689A421FD375
:103B50001F4AD7F8E43013601A491B48FDF7FDFDF2
:103B60001D4BD3ED007A1D4B93ED007A1C4BD3ED2A
:103B7000006A1C4B19781C4B1A78104B1B78B0EE5E
:103B8000661AF0EE470AB0EE670A0E48FEF7FAFC36
:103B90000A2002F047FEC7E4D71400208C0300205F
:103BA00000000240E4140020D5140020E514002099
:103BB000E61400207C140020708001089803002087
:103BC000D41400208403002068020020B8140020D0
:103BD000A414002004000020A8140020AC1400202D
:103BE000B0140020A0140020B414002080B594B0BC
:103BF00000AF07F1200330220021184611F07BFAB4
:103C000007F10C0300221A605A609A60DA601A61A8
:103C10000023BB60294B1B6C284A43F0805313647C
:103C2000264B1B6C03F08053BB60BB6800237B609A
:103C3000234B1B6823F44043214A43F400431360A1
:103C40001F4B1B6803F440437B607B6801233B628E
:103C50004FF480337B620223BB634FF48003FB632A
:103C600019233B644FF4A8737B640423BB640723CC
:103C7000FB6407F12003184607F0B2F80346002B57
:103C800001D000F0A7F90F23FB6002233B61002362
:103C90007B614FF48053BB610023FB6107F10C0390
:103CA0000221184607F014FB0346002B01D000F058
:103CB00091F900BF5037BD4680BD00BF00380240BB
:103CC0000070004080B500AF124B134A1A60114BD0
:103CD000124A5A600F4B00229A600E4B0022DA60A3
:103CE0000C4B4FF480421A610A4B00225A61094B77
:103CF00000229A61074B0022DA61064B00221A6209
:103D0000044805F0C9FE0346002B01D000F062F91B
:103D100000BF80BD6802002000540040A086010062
:103D200080B500AF174B184A1A60164B4FF48272D9
:103D30005A60144B00229A60124B0022DA60114B39
:103D400000221A610F4B00225A610E4B4FF4007291
:103D50009A610C4B1022DA610A4B00221A62094B5D
:103D600000225A62074B00229A62064B0A22DA624C
:103D7000044807F079FC0346002B01D000F02AF933
:103D800000BF80BDBC0200200038004080B586B076
:103D900000AF07F1080300221A605A609A60DA60E7
:103DA0003B4600221A605A601E4B4FF080421A6058
:103DB0001C4B4AF20F425A601A4B00229A60194B70
:103DC00040F2E732DA60174B00221A61154B80226D
:103DD0009A61144808F01AFA0346002B01D000F04B
:103DE000F9F84FF48053BB6007F1080319460D48FA
:103DF00008F04BFB0346002B01D000F0EBF800234A
:103E00003B6000237B603B461946064808F056FDA0
:103E10000346002B01D000F0DDF800BF1837BD4687
:103E200080BD00BF1403002080B588B000AF07F14B
:103E30000C0300221A605A609A60DA601A6100234B
:103E4000BB60384B1B6B374A43F080031363354B21
:103E50001B6B03F08003BB60BB6800237B60314BAE
:103E60001B6B304A43F0010313632E4B1B6B03F0B3
:103E700001037B607B6800233B602A4B1B6B294A54
:103E800043F002031363274B1B6B03F002033B60F9
:103E90003B6801224FF48051234803F0AFFC3B23E1
:103EA000FB6000233B6101237B6107F10C03194692
:103EB0001E4803F007FB0423FB6000233B61002343
:103EC0007B6107F10C031946184803F0FBFA4FF425
:103ED0008053FB6001233B6100237B610323BB61B3
:103EE00007F10C031946104803F0ECFA0423FB60B9
:103EF00000233B6100237B6107F10C0319460B484B
:103F000003F0E0FA3B23FB6000233B6101237B616C
:103F100007F10C031946054803F0D4FA00BF203717
:103F2000BD4680BD0038024000040240000002404F
:103F300080B584B000AF3B4600221A605A609A6098
:103F4000DA60214B214A1A601F4B4FF480325A60CD
:103F50001D4B00229A601C4B00221A611A4B002252
:103F60001A76194B002283F82020174B0022DA62C0
:103F7000154B174A9A62144B0022DA60124B012249
:103F8000DA61114B002283F830200F4B01225A6175
:103F90000D4802F06BFC0346002B01D000F01AF82C
:103FA00007233B6001237B600023BB603B4619462F
:103FB000054802F04DFF0346002B01D000F00AF83F
:103FC00000BF1037BD4680BD200200200020014008
:103FD0000100000F80B400AF72B600BF00BFFDE764
:103FE00080B483B000AF0346FB71FB79022B0AD08B
:103FF000022B0ADC002B02D0012B02D005E0064B7D
:1040000004E0064B02E0064B00E0034B18460C3779
:10401000BD465DF8047B70478880010894800108E4
:10402000A080010880B483B000AF78607B68002274
:104030001A707B6800225A707B6800229A707B6835
:1040400000225A607B6800221A72104B1A787B6833
:104050009A747B6800229A757B6800225A750C4B13
:10406000B3F900207B681A830A4B1A787B68DA74EC
:104070007B68DB7C022B02D97B680022DA7400BFEC
:104080000C37BD465DF8047B704700BF0800002078
:104090000A000020D714002080B500AF0121174886
:1040A00003F094FB0346002B01D1012324E00221FD
:1040B000124803F08BFB0346002B01D102231BE0C7
:1040C00008210E4803F082FB0346002B01D1032395
:1040D00012E01021094803F079FB0346002B01D1BF
:1040E000042309E02021054803F070FB0346002B60
:1040F00001D1052300E00023184680BD00000240E6
:1041000080B483B000AF78607B681B78002B0CBF55
:1041100001230023DBB218460C37BD465DF8047B53
:104120007047000080B588B002AFF860B9607A606F
:104130003B60FFF7B1FF0346FB75FB7D002B0BD007
:1041400002F064FB3861FB685B683A69D31A272B7D
:104150005AD9FB683A695A60FB681B78072B55D817
:1041600001A252F823F000BF89410008B1410008C4
:10417000C3410008D14100080D420008DF4100089A
:10418000FB410008ED410008FB7D012B40D1FB689D
:1041900001221A70FB6800225A70FB6800229A758F
:1041A000B868FEF713F8B968F86800F055F92FE021
:1041B000F97D3B6800937B68BA68F86800F012FAF2
:1041C00027E0F97D7B68BA68F86800F08DFE20E092
:1041D000FB7DBA681946F86800F01EF819E0FB7D0F
:1041E000BA681946F86800F007FB12E0FB7DBA6870
:1041F0001946F86800F0FEFB0BE0FB7DBA68194633
:10420000F86800F07DF904E000BF02E000BF00E0C4
:1042100000BF1837BD4680BD80B584B000AFF860E0
:104220000B467A60FB72FB7A013B042B59D801A242
:1042300052F823F08542000849420008674200080E
:10424000D5420008D5420008FB689B7C002B4AD071
:10425000FB689B7C013BDAB2FB689A747968F8686A
:1042600000F0ECFD3FE0FB689B7C002B3DD1FB6840
:104270009B7C0133DAB2FB689A747968F86800F0C5
:10428000DDFD32E0FB689B7C1846FEF7DDFBFB683A
:104290009B7C1846FEF786FB7868FDF797FF0122A6
:1042A00000217868FDF7A2FF124B1B7819462A20DF
:1042B000FDF7B0FA034619467868FDF7C1FF4FF4E1
:1042C000487002F0AFFAFB6800221A707868FDF7B8
:1042D0007DFF0BE0FB6800221A707868FDF776FF1F
:1042E00004E000BF02E000BF00E000BF00BF1037E5
:1042F000BD4680BDD714002080B58CB002AF786079
:104300003960002200213868FDF770FF324B1B78BE
:1043100019462E20FDF77EFA034619463868FDF748
:104320008FFF012200213868FDF760FF2A4B1B78C0
:1043300019462F20FDF76EFA034619463868FDF737
:104340007FFF254B1B7819463020FDF763FA786212
:10435000214B1B7819463120FDF75CFA38627B68E7
:104360005B7D002B09D107F108003B6A00937B6A53
:104370001A4A152110F024FE08E007F108003B6AF4
:1043800000937B6A164A152110F01AFE07F1080304
:104390001521184600F058FF022200213868FDF769
:1043A00025FF07F1080319463868FDF749FF032286
:1043B00000213868FDF71AFF074B1B781946352096
:1043C000FDF728FA034619463868FDF739FF00BFA4
:1043D0002837BD4680BD00BFD7140020A880010843
:1043E000BC80010880B58AB000AF786008461146ED
:1043F0001A460346FB700B46BB7013467B70154B89
:104400001A78BB7811461846FDF704FA786207F16E
:104410000C031422796A184610F084FE002387F8F2
:1044200020307B78002B04D13B7B3E2B01D1202315
:104430003B73FB781A4600217868FDF7D7FE07F139
:104440000C0319467868FDF7FBFE00BF2837BD4610
:1044500080BD00BFD714002080B584B000AF786065
:1044600039607B685A787B689B7D9A4204D27B686E
:104470005A787B689A750CE07B689B7D03337A6879
:104480005278934205DA7B685B78033BDAB27B684B
:104490009A750023FB7326E07B689A7DFB7B1344AF
:1044A000BB73BB7B052B11D87B685B78BA7B9A42C8
:1044B0000CBF01230023DBB27B73BB7B0E4AD25CB3
:1044C0007B7BF97B3868FFF78DFF09E0FB7B1A46A1
:1044D00000213868FDF78AFE08493868FDF7B0FE0C
:1044E000FB7B0133FB73FB7B032BD5D900BF00BFE4
:1044F0001037BD4680BD00BF68830108D080010829
:1045000080B584B000AFF8600B467A60FB72FB7A2E
:10451000012B10D0002B5ADD043B012B57D8FB6830
:104520005B7DC3F10103DAB2FB685A757968F868FC
:10453000FFF7E2FE4CE0FB685B7D002B0AD1FB68D5
:1045400001221A707868FDF741FE7968F868FFF774
:1045500083FF3DE07868FDF739FE0122002178688D
:10456000FDF744FE1C4B1B7819463420FDF752F929
:10457000034619467868FDF763FE962002F052F96B
:10458000164801F0B2FD154801F05AFF144B002205
:104590001A607868FDF71AFE012200217868FDF79D
:1045A00025FE0D4B1B7819463220FDF733F90346E3
:1045B00019467868FDF744FE4FF4966002F032F930
:1045C000FB6800221A707868FDF700FE00E000BF6B
:1045D0001037BD4680BD00BFD71400207C140020DA
:1045E0009814002080B584B000AFF8607A603B601A
:1045F0000B46FB72FB7A013B042B00F2AB8001A25D
:1046000052F823F0594600081946000839460008B8
:104610004747000847470008FB685B78002B00F01D
:104620009B80FB685B78013BDAB2FB685A70796863
:10463000F868FFF711FF8FE0FB685B78042B00F24E
:104640008D80FB685B780133DAB2FB685A70796859
:10465000F868FFF701FF81E0FB685B78002B14D15D
:10466000FB6802221A70FB6800229A70FB680A330A
:104670000822B969184610F0FCFD7868FDF7A6FD20
:104680007968F86800F030FA6AE0FB685B78012B23
:104690000ED1FB6803221A70344B1A78FB689A74A7
:1046A0007868FDF793FD7968F86800F0C7FB57E07C
:1046B000FB685B78022B15D1FB6805221A702C4B26
:1046C0001A78FB68DA74FB68DB7C022B02D9FB6882
:1046D0000022DA747868FDF779FD7968F86800F0EF
:1046E0004BF83DE0FB685B78032B0FD1FB6807229A
:1046F0001A70204BB3F90020FB681A837868FDF725
:1047000065FD7968F86800F00DF929E0FB685B78D1
:10471000042B06D1FB6804221A707868FDF756FD59
:104720001EE0FB685B78052B1AD1FB6806221A7025
:10473000FB6800225A757868FDF748FD7968F868CB
:10474000FFF7DAFD0CE0FB6800221A707868FDF7CD
:104750003DFD06E000BF04E000BF02E000BF00E056
:1047600000BF00BF1037BD4680BD00BF080000205D
:10477000D71400200A00002080B582B000AF786016
:104780003960002200213868FDF730FD194B1B7895
:1047900019463620FDF73EF8034619463868FDF7FE
:1047A0004FFD012200213868FDF720FD114B1B78D9
:1047B00019463720FDF72EF8034619463868FDF7ED
:1047C0003FFD3968786800F0EDF803220021386871
:1047D000FDF70CFD074B1B7819463820FDF71AF83A
:1047E000034619463868FDF72BFD00BF0837BD4664
:1047F00080BD00BFD714002080B584B000AFF86042
:104800000B467A60FB72FB7A013B042B58D801A25D
:1048100052F823F065480008294800084748000876
:10482000B3480008B3480008FB68DB7C002B49D084
:10483000FB68DB7C013BDAB2FB68DA747968F86804
:1048400000F0B0F83EE0FB68DB7C012B3CD8FB6855
:10485000DB7C0133DAB2FB68DA747968F86800F05F
:10486000A1F831E0FB68DA7C1A4B1A70194B1B78FF
:104870001846FDF7D7FF7868FDF7A8FC0122002154
:104880007868FDF7B3FC134B1B7819463920FCF709
:10489000C1FF034619467868FDF7D2FC4FF4487013
:1048A00001F0C0FFFB6800221A707868FDF78EFCEB
:1048B0000BE0FB6800221A707868FDF787FC04E0C3
:1048C00000BF02E000BF00E000BF00BF1037BD46E0
:1048D00080BD00BFD714002080B588B000AF7860DD
:1048E00039607B68B3F9183007F108000C4A1521CC
:1048F00010F066FB07F108031521184600F0A4FC30
:10490000022200213868FDF771FC07F108031946FF
:104910003868FDF795FC00BF2037BD4680BD00BF5D
:10492000E880010880B582B000AF7860396000226D
:1049300000213868FDF75AFC194B1B7819463B20BB
:10494000FCF768FF034619463868FDF779FC012239
:1049500000213868FDF74AFC114B1B7819463C20B2
:10496000FCF758FF034619463868FDF769FC3968BB
:104970007868FFF7B1FF032200213868FDF736FCA5
:10498000074B1B7819463D20FCF744FF03461946A8
:104990003868FDF755FC00BF0837BD4680BD00BF35
:1049A000D714002080B588B000AF786039607B688C
:1049B000DB7C1846FFF714FB034607F108000C4A9E
:1049C000152110F0FDFA07F108031521184600F033
:1049D0003BFC022200213868FDF708FC07F10803C0
:1049E00019463868FDF72CFC00BF2037BD4680BD56
:1049F000F480010880B584B000AFF8600B467A609F
:104A0000FB72FB7A013B042B64D801A252F823F01D
:104A1000754A0008254A00084F4A0008C74A00089E
:104A2000C74A0008FB68B3F9183041F28732934255
:104A300008DCFB68B3F918309BB201339BB21AB2A1
:104A4000FB681A837968F868FFF746FF43E0FB6864
:104A5000B3F91830002B08DDFB68B3F918309BB2AE
:104A6000013B9BB21AB2FB681A837968F868FFF7BA
:104A700033FF30E0FB68B3F91820194B1A80184B4C
:104A8000B3F900301846FDF728FF7868FDF79EFB64
:104A9000012200217868FDF7A9FB124B1B7819460B
:104AA0003E20FCF7B7FE034619467868FDF7C8FBC1
:104AB0004FF4487001F0B6FEFB6800221A70786867
:104AC000FDF784FB07E0FB6800221A707868FDF7A9
:104AD0007DFB00E000BF00BF1037BD4680BD00BFBA
:104AE0000A000020D714002080B5A2B002AF786081
:104AF0003960002200213868FDF778FBC44B1B7831
:104B000019461F20FCF786FE034619463868FDF754
:104B100097FB002387F84C307B689B78002B09D1EA
:104B20007B681B8A1A4607F16403BA49184610F0DD
:104B30007DFA08E07B681B8A1A4607F16403B649D0
:104B4000184610F073FA07F1640207F14C0311469E
:104B5000184610F0D8FA07F14C031846FBF790FB03
:104B600003461A4607F14C031344AC491A460B4658
:104B70001B8813807B689B78012B09D17B68DB7BCA
:104B80001A4607F16403A649184610F04FFA08E0E8
:104B90007B68DB7B1A4607F16403A249184610F0D4
:104BA00045FA07F1640207F14C031146184610F06C
:104BB000AAFA07F14C031846FBF762FB03461A46B4
:104BC00007F14C03134495491A460B461B88138082
:104BD0007B689B78022B09D17B689B7B1A4607F187
:104BE00064038F49184610F021FA08E07B689B7B2C
:104BF0001A4607F164038B49184610F017FA07F1BB
:104C0000640207F14C031146184610F07CFA07F1D4
:104C10004C031521184600F017FB012200213868CB
:104C2000FDF7E4FA07F14C0319463868FDF708FB75
:104C3000002387F834307B689B78032B09D17B688D
:104C40001B7B1A4607F164037549184610F0EEF90C
:104C500008E07B681B7B1A4607F16403714918461C
:104C600010F0E4F907F1640207F134031146184625
:104C700010F049FA07F134031846FBF701FB03462D
:104C80001A4607F13403134467491A460B461B883A
:104C900013807B689B78042B09D17B68DB7A1A46EA
:104CA00007F164035E49184610F0C0F908E07B681C
:104CB000DB7A1A4607F164035A49184610F0B6F930
:104CC00007F1640207F134031146184610F01BFA8D
:104CD00007F134031846FBF7D3FA03461A4607F1E7
:104CE0003403134450491A460B461B8813807B68D3
:104CF0009B78052B09D17B689B7A1A4607F16403E0
:104D00004749184610F092F908E07B689B7A1A46EA
:104D100007F164034349184610F088F907F164026B
:104D200007F134031146184610F0EDF907F134038A
:104D30001521184600F088FA022200213868FDF794
:104D400055FA07F1340319463868FDF779FA00235C
:104D50003B772F4B1B7819462020FCF75BFD034661
:104D600007F11400314A082110F02AF9284B1B786A
:104D700019462120FCF74EFD034607F108002B4A97
:104D80000A2110F01DF97B689B78062B0CD107F1E6
:104D90001403013307F11C0007F108020092244AB2
:104DA000152110F00DF91EE07B689B78072B0ED1C2
:104DB00007F11402013207F10803013307F11C0067
:104DC000009313461B4A152110F0FAF80BE007F187
:104DD0001403013307F11C0007F108020092164A80
:104DE000152110F0EDF807F11C031521184600F00D
:104DF0002BFA032200213868FDF7F8F907F11C03AC
:104E000019463868FDF71CFA00BF8037BD4680BDE3
:104E1000D7140020008101080881010810810108D1
:104E2000148101081C8101082481010828810108DE
:104E30002C810108388101084481010880B58AB0BD
:104E400000AF786039607B689B7C012B02D97B685E
:104E500000229A74002200213868FDF7C7F91F4B21
:104E60001B7819462820FCF7D5FC034619463868FC
:104E7000FDF7E6F9022200213868FDF7B7F97B68F3
:104E80009B7C1946164A0B465B000B449B0013445F
:104E900008331A6807F10C031249184610F0C6F8D7
:104EA000002387F8203007F10C0319463868FDF716
:104EB000C7F9032200213868FDF798F9074B1B78E2
:104EC00019462920FCF7A6FC034619463868FDF769
:104ED000B7F900BF2837BD4680BD00BFD7140020FA
:104EE000488301085081010880B584B000AFF860A4
:104EF0007A603B600B46FB72FB7A013B042B00F2AD
:104F00008D8001A252F823F0894F00081D4F000840
:104F1000354F00086B4F00084D4F0008FB689B7829
:104F2000052B7DD8F86800F08BF87968F868FFF7F2
:104F3000DBFD75E0FB689B78052B73D8F86800F003
:104F400001F97968F868FFF7CFFD6BE0FB689B78A3
:104F5000062B69D8FB689B780133DAB2FB689A703C
:104F60007968F868FFF7C0FD5EE0FB689B78002B6E
:104F70005CD0FB689B78013BDAB2FB689A70796879
:104F8000F868FFF7B1FD51E0FB689B78062B1DD157
:104F90007868FDF71BF9012200217868FDF726F9F2
:104FA000264B1B7819462720FCF734FC034619468C
:104FB0007868FDF745F94FF4487001F033FCFB6861
:104FC00000221A707868FDF701F931E0FB689B78E0
:104FD000072B2DD1FB680A3319463868FCF76DFBA7
:104FE0007868FDF7F3F8012200217868FDF7FEF8F4
:104FF000124B1B7819462620FCF70CFC0346194679
:105000007868FDF71DF94FF47A7001F00BFCFB682E
:1050100000221A707868FDF7D9F809E000BF08E0AF
:1050200000BF06E000BF04E000BF02E000BF00E0F8
:1050300000BF00BF1037BD4680BD00BFD7140020A1
:1050400080B483B000AF78607B689B78052B66D80E
:1050500001A252F823F000BF7150000893500008DD
:10506000AF500008CB500008E7500008035100087B
:105070007B681B8A01339AB27B681A827B681B8A21
:1050800040F6330293424CD97B684FF4FA621A829D
:1050900047E07B68DB7B0133DAB27B68DA737B68DD
:1050A000DB7B0C2B3FD97B680122DA733BE07B680A
:1050B0009B7B0133DAB27B689A737B689B7B1F2BE7
:1050C00033D97B6801229A732FE07B681B7B013305
:1050D000DAB27B681A737B681B7B172B27D97B6836
:1050E00000221A7323E07B68DB7A0133DAB27B6833
:1050F000DA727B68DB7A3B2B1BD97B680022DA7281
:1051000017E07B689B7A0133DAB27B689A727B681E
:105110009B7A3B2B0FD97B6800229A720BE000BF71
:105120000AE000BF08E000BF06E000BF04E000BFE7
:1051300002E000BF00E000BF00BF0C37BD465DF8D5
:10514000047B704780B483B000AF78607B689B7845
:10515000052B65D801A252F823F000BF7551000855
:1051600095510008B1510008CD510008E9510008DF
:10517000055200087B681B8A013B9AB27B681A8241
:105180007B681B8AB3F5FA6F4CD27B6840F633021A
:105190001A8247E07B68DB7B013BDAB27B68DA731B
:1051A0007B68DB7B002B3FD17B680C22DA733BE012
:1051B0007B689B7B013BDAB27B689A737B689B7B45
:1051C000002B33D17B681F229A732FE07B681B7BF7
:1051D000013BDAB27B681A737B681B7B172B27D9DC
:1051E0007B6817221A7323E07B68DB7A013BDAB213
:1051F0007B68DA727B68DB7A3B2B1BD97B683B22AE
:10520000DA7217E07B689B7A013BDAB27B689A72AC
:105210007B689B7A3B2B0FD97B683B229A720BE011
:1052200000BF0AE000BF08E000BF06E000BF04E0E6
:1052300000BF02E000BF00E000BF00BF0C37BD466A
:105240005DF8047B704700BF80B584B000AF786024
:105250003960396878680FF078FFF860FB68142BC4
:1052600001D91423FB60FB68BB6007E07A68BB6868
:10527000134420221A70BB680133BB60BB68132B38
:10528000F4D97B68143300221A7000BF1037BD4672
:1052900080BD000080B483B000AF00237B60104B62
:1052A0005B6C0F4A43F4804353640D4B5B6C03F417
:1052B00080437B607B6800233B60094B1B6C084A82
:1052C00043F080531364064B1B6C03F080533B6028
:1052D0003B6800BF0C37BD465DF8047B704700BFDC
:1052E0000038024080B58AB000AF786007F114033F
:1052F00000221A605A609A60DA601A617B681B6843
:105300001B4A93422FD100233B611A4B5B6C194A15
:1053100043F480735364174B5B6C03F480733B61FD
:105320003B690023FB60134B1B6B124A43F00103E4
:105330001363104B1B6B03F00103FB60FB688023BE
:105340007B610323BB610023FB6107F11403194652
:10535000094802F0B7F800220021122002F07BF881
:10536000122002F094F800BF2837BD4680BD00BF70
:1053700000200140003802400000024080B58AB0A1
:1053800000AF786007F1140300221A605A609A6037
:10539000DA601A617B681B68194A93422BD100239B
:1053A0003B61184B1B6B174A43F002031363154B09
:1053B0001B6B03F002033B613B69C0237B6112233B
:1053C000BB610023FB6103233B6204237B6207F183
:1053D000140319460C4802F075F80023FB60094BD2
:1053E0001B6C084A43F400131364064B1B6C03F454
:1053F0000013FB60FB6800BF2837BD4680BD00BFBF
:1054000000540040003802400004024080B58AB0D9
:1054100000AF786007F1140300221A605A609A60A6
:10542000DA601A617B681B68194A93422CD1002309
:105430003B61184B1B6C174A43F480431364154BB4
:105440001B6C03F480433B613B690023FB60114B01
:105450001B6B104A43F0020313630E4B1B6B03F0EC
:105460000203FB60FB684FF460437B610223BB6176
:105470000023FB6103233B6205237B6207F11403D6
:105480001946054802F01EF800BF2837BD4680BD0A
:1054900000380040003802400004024080B584B06B
:1054A00000AF78607B681B68B3F1804F15D1002393
:1054B000FB600C4B1B6C0B4A43F001031364094B5C
:1054C0001B6C03F00103FB60FB68002205211C201C
:1054D00001F0C1FF1C2001F0DAFF00BF1037BD460C
:1054E00080BD00BF0038024080B400AF00BFFDE7C0
:1054F00080B400AF00BFFDE780B400AF00BFFDE7A0
:1055000080B400AF00BFFDE780B400AF00BFFDE78F
:1055100080B400AF00BFBD465DF8047B704780B427
:1055200000AF00BFBD465DF8047B704780B400AF9C
:1055300000BFBD465DF8047B704780B500AF01F049
:1055400051F900BF80BD000080B500AF024801F0F6
:1055500043FB00BF80BD00BF2002002080B500AF2C
:10556000024806F0A2FE00BF80BD00BF1403002069
:1055700080B500AF024802F03BFC00BF80BD00BF19
:10558000402B002080B400AF01231846BD465DF8D3
:10559000047B704780B582B000AF786039600FF04F
:1055A0003BFE034616221A604FF0FF3318460837B9
:1055B000BD4680BD80B582B000AF78604FF0FF314E
:1055C0007868FFF7E7FF00BFFDE780B586B000AF62
:1055D000F860B9607A6000237B610AE0AFF3008075
:1055E0000146BB685A1CBA60CAB21A707B690133A3
:1055F0007B617A697B689A42F0DB7B6818461837D2
:10560000BD4680BD80B586B000AFF860B9607A60F5
:1056100000237B6109E0BB685A1CBA601B781846FE
:10562000AFF300807B6901337B617A697B689A42C2
:10563000F1DB7B6818461837BD4680BD80B483B067
:1056400000AF78604FF0FF3318460C37BD465DF869
:10565000047B704780B483B000AF786039603B68EA
:105660004FF400525A60002318460C37BD465DF8CF
:10567000047B704780B483B000AF78600123184684
:105680000C37BD465DF8047B704780B485B000AF31
:10569000F860B9607A60002318461437BD465DF89B
:1056A000047B704780B586B000AF7860144A154B14
:1056B000D31A7B617B693B61134B1B68002B02D1C2
:1056C000114B124A1A60104B1A687B6813443A69EE
:1056D0009A4207D20FF0A0FD03460C221A604FF049
:1056E000FF3309E0084B1B68FB60074B1A687B68B7
:1056F0001344054A1360FB6818461837BD4680BD41
:105700000000012000040000E81400207030002098
:1057100080B400AF064BD3F88830054A43F47003D9
:10572000C2F8883000BFBD465DF8047B704700BFFB
:1057300000ED00E080B582B000AF786039607B6832
:1057400000221A707B6800225A707B6803F5805330
:105750001A463B68C2F8D8307B6803F580531A4676
:105760000023C2F8D4307B6803F580531A46002327
:10577000C2F8DC307B6803F58053002283F8E02018
:105780007B6803F58053002283F8E1207B6803F5F2
:105790008053002283F8E2207B6803F581531433A1
:1057A0002022002118460FF0A6FC7B6803F58253E7
:1057B00014338022002118460FF09DFC00BF0837EB
:1057C000BD4680BD80B582B000AF78607B681B7835
:1057D000052B27D801A252F823F000BFF557000887
:1057E000FD570008055800080D5800081558000816
:1057F0001D580008786800F019F813E0786800F088
:1058000035F80FE0786800F053F80BE0786800F0A6
:1058100073F807E0786800F093F803E0786800F028
:10582000D0F800BF00BF0837BD4680BD80B483B04C
:1058300000AF78607B6803F58053002283F8E02096
:105840007B6803F58053002283F8E120064B1B7828
:10585000022B02D17B6801221A7000BF0C37BD46B3
:105860005DF8047B704700BF3C2B002080B483B000
:1058700000AF78600D4B1B78022B09D17B6803F5D4
:105880008053012283F8E0207B6802221A7006E030
:10589000064B1B78032B02D17B6800221A7000BFD5
:1058A0000C37BD465DF8047B704700BF3C2B0020E1
:1058B00080B582B000AF786000220D490D480DF030
:1058C00033FD0346002B09D17B6803F58053012289
:1058D00083F8E1207B6803221A7005E07B680222CE
:1058E0005A707B6805221A7000BF0837BD4680BD1C
:1058F000F4140020F814002080B582B000AF786066
:105900000E4B1B78022B14D07B6803F5805393F861
:10591000E230002B0AD07B68043318460EF024F9DD
:105920007B6803F58053002283F8E2207B68002225
:105930001A7000BF0837BD4680BD00BF3C2B002059
:10594000B0B584B000AF78607B681D1D7B6803F53F
:10595000825414347B6803F5825314331846FAF7E3
:105960008FFC024607F10C03214628460DF0EAFEA3
:105970000346002B1BD17B68043318460EF076F8E3
:105980007B6803F58053D3F8DC3001337A6802F585
:105990008052C2F8DC3000F039FF02467B6803F524
:1059A0008053C3F8D4207B6803221A7005E07B681B
:1059B00004225A707B6805221A7000BF1037BD465A
:1059C000B0BD80B582B000AF78607B6803F58053CE
:1059D00093F8E230002B0AD07B68043318460EF0AF
:1059E000C3F87B6803F58053002283F8E2204FF46C
:1059F000FA6000F017FF7B6800221A7000BF0837BA
:105A0000BD4680BD2DE9F047ADF58C5D82B00CAF91
:105A100007F5AC73A3F5A6731860D44B1B78022B63
:105A200001D000239AE107F58C73143B1946D04846
:105A3000FBF793FE07F5AC7333F84E3C1E4607F5B3
:105A4000AC7313F84F3C07F5AC7212F8502C07F505
:105A5000AC7111F8521C07F5AC7010F8530C0446E9
:105A600007F5AC7010F8540C054607F1D80014384F
:105A7000049503940291019200933346BD4A40215C
:105A80000FF09EFA07F1D801143907F58C73083B23
:105A9000062218460DF08EFC034607F58A5202F1E5
:105AA0001702137007F58A5303F117031B78082BAD
:105AB00060D1012307F58A5202F1100213604BE016
:105AC00007F5AC7333F84E3C9C4607F5AC7313F8FE
:105AD0004F3C1A4607F5AC7313F8503C194607F5CE
